:020000040800F2
:10000000FFFF002091190008F9110008FB110008FA
:10001000FD110008FF110008011200080000000097
:1000200000000000000000000000000003120008B3
:10003000051200080000000007120008091200085D
:10004000D9190008D9190008D9190008D9190008C8
:10005000D9190008D9190008D9190008D9190008B8
:10006000D9190008D9190008D9190008D9190008A8
:10007000D91900080D120008D9190008D91900086B
:10008000D9190008D9190008D9190008D919000888
:10009000D9190008D9190008D9190008D919000878
:1000A000D9190008D9190008D9190008D919000868
:1000B000D9190008D9190008D9190008D919000858
:1000C000D9190008D9190008D9190008D919000848
:1000D000D9190008D9190008D9190008D919000838
:1000E000D9190008D9190008D9190008D919000828
:1000F000D9190008D9190008D9190008D919000818
:10010000D9190008D9190008D9190008D919000807
:10011000D9190008D9190008D9190008D9190008F7
:10012000D9190008D9190008D9190008D9190008E7
:1001300000000000000000000000000000000000BF
:1001400000000000000000000000000000000000AF
:10015000000000000000000000000000000000009F
:10016000000000000000000000000000000000008F
:10017000000000000000000000000000000000007F
:10018000000000000000000000000000000000006F
:10019000000000000000000000000000000000005F
:1001A000000000000000000000000000000000004F
:1001B000000000000000000000000000000000003F
:1001C000000000000000000000000000000000002F
:1001D000000000000000000000000000000000001F
:0401E0005FF8E0F1F3
:1001E400044B05481B1A062B02D9044B03B11847CC
:1001F400704700BF73000020700000200000000062
:1002040005490648091A891001EBD171491002D039
:10021400034B03B1184770477000002070000020A2
:100224000000000010B5064C237843B9FFF7D8FF4F
:10023400044B13B10448AFF300800123237010BDB5
:100244007000002000000000F036000808B5084BDC
:100254001BB108490848AFF300800848036813B984
:10026400BDE80840CCE7064B002BF9D09847F7E7E8
:100274000000000074000020F03600087000002028
:1002840000000000024B0A460146186800F088B8D6
:100294000000002070B50F4E0F4D761BB61018BF2E
:1002A400002405D0013455F8043B9847A642F9D1FF
:1002B4000A4E0B4D03F01AFA761BB61018BF002431
:1002C40006D0013455F8043B9847A642F9D170BDD5
:1002D40070BD00BFC4380008C4380008C83800081E
:1002E400C4380008024B0146186800F0AFB800BFDC
:1002F40000000020024B0146186800F05FB800BF00
:100304000000002070B4860746D0541E002A41D055
:10031400CAB2034602E014F1FF343BD303F8012BC5
:100324009D07F8D1032C2ED9CDB245EA05250F2C13
:1003340045EA054519D9264603F11002103E0F2E51
:1003440042F8105C42F80C5C42F8085C42F8045C29
:1003540002F11002F2D8A4F1100222F00F0204F00C
:100364000F041032032C13440DD91E462246043ABE
:10037400032A46F8045BFAD8221F22F0030204324F
:10038400134404F003042CB1C9B21C4403F8011B48
:100394009C42FBD170BC704714460346C2E700BFC1
:1003A40038B502FB01F4214600F050F8054618B1B7
:1003B40022460021FFF7A6FF284638BD91B151F827
:1003C400043C0439002BB8BFC9181F4B1A68FAB192
:1003D4008A4230B40AD908680C18A24226D04A606E
:1003E400196030BC70478B4203D81A465368002BFF
:1003F400F9D1146815198D420DD006D808680C1867
:100404009C4219D04B605160EBE70C230360E8E792
:100414004A601960704709680C44111999421460C4
:10042400DFD10ACB0C4414605360DAE714685268D5
:10043400204481E80500D3E71C685B68204481E818
:1004440009005160CDE700BF8C00002070B5CC1CC2
:1004540024F0030408340C2C38BF0C24002C06466A
:100464003BDBA14239D8274D296851B10B681B1BCE
:1004740004D436E013681B1B1AD511464A68002AB7
:10048400F8D16968002937D02146304600F03CF89D
:10049400431C22D0C51C25F00305A84205D0291A07
:1004A400304600F031F8013017D02A462C6004E0C1
:1004B4000B2B0DD913601A44146002F10B0020F0C9
:1004C4000700131DC31A02D05942D15070BD70BD2C
:1004D4008A420ED053684B60EFE70C230020336050
:1004E40070BD0B2B03D80A464B682B60E5E70A4620
:1004F400E0E70B460A46F8E7304600F005F8686086
:10050400C2E700BF8C00002038B50023064C054626
:100514000846236000F08EFD431C00D038BD2368DC
:10052400002BFBD02B6038BDD00200200CB40B464E
:10053400F0B56FF000454FF402774FF6FF769DB0AB
:1005440022AC54F8042B0293069302A92346019487
:10055400ADF8147004950795ADF8166000F00EF927
:100564000022029B1A701DB0BDE8F04002B0704733
:100574000EB40146F0B56FF000454FF402774FF624
:10058400FF769CB021AC54F8042B0B4B02910691DE
:10059400186802A923460194ADF8147004950795D0
:1005A400ADF8166000F0EAF80022029B1A701CB045
:1005B400BDE8F04003B07047000000202DE9F0478B
:1005C4008E680C469E421D46174628D88046888968
:1005D40010F4906F32D04E692368096906EB460621
:1005E400A3EB010906EBD6766B1C76104B44B342A1
:1005F400324684BF1E463246430522D51146404644
:10060400FFF724FF824680B34A46216900F006FCC6
:10061400A38923F4906343F08003A38116E01E466C
:1006240008682A46394600F06FFCA2682368961BC6
:100634002B44A66023600020BDE8F0870868354697
:10064400EFE7404600F0C4FC824650B1A6EB090334
:100654000AEB09006661C4F810A02060A3602E466E
:10066400DFE721694046FFF7A9FE0C23C8F80030F4
:10067400A3894FF0FF3043F04003A381BDE8F08726
:100684002DE9F04F936883B09046002B70D08246DA
:100694000C4617688D68086842E0A38913F4906FCC
:1006A4002ED06569216905EB4505A0EB010B05EB2F
:1006B400D5750BF101006D103044A8422A4684BF61
:1006C40005462A465B0538D511465046FFF7BEFE5F
:1006D40000283CD05A462169019000F09FFBA28972
:1006E400019B22F4906242F08002A281A5EB0B02EE
:1006F40003EB0B006561B346354623612060A260BD
:100704005A46494600F000FCD8F80830A268206830
:10071400551B58449E1BA5602060C8F808603EB372
:100724007E683B460837002EFAD0AE42D3F80090DC
:10073400AB46B2D23546B346E2E7504600F048FC39
:1007440003460028D2D121695046FFF737FE0C2317
:1007540000224FF0FF30CAF80030A38943F0400371
:10076400A381C8F80820C8F8042003B0BDE8F08FBE
:100774000020C8F8040003B0BDE8F08F2DE9F04F65
:100784000F4689899DB00C0691460393804603D594
:100794003B69002B00F0FC803023002020218DF8E1
:1007A4002A3099F800300125814C09908DF82910E0
:1007B400002B00F09180252BCA4603D119E0252B8C
:1007C40000F093801AF8013F002BF8D1BAEB090B23
:1007D40000F082804A465B4639464046FFF7EEFE0B
:1007E400013079D0099B9AF800205B440993002AD0
:1007F40072D000234FF0FF320AF1010A04930793E9
:1008040006938DF853301A93059205E0049B001B60
:1008140005FA00F0184304909AF8001005222046C7
:1008240000F0B6FAD1460AF1010A0028EED1049B81
:10083400D80644BF20228DF85320190748BF2B2225
:1008440099F8001048BF8DF853202A2971D0A1F1DE
:100854003002092A0BD8079B19F8011F03EB830305
:1008640002EB4303A1F13002092AF5D907932E299B
:1008740046D0DFF84CA10322504600F089FA48B173
:100884004022049BA0EB0A0002FA00F0034309F1A2
:100894000109049399F800300622194645488DF859
:1008A400283009F1010900F073FA00284DD0424BB9
:1008B400FBB103AB00933A46404B04A94046AFF367
:1008C40000800646721C07D0099B3344099399F8AB
:1008D4000030002B7FF46FAFBB895B064CBF4FF039
:1008E400FF3009981DB0BDE8F08FBAEB090B80D03A
:1008F40070E7039B073323F0070308330393E3E70D
:1009040099F8011009F101002A2928D00023A1F146
:100914003002092A05938146ABD819F8011F03EB6D
:10092400830302EB4303A1F13002092AF5D90593AD
:100934009FE7039A116804320029039222DB07918E
:1009440099F8011009F1010991E703AB00933A46C4
:100954001A4B04A9404600F0CDF80646B2E7039BC3
:1009640009F102001A680433002A0393B8BF4FF058
:10097400FF330592AEBF99F8021099F8021005935F
:10098400814676E7494243F0020307910493D7E78F
:100994004021FFF75BFD3860386110B140237B6173
:1009A400FAE60C234FF0FF30C8F800309AE700BF96
:1009B400883800089438000800000000C1050008C9
:1009C400903800082DE9F0470C460969A56891465E
:1009D4008D42B8BF0D46156094F8431006461F4675
:1009E400DDF8208011B16A1CC9F80020236899063B
:1009F4005DD5D9F800200232C9F80020236813F02D
:100A0400060F19461DD1E1688A1A002AD8BF194673
:100A140017DD002504F1190A05E0E368D9F8002080
:100A24009B1AAB420CDD0123524639463046C0477F
:100A3400013005F10105F0D14FF0FF30BDE8F0873A
:100A4400216894F84330003318BF01238A060AD57D
:100A54003021E21882F8431094F845105A1C2244BD
:100A640082F84310023304F1430239463046C0474A
:100A74000130E1D0236803F00603042B29D0A368D6
:100A840022699342C8BF4FF0000930DD9B1A994494
:100A940000251A3401E04D4529D001232246394668
:100AA4003046C047013005F10105F4D1C4E713F025
:100AB400060F08D1E168D9F800208A1A002AD8BFA5
:100AC4001946A6DCBDE794F84330003318BF012370
:100AD400C9E7D9F80010E068A3682269A0EB01090E
:100AE400934229EAE979D1DCB9F1000FD0D1002091
:100AF400BDE8F0872DE9F0430C46097E85B06E29E8
:100B040006461746984604F1430C0C9855D00FD866
:100B1400632900F0198100F2D48000295CD058299F
:100B240040F0E68084F845102268DFF85CE213E0C8
:100B3400732900F0FB8000F289806F2900F0E280C5
:100B4400702940F0D580226842F020022260782388
:100B5400DFF838E284F845300368150603F1040130
:100B640000F1FD8055064BBF1B881B6801600160C6
:100B7400D00744BF42F020022260002B40F0938053
:100B84001021226822F020022260002284F84320EF
:100B940060680028A060C0F28B80226822F0040202
:100BA4002260002B66D1002840F084806546082925
:100BB4006ED0ACEB0503236111E023681A0600F143
:100BC400D18013F0400F0368626903F104010160EE
:100BD4001B6814BF1A801A60002365462361CDF890
:100BE40000803B4603AA21463046FFF7EBFE013066
:100BF40021D02A46236939463046C04701301AD0ED
:100C04002368E06813F0020F039B19D0C21A002A6C
:100C140016DD002504F1190904E0E068039BC21AFB
:100C2400AA420DDD01234A4639463046C047013009
:100C340005F10105F1D14FF0FF3005B0BDE8F083B7
:100C44009842B8BF184605B0BDE8F083752959D05D
:100C540078294DD122687AE72D2061685B4200290A
:100C640084F84300A16020DB0A2122F00402DFF8AB
:100C740018E122606546B3FBF1F201FB12331EF862
:100C84000300134605F8010D002AF4D1082990D178
:100C94002368D9078DD5626823699A4289DC302399
:100CA400013D2B7085E710216FE70A21DFF8D8E0BA
:100CB400002BDFD19EF8003004F1420584F8423065
:100CC40075E7642901D0692912D1226803681506E1
:100CD40003F1040152D455064BBFB3F900301B682D
:100CE40001600160002BB7DB0A21DFF89CE04FE7CD
:100CF400012384F84210236104F14205002384F89F
:100D040043306CE723681A0633D413F0400F0368AA
:100D140003F1040215BF1B881B68026002606F297F
:100D240014BF0A210821DFF860E02EE70368626837
:100D3400191D01601D680021284600F029F800B340
:100D4400401B60602061D9E70122036804F1420579
:100D5400191D1B68016084F842302261CEE70160EE
:100D64001B6805E703686269191D01601B681A6046
:100D740032E703681A1D02601B68D0E701601B6834
:100D8400B0E76068DEE700BF9C380008B0380008B0
:100D9400830770B4CDB23DD0541E0AB30378AB427E
:100DA4001FD0431C05E014F1FF3419D30278AA4282
:100DB40017D013F0030F184603F10103F3D1032CEA
:100DC40011D84CB30378AB420BD00444431C02E06B
:100DD4000278AA4205D09C42184603F10103F7D1D8
:100DE400002070BC7047090289B2294341EA0141DD
:100DF400036806464B40A3F1013222EA030313F0D1
:100E0400803F00F1040003D1043C032CF0D8D8E760
:100E14003046D7E71446D2E72046E2E7844641EA63
:100E2400000313F0030349D1403A23D30B68036052
:100E34004B6843608B688360CB68C3600B69036154
:100E44004B6943618B698361CB69C3610B6A03623C
:100E54004B6A43628B6A8362CB6AC3620B6B036324
:100E64004B6B43638B6B8363CB6BC3634030403109
:100E7400403ADBD230320BD30B6803604B684360DB
:100E84008B688360CB68C36010301031103AF3D2A2
:100E94000C3205D351F8043B40F8043B043AF9D230
:100EA400043208D0D2071CBF11F8013B00F8013B03
:100EB40001D30B8803806046704700BF082A13D310
:100EC4008B07B1D010F00303AED0C3F10403D21AE0
:100ED400DB071CBF11F8013B00F8013BA4D331F838
:100EE400023B20F8023B9FE7043AD9D3013A11F8B8
:100EF400013B00F8013BF9D20B7803704B78437047
:100F04008B788370604670478842F0B50DD98B1892
:100F140098420AD28418002A51D0224613F8014D6F
:100F2400994202F8014DF9D1F0BD0F2A48D941EA9E
:100F340000039B0746D1154600F1100401F110038C
:100F440053F8106C103D44F8106C53F80C6C0F2DD2
:100F540044F80C6C53F8086C04F1100444F8186C51
:100F640053F8046C03F1100344F8146CE8D8A2F1AC
:100F7400100323F00F0302F00F0E1033BEF1030F22
:100F84001944034421D90E4674461D1F56F8047BA8
:100F9400043C032C45F8047FF8D8AEF1040424F093
:100FA400030404342144234402F0030262B1013BEC
:100FB4000A4411F8014B8A4203F8014FF9D1F0BDFC
:100FC4000346F3E70346F2E7F0BD7246EEE700BFDF
:100FD400F8B51446F9B1C2B106460D4600F020F842
:100FE400844201D82846F8BD21463046FFF72EFA40
:100FF400074670B122462946FFF710FF29463D46B1
:101004003046FFF7DBF92846F8BDFFF7D7F9254648
:10101400E8E70546E6E71146BDE8F840FFF716BAEB
:1010240051F8040C0028A0F10400BCBF0B58C018F0
:10103400704700BF044A05491368002B08BF0B46DC
:10104400184410601846704794000020D80200200D
:101054002DE9F041414D86B000F0E4FD00F0ECF8DC
:1010640000F022F900F07AFC00F0B0F900F098FAF0
:1010740000F012FB00F0C2FB00F0DCF900F01CFAF7
:1010840000F048FC00F0E2F90A232F2234492868D2
:1010940002F076FA00F034FB2820FFF723F9314BF5
:1010A40031491A780446C2F300130293C2F3C00311
:1010B4000193C2F380030093C2F3400302F00102E0
:1010C400FFF756FA2146C2B20A23286802F058FAFA
:1010D4002046FFF70FF90024FF23244D8DF8143028
:1010E4008DF815408DF816400599286800F05DFDCF
:1010F40028681F4D00F0D3FC1E4E22462146286866
:1011040000F0A7FC22460121286800F0A2FC224638
:101114002146306800F09DFC22460121306800F031
:1011240098FC4FF001080134E4B2642000F09EFD05
:10113400E70804F0070602D0072E08BF0024B7FA18
:1011440087F128680022490900F07AFC08FA06F2BF
:10115400D2B23946286800F073FCE4E7B8020020F4
:1011640018370008BC02002048370008C8020020D5
:10117400A8020020AC0200200A4B82B09A6942F017
:1011840001029A619A6902F001020092009ADA69F6
:1011940042F08052DA61DB6903F080530193019BD2
:1011A40002B07047001002400F4B1A6842F001026F
:1011B4001A6059680D4A0A405A601A6822F084720B
:1011C40022F480321A601A6822F480221A605A6863
:1011D40022F4FE025A604FF41F029A604FF000623C
:1011E400034B9A60704700BF001002400000FFF8F4
:1011F40000ED00E07047FEE7FEE7FEE7FEE770471C
:101204007047704700F020BD014B186800F028BEFD
:10121400C0020020022808B508D1054B1A78012A1B
:1012240003D11021034801F069F8FEE708BD00BFAF
:1012340098000020000801404FF4803310B590B0AE
:10124400012207934FF4003102240E934FF4E0136C
:1012540006A8069208910A920D940F9301F084FC5B
:1012640028B10E4B0E4A13212046FFF7D3FF0F235C
:10127400022401934FF480620023214601A80294C2
:1012840003930492059301F04FFE28B1054B044AE1
:101294001C212046FFF7BEFF10B010BD893700089F
:1012A40098370008A83700082DE9F04310270126D5
:1012B4004FF0020889B0404C3A4600210DEB07007C
:1012C400FFF720F8A369DFF8009143F00403A3615A
:1012D400A3690DEB070103F00403039348460025BB
:1012E400039B04970596CDF81C8000F095FE4FF4FF
:1012F40080730DEB07014846049305950695CDF8D8
:101304001C8000F089FE3A4629460DEB0700FEF7E3
:10131400F9FFA36909F5806943F00803A361A36990
:101324000DEB070103F008030293029B27234846B1
:1013340004930596CDF81C8000F06EFE4FF44073C4
:101344000DEB07014846049305950695CDF81C80DE
:1013540000F062FE3A4629460DEB0700FEF7D2FF85
:10136400A3690DEB07013B43A361A36913483B4009
:101374000193019B41F670730796049300F04CFEB1
:101384003A4629460DEB0700FEF7BCFFA3690DEBB7
:10139400070143F02003A361A369094803F0200374
:1013A4000093009B04230796049300F035FE054B3D
:1013B4001E7009B0BDE8F083001002400010014027
:1013C400001401409800002000080140012238B5B3
:1013D400164C1146204600F091FF154D204601227F
:1013E400022100F08BFF20460122042100F086FF39
:1013F40001221021284600F081FFC82000F036FCAD
:1014040020460022012100F079FF2046002202211B
:1014140000F074FF20460022042100F06FFF2846EC
:10142400BDE838400022102100F068BF000C0140E4
:101434000008014003480A231F220349006802F000
:101444009FB800BFB8020020B737000870470000FB
:101454000C4B73B51B780E46012B15460FD1104665
:10146400FEF740FF0A23044602460748009331462C
:101474002B46006801F000FA204602B070BD00243B
:10148400FAE700BF20010020B002002007B5104693
:101494001A46074B1B78012B06D10A2300930346F7
:1014A4000448006801F01AF903B05DF804FB00BFBA
:1014B40020010020B002002010B50820FEF712FF22
:1014C400154A0260154A426000F0B2FA0820FEF79D
:1014D40009FF134B044618600820FEF703FF114B65
:1014E40001221860202300216370FF2322702371DE
:1014F400E371A3706371E170A17121240371C3715D
:1015040083704371084B02701A70084B4470C170A9
:1015140081711A7010BD00BF9114000855140008A1
:10152400A8020020AC020020990000209A000020AC
:10153400044AC021D369044823F40013D36100F0A2
:1015440057BE00BF00100240000C014010B5124C01
:1015540086B01022002102A8FEF7D4FEA36902A9D6
:1015640043F00803A361A3690C4803F00803009344
:10157400009BC0230293122303930323059300F0DB
:101584004BFDE36943F40013E361E36903F40013DF
:101594000193019B06B010BD00100240000C0140F5
:1015A4001248134B10B5134C1860134B4FF4804280
:1015B40080E81800002301248360C3604361C36191
:1015C40003620E4B8461C3670D4B0261C0F8803027
:1015D40000F0B0FF38B1BDE810400A4B0A4A1F21A1
:1015E4000220FFF717BE094B1C7010BD9C000020A1
:1015F400B0020020A08601000054004051150008EC
:1016040035150008D7370008E63700082001002008
:10161400044A4FF4C0619369034823F480439361FF
:1016240000F0E6BD001002400008014010B586B08D
:101634001022002102A8FEF765FE154B154C9A698D
:1016440002A942F480429A619A69204602F48042D7
:101654000092009A9A6942F004029A619B6903F02D
:1016640004030193019B4FF4007302930223039339
:101674000323059300F0D0FC4FF48063029300230E
:1016840002A920460393049300F0C6FC06B010BDE3
:10169400001002400008014010B54FF4E134104836
:1016A400104B0C221860104B426180E81800002394
:1016B4008360C36003618361C3610C4B43660C4B5D
:1016C400836601F0DBFF38B1BDE81040094B0A4ADC
:1016D4001D210220FFF79EBD0122084B1A7010BD88
:1016E40024010020B802002000380140311600080F
:1016F40015160008F437000804380008B402002066
:10170400F8B54FF48071134800F0F2FD124D06460F
:101714004FF48071284600F0EBFD4FF4007107464A
:10172400284600F0E5FD4FF480518400284600F07F
:10173400DFFD44EA4704344364B244EAC004402170
:10174400064800F0D5FD64B2054B44EA0010187059
:10175400F8BD00BF00080140000C0140001001402A
:10176400BC02002010B50446064A006BD36923F07E
:101774000203D36100F036FB206ABDE8104000F09C
:1017840031BB00BF00100240174B37B5DA69174C64
:1017940042F00202DA61DB69802203F00203019362
:1017A400019B102305461249206880E80A00C260A4
:1017B40000234FF480728360026183614FF480627E
:1017C4004FF480534261C36100F0CCFA28B1094B55
:1017D400094A4E210220FFF71DFD23682B632B626B
:1017E4005D6203B030BD00BF00100240C0020020A3
:1017F40030000240433800085438000830B51C2239
:1018040000248FB021460DEB020001940294FEF7F0
:1018140079FD1022214603A8FEF774FD2D4B2E4AB4
:101824002E481A602E4B2F4D80E818005D23C360AC
:101834002D4B286083652D4B846004618461C365EE
:1018440001F0EEFD28B12A4B2A4A23210220FFF79A
:10185400E1FC002301A928680193029301F004FE2E
:1018640028B1254B234A29210220FFF7D3FC60230A
:1018740007930023042207A92868089309930B936C
:1018840001F02CFD28B11D4B1A4A31210220FFF72B
:10189400C1FC1B4B03A99A691A4842F010029A61D1
:1018A4009B6903F010030093009B8023039302239E
:1018B40004930323069300F0AFFB134A536843F0E9
:1018C400E06343F4406353600122104B1A700FB07D
:1018D40030BD00BFC002002090010020D4010020D0
:1018E40000040040C40200208D1700086917000896
:1018F4001438000854380008213800083238000829
:10190400001002400010014000000140800200204D
:101914000020704708B50B480B4B18600B2303805D
:1019240000230372094B436100F09CF828B1084B73
:10193400084A15210220FFF76DFC0122064B1A709C
:1019440008BD00BF84020020C80200201519000849
:1019540064380008723800089C0200200A4B07B55E
:101964005A69012142F001025A615B69002203F0C5
:10197400010301930D20019B00F09CF90D2000F060
:10198400CDF903B05DF804FB00100240002103E030
:101994000B4B5B58435004310A480B4B42189A4294
:1019A400F6D30A4A02E0002342F8043B084B9A4269
:1019B400F9D3FFF7F9FBFEF76DFCFFF749FB70471E
:1019C400CC380008000000207000002070000020C7
:1019D400D4020020FEE7000013B58DF80530064B55
:1019E40049008DF804201C68022201AB01F0FE01BD
:1019F400A04702B010BD00BFA002002011B1012910
:101A040006D070470622837841780078FFF7E4BF58
:101A140043790722F8E711B1012906D07047022261
:101A2400037941780078FFF7D7BFC3790322F8E739
:101A3400024B03C883E80300704700BFA0020020E4
:101A440011B1012903D070470271FFF7E4BFC271DD
:101A5400FBE711B1012903D070478270FFF7CEBFB5
:101A64004271FBE738B50588044615B94FF0FF30DD
:101A740038BD03212846FEF705FC60600028F5D038
:101A84001820684302213030FEF7FCFBE060002898
:101A9400ECD06069B0FA80F04009404238BD2DE9CD
:101AA400F8434568002D7CD0C468002C79D0027CB2
:101AB40002F0FF03002AFAD1027A012A0DD01A4655
:101AC4000188914224D8002215469918013289B21E
:101AD400302A24F81150F8D109E018251E4602884E
:101AE40099B26A4330328A4203F101030DD80123CB
:101AF4000188037401EB4101C9003031436989B2A3
:101B0400204698470020BDE8F88324F81160E6E7F2
:101B140002EB4206A91991F801808F78072115F884
:101B240006E003EB010948FA01FC1CF0010F0CBFAD
:101B34004FF01C0C4FF0320CA9EB0106B6B211F1B8
:101B4400FF3124F816C0EED2072103F10F084EFA34
:101B540001FC1CF0010F0CBF4FF01C0C4FF0320CB9
:101B6400A8EB0106B6B211F1FF3124F816C0EED28B
:101B7400072103F1170C47FA01FE1EF0010F0CBFF9
:101B84004FF01C0E4FF0320EACEB0106B6B211F161
:101B9400FF3124F816E0EED2183301329BB292B230
:101BA4008EE74FF0FF30BDE8F8830023F7B502AAB3
:101BB40042F8041D048899B28C4203F1010502D84D
:101BC400002003B0F0BD41689BB203EB43031788C8
:101BD4009678CC18CF52A6702B46EBE738B50E4B4F
:101BE400054618784FF47A73B3FBF0F30B4A106888
:101BF400B0FBF3F000F0A0F8044658B90F2D09D853
:101C0400024629464FF0FF3000F054F8044B2046BA
:101C14001D6038BD012038BD68000020640000202C
:101C24006C000020074A08B51368032043F0100332
:101C3400136000F02DF80F20FFF7D0FFFFF79CFA98
:101C4400002008BD00200240034A044B11681B78A1
:101C54000B441360704700BFCC02002068000020D2
:101C6400014B1868704700BFCC02002038B5044609
:101C7400FFF7F6FF0546631C1EBF044B1B78E418F0
:101C8400FFF7EEFF401B8442FAD838BD68000020FD
:101C9400074A0002D36800F4E06023F4E0631B0405
:101CA4001B0C43F0BF6343F400330343D36070471A
:101CB40000ED00E0174B30B5DC68C4F30224C4F136
:101CC4000703251D042B28BF0423062D4FF001050F
:101CD40098BF002405FA03F303F1FF3388BF033CE4
:101CE4001940A14005FA04F4013C2240002842EACC
:101CF40001024FEA0212A9BF00F16040064BD2B2C2
:101D040000F56140BBBF00F00F00D2B280F80023A1
:101D14001A5430BD00ED00E014ED00E0002808DBAB
:101D24000123420900F01F0003FA00F0014B43F8BD
:101D34002200704700E100E00138B0F1807F0AD250
:101D4400F021064B064A586082F82310002007222F
:101D540098601A6070470120704700BF10E000E0EF
:101D640000ED00E010B5002832D00168194B1424AE
:101D7400994225D8184AA3F207430A44B2FBF4F265
:101D8400920002648468C36343680A682343C46896
:101D940022F47F522343046922F03002234344692E
:101DA400234384692343C469234313430B600122FF
:101DB400002380F82120836380F82030184610BD6A
:101DC400064B0B44B3FBF4F39B000364044BD9E7C9
:101DD400012010BD07040240F8FFFDBFF8FBFDBF62
:101DE4000004024010B500282ED0036814241A6899
:101DF40022F001021A6000221A605A609A60DA60C6
:101E0400124A934218D812491944B1FBF4F1114B08
:101E140089000164C3630123016CC26B8B4053606E
:101E240000238362C36203634363836380F82130C6
:101E340080F82030184610BD074A1A44B2FBF4F269
:101E440092000264054BE5E7012010BD070402403F
:101E5400F8FFFDBF00000240F8FBFDBF0004024094
:101E640070B40425C66B026C34680368954025423F
:101E7400196855D04D0753D51A6896065EBF1A687F
:101E840022F004021A60604A93421FD902F562727A
:101E9400934214D01432934213D01432934212D08A
:101EA400143293420CBF4FF480434FF48023574ABB
:101EB4005360C36A002B00F0A58070BC184704234C
:101EC400F5E74023F3E74FF48063F0E750498B4292
:101ED40016D014318B4215D014318B4214D01431E6
:101EE4008B4214D014318B4214D014318B4214D051
:101EF400934214BF4FF480234FF08063454AD7E7E1
:101F04000423FBE74023F9E74FF48063F6E74FF43B
:101F14008043F3E74FF48023F0E74FF48003EDE7C9
:101F240002259540254257D08D0755D51A68940649
:101F340006D41A6822F00A021A60012280F82120CD
:101F4400314A93421ED902F56272934213D014327D
:101F5400934212D01432934211D0143293420CBFE4
:101F64004FF400534FF40033284A5360002380F8A1
:101F74002030836A9EE70223F6E72023F4E74FF438
:101F84000073F1E722498B4216D014318B4215D0ED
:101F940014318B4214D014318B4214D014318B423F
:101FA40014D014318B4214D0934214BF4FF4003335
:101FB4004FF00073174AD8E70223FBE72023F9E721
:101FC4004FF40073F6E74FF40053F3E74FF4003394
:101FD400F0E74FF40013EDE708259540254211D0B2
:101FE40009070FD5196821F00E011960012303FABE
:101FF40002F27260836380F82130002380F820307D
:10200400036B57E770BC7047800002400004024035
:1020140008000240000002402DE9F74F0024264644
:102024006C4F6D4BDFF8B8E1DFF8B8C10A6832FADB
:1020340006F502D103B0BDE8F08F4FF0010808FAAD
:1020440006F802EA0802904540F084804D68122D9B
:1020540000F0B18000F28780022D00F0A9807BD8C7
:10206400002D00F08C80012D00F0A0804FF00F09AE
:10207400FF2A93BF824606F18045083DD0F800B0A0
:1020840092BFB500D0F804B0AD0009FA05F82BEA08
:10209400080804FA05F588BF00F1040A48EA0505B2
:1020A400CAF80050D1F804A01AF0805F52D0BD697C
:1020B40026F0030845F00105BD61BD6908F18048BB
:1020C40005F00105019508F5803806F0030B019D24
:1020D4004FEA8B0BD8F8085009FA0BF925EA0909DD
:1020E4003E4DA8426CD005F58065A8426AD005F53E
:1020F4008065A84268D005F58065A84266D005F5DC
:102104008065A84264D070450CBF0525062505FAF4
:102114000BF545EA0905C8F808501D681AF4803F14
:1021240014BF154395431D605D681AF4003F14BF46
:10213400154395435D609D681AF4801F14BF1543D1
:1021440095439D60DD681AF4001F14BF2A4325EAF5
:102154000202DA60013669E7032D25D0112D85D1FD
:10216400CC68043482E7654509D012D8DFF878904A
:102174004D4504D009F580394D457FF477AF8C681F
:10218400E4B1012C0CBFC0F81080C0F814800824FE
:102194006CE7DFF858904D45F1D009F580394D458D
:1021A400EDD0A9F58019E7E700245FE7CC685DE787
:1021B400CC6808345AE7CC680C3457E7042455E754
:1021C4000025A4E70125A2E70225A0E703259EE751
:1021D40004259CE70010024000040140000801406F
:1021E400001C0140000021100000111000003110FB
:1021F4002DE9F04F00234FF001094FF00F0C384A3E
:10220400DFF8E4A0DFF8E4B031FA03F401D1BDE86B
:10221400F08F09FA03F60E4055D023F0030505F1BB
:10222400804505F5803503F00307AC68BF000CFA60
:1022340007F804EA080E2B4CA04246D004F580644B
:10224400A04244D004F58064A04242D004F58064E6
:10225400A04240D0504540D058450CBF0524062428
:10226400BC40A6456FEA06040FD1AF6827EA080709
:10227400AF60156825401560556825405560956820
:1022840025409560D5682540D560FF2E85BF03F1B4
:102294008045083DD0F800E0D0F804E094BF9D00EC
:1022A400AD000CFA05F62EEA06064FF0040E98BFB0
:1022B40007460EFA05F545EA060588BF071D3D6089
:1022C400C5682C40C46001339EE70024C8E701249C
:1022D400C6E70224C4E70324C2E70424C0E700BF1E
:1022E400000401400008014000180140001C0140A6
:1022F4008368194214BF0120002070470AB10161AC
:1023040070470904FBE770477047016800224B6976
:1023140013F4806310D06FF480634B612023026355
:1023240080F83D3080F83E20036C80F83C2043F078
:102334000403036401207047184670472DE9F843ED
:10234400044617469946C1F307488EB22568B8F18A
:10235400010F0CBF6B69AB6936EA030314BF01209C
:10236400002008B9BDE8F8836B695A0516D52B68B7
:10237400202243F400732B606FF480636B610023AD
:10238400236384F83D2084F83E30226C42F004023A
:10239400226484F83C300120BDE8F8837B1CD5D04E
:1023A400FFF75EFCA0EB0900874201D3002FCDD1DB
:1023B40000232022236384F83D2084F83E30226CDD
:1023C40042F02002E4E770B504460D461646236841
:1023D4005B695B0701D5002070BD2046FFF795FFC0
:1023E400A8B96A1CF3D0FFF73BFC801B854201D3DC
:1023F400002DECD100232022236384F83D2084F8AF
:102404003E30226C84F83C3042F0200222640120E9
:1024140070BD70477047704770477047704770478A
:102424007047704770B504460D46164620684369E8
:1024340013F0400301D0002070BD4269D2060ED5CE
:102444006FF0100242612022236384F83D2084F857
:102454003E30226C226484F83C30012070BDFFF7CA
:10246400FFFB801BA84201D8002DDFD100232022CE
:10247400236384F83D2084F83E30226C42F020022D
:10248400E8E72DE9F843044690461F46089EC1F349
:1024940007498DB22368B9F1010F0CBF5B699B69D1
:1024A40035EA03030CBF01230023434502D0002077
:1024B400BDE8F8837B1CEDD0FFF7D2FB801B87427D
:1024C40001D3002FE6D100232022236384F83D208A
:1024D40084F83E30226C84F83C3042F020022264BE
:1024E4000120BDE8F88370B504460D4616462368FE
:1024F4005B691B0601D5002070BD2046FFF705FF70
:10250400A8B96A1CF3D0FFF7ABFB801B854201D34B
:10251400002DECD100232022236384F83D2084F88D
:102524003E30226C84F83C3042F0200222640120C8
:1025340070BD000070B5044608B9012070BD90F864
:102544003D3003F0FF02E3B9554B80F83C2043656E
:10255400544B8365544BC365544B0366544B4366D9
:10256400544B8366544BC366544B0367544B4367C5
:10257400544B8367C36F0BB9534BC367E36F204658
:1025840098472423226884F83D30136823F001031C
:10259400136000F067FD65684C4B9D424DD84C4B71
:1025A4009842CAD94B492268B0FBF1F1536823F031
:1025B4003F030B435360136A23F03F030131194374
:1025C4001162D169414B21F44F419D4221F0FF0139
:1025D40000F1FF3049D86D00B0FBF5F00130C0F3D5
:1025E4000B03042B38BF04230B43D3611168206A07
:1025F400E36921F0C00103430B4313609168E06871
:10260400236921F40341034321F0FF010B43936049
:10261400D168A069636921F0FF0103430B43D360D0
:102624001368002043F0010313602023206484F81E
:102634003D30206384F83E0070BD274B98427FF6FE
:102644007CAF244E4FF49671B0FBF6F622687143CA
:10265400536823F03F0333434FF47A765360136A8D
:10266400B1FBF6F123F03F03A8E7A36853B905EBE8
:102674004503B0FBF3F0431CC3F30B036BB143F40A
:102684000043B1E719236B43B0FBF3F0431CC3F3DE
:102694000B0313B143F44043A6E70123A4E700BFAF
:1026A4001B2400081D2400081F24000821240008FE
:1026B40023240008252400082724000817240008E0
:1026C4000D2300080B23000819240008A08601002C
:1026D4007F841E0040420F00FF083D002DE9FF41AA
:1026E40004461F460D469046FFF7BAFA94F83D306B
:1026F4000646202B04D00225284604B0BDE8F0810C
:1027040000901923012258492046FFF7BAFE0028F9
:10271400F1D194F83C30012BEDD0012384F83C3006
:1027240023681A68D2075EBF1A6842F001021A6071
:102734001A6822F400621A60212284F83D201022D3
:1027440084F83E20002222646785628DC4F82480C8
:102754002285464AE262E26A082A04D0012A02D0AB
:1027640012F5803F04D11A6842F480721A6002E0C4
:10277400226B122AF7D000960A9B00224FF0011117
:102784002046FFF77EFE08B10125B5E723692268DC
:10279400B3F5804F13D105F0FE05156133460A9A4F
:1027A40033492046FFF7CAFD05460028ECD12368CB
:1027B40003905A6903929B690393039B44E0EB11D2
:1027C40003F0060343F0F00313612A4933460A9ADF
:1027D4002046FFF7B3FD0028D6D12368EDB21D6172
:1027E400DCE732460A992046FFF77DFE40B1236CB0
:1027F400042B01BF2268136843F400731360C3E71A
:10280400636A20681A4612F8011B01616262628DD4
:10281400013A92B26285228D4769511E89B27F07BF
:1028240021850AD549B15978023301616362638D08
:10283400023A013B9BB26385228532460A992046BF
:10284400FFF7C1FD0028D2D1238D002BC9D1216807
:102854000A6842F400720A60202284F83C3084F84A
:102864003D2084F83E3047E7020010000000FFFFDF
:1028740002000100080001002DE9F043044689B07C
:1028840098460F469146109EFFF7EAF994F83D30BA
:102894000546202B04D00227384609B0BDE8F08352
:1028A4000090192301229C492046FFF7EAFD0028E5
:1028B400F1D194F83C30012BEDD0012384F83C3065
:1028C40023681A68D0075EBF1A6842F001021A60D2
:1028D4001A6822F400621A60222284F83D20102231
:1028E40084F83E2000222264A4F82A80628DC4F871
:1028F40024902285894AE262E26A1968082A41F42E
:102904008061196004D0012A02D012F5803F04D1FD
:102914001A6842F480721A6002E0226B112AF7D01E
:102924000095334600224FF001112046FFF7A9FD20
:1029340008B10127B0E72369B3F5804F236843D179
:1029440047F00107FFB21F612B4632467449204607
:10295400FFF7F4FC07460028EBD1228D2368002AF8
:1029640066D0012A77D11A6822F480621A6072B69E
:10297400236804975A6904929A690492049A1A681B
:1029840042F400721A6062B6DFF89C81238D002B3A
:1029940058D0032B00F2CA80012B78D12A46314645
:1029A4002046FFF73FFD0028C3D12268636A1269FD
:1029B4001A70636A01336362238D013B2385638D3F
:1029C400013B9BB26385E1E74FEAE71808F006088C
:1029D40048F0F0021A6153492B4632462046FFF76D
:1029E400ADFC0028A5D12368FFB21F6132462B46F7
:1029F4004B492046FFF7A2FC0246002899D12368E0
:102A040007905969204607919969079107991968B0
:102A140041F480711960009533464FF00111FFF7BE
:102A240030FD002885D1226848F0F10313618BE75B
:102A340003975A6903929A690392039A1A6842F4B3
:102A440000721A60202384F83D30002384F83E305D
:102A540084F83C3020E7022A1A680ED142F400625E
:102A64001A6072B6236805975A6905929A690592A5
:102A7400059A1A6822F4806284E742F480621A603C
:102A840006975A6906929B690693069B7CE7022B7C
:102A9400009533464FF000024146204619D1FFF716
:102AA400F0FC00287FF445AF72B623681A6842F43C
:102AB40000721A601B69626A1370636A013363628D
:102AC400238D013B2385638D013B9BB2638562B6F5
:102AD4006BE7FFF7D6FC024600287FF42AAF216893
:102AE4000B6823F480630B6072B62168636A09691A
:102AF40020461970636A009501336362238D414651
:102B0400013B2385638D013B9BB263853346FFF70D
:102B1400B8FC0028C9D00CE7020010000000FFFF39
:102B24000200010008000100040001002A463146A9
:102B34002046FFF777FC00287FF4FBAE2268636A27
:102B440012691A70626A531C6362238D013B2385E8
:102B5400638D013B9BB263852368596949077FF5FF
:102B640015AF1B69537024E72DE9F341054608B9F5
:102B740001203CE00368DB0710D42B689F075DD479
:102B84002B68190700F194802B685A0700F1BE8066
:102B9400E869002840F02C81002028E08F4C63680D
:102BA40003F00C03042B07D0636803F00C03082B19
:102BB40009D16368DE0306D523689C03DDD56B6801
:102BC400002BDAD1D4E76B68B3F5803F12D12368C8
:102BD40043F480332360FFF743F8064623689803E1
:102BE400CBD4FFF73DF8801B6428F7D9032002B04B
:102BF400BDE8F0819BB9236823F480332360236804
:102C040023F480232360FFF72BF8064623689903F7
:102C1400B3D5FFF725F8801B6428F7D9E6E7B3F5A9
:102C2400A02F236803D143F480232360CFE723F448
:102C340080332360236823F48023CBE7674C6368E5
:102C440013F00C0F07D0636803F00C03082B10D1AA
:102C54006368DA030DD423689B0702D52B69012B23
:102C640086D123686A6923F0F80343EAC203236028
:102C740086E72A695A4B6AB101221A60FEF7F0FF0F
:102C8400064623689F07ECD4FEF7EAFF801B022860
:102C9400F7D9ABE71A60FEF7E3FF06462368980707
:102CA4007FF56EAFFEF7DCFF801B0228F6D99DE7A7
:102CB400AA694A4C4B4BDAB101221A60FEF7D0FFE5
:102CC4000646636A9B070DD54FF4FA52464B1B68C0
:102CD400B3FBF2F3019300BF019B5A1E0192002B38
:102CE400F9D151E7FEF7BCFF801B0228E9D97DE743
:102CF4001A60FEF7B5FF0646636A9F077FF544AF87
:102D0400FEF7AEFF801B0228F6D96FE7334CE36968
:102D1400D80024D40127E36943F08053E361E369D5
:102D240003F080530093009B304E3368D90518D5C7
:102D3400EB68012B26D1236A43F001032362FEF7DB
:102D44008FFF41F288368046236A9B073FD5002FC8
:102D54003FF41EAFE36923F08053E36118E70027D3
:102D6400E2E7336843F480733360FEF779FF80460B
:102D74003368DA05DCD4FEF773FFA0EB080064289F
:102D8400F6D933E7ABB9236A41F2883823F001035B
:102D94002362236A23F004032362FEF761FF0646DD
:102DA400236A9807D3D5FEF75BFF801B4045F7D90C
:102DB4001CE7052B236A03D143F004032362BAE71B
:102DC40023F001032362236A23F00403B6E7FEF72A
:102DD40047FFA0EB0800B042B6D907E70010024055
:102DE400000042428004424264000020007000401F
:102DF4002A4B5A681C4602F00C02082A3DD00023D4
:102E0400274E022833602BD1FEF72AFF074623689A
:102E140099011FD42B6AB3F5803F05D16268A96874
:102E240022F400320A436260696A62680B4322F446
:102E340074121343636001233360FEF711FF0546E8
:102E440023689A013FF5A8AEFEF70AFF401B02284B
:102E5400F6D9CBE6FEF704FFC01B0228D7D9C5E696
:102E6400FEF7FEFE054623689B017FF595AEFEF74F
:102E7400F7FE401B0228F6D9B8E601283FF4B7AEA6
:102E840058682B6A00F480329A427FF471AE6B6A00
:102E940000F47010C01A18BF0120A8E60010024008
:102EA4006000424230B51B4B87B002AC03F1100501
:102EB400224618685968083303C2AB421446F7D156
:102EC40001238DF80430022313498DF805304B6833
:102ED40003F00C02042A1BD0082A02D00F4807B0C2
:102EE40030BDC3F3834206A80244DB0312F8102C5E
:102EF4000BD54B680A48C3F34043504306AA134416
:102F040013F8143CB0FBF3F0E9E706485043E6E756
:102F14000348E4E7083700080010024000127A0072
:102F24000024F40000093D002DE9F0410D4604465B
:102F340010B90120BDE8F081454A136803F0070386
:102F44008B4229D321688E0731D4CA0744D4404A1E
:102F5400136803F007039D4267D322683D4D12F0C6
:102F6400040F6ED1130706D56B68226923F46053EE
:102F740043EAC2036B60FFF795FF6B68364AC3F3FD
:102F84000313D35CD840354B1860354B1868FEF7F3
:102F940025FE0020BDE8F081136823F007030B43EE
:102FA4001360136803F007039942C2D1CAE7294B9F
:102FB40011F0040F1EBF5A6842F4E0625A60080719
:102FC40042BF5A6842F460525A605A68A06822F0BC
:102FD400F00202435A60B8E762681E4E012A336861
:102FE4001BD113F4003FA4D0736841F2883823F056
:102FF400030313437360FEF733FE07467368626886
:1030040003F00C03B3EB820FA1D0FEF729FEC01B23
:103014004045F3D90320BDE8F081022A02D113F020
:10302400007FE0E713F0020FDDE7136823F00703E6
:103034002B431360136803F007039D427FF479AFB9
:103044008BE76B68E16823F4E0630B436B6089E70B
:103054000020024000100240713700086400002084
:103064006C000020044B054A5B68C3F30223D35C65
:10307400034A1068D84070470010024081370008A6
:1030840064000020044B054A5B68C3F3C223D35C8D
:10309400034A1068D8407047001002408137000886
:1030A4006400002070470000036A70B523F0010338
:1030B4000362036A446882690D6822F073022A433A
:1030C4008D6823F002032B430E4DA84202D00E4E0E
:1030D400B04210D1CE6823F008033343A84223F052
:1030E400040302D0084DA84205D14D698E6924F429
:1030F400407435432C43446082614A6842630362EE
:1031040070BD00BF002C014000340140036A70B55B
:1031140023F480730362036A4468C2690D6822F071
:1031240073022A438D6823F4007343EA0523114D87
:10313400A84203D005F50065A84214D1CD6823F454
:10314400006343EA05230B4D23F48063A84203D0B4
:1031540005F50065A84206D14D698E6924F44054F2
:10316400354344EA05144460C2614A68C263036299
:1031740070BD00BF002C0140036A30B523F48053B6
:103184000362036A4468C2690D6822F4E64242EAB3
:1031940005228D6823F4005343EA0533084DA84201
:1031A40003D005F50065A84204D14D6924F4804498
:1031B40044EA85144460C2614A680264036230BD13
:1031C400002C014070477047704770477047704744
:1031D4007047704770477047244A0368904212D082
:1031E40002F5006290420ED0B0F1804F0BD0A2F5F0
:1031F4009832904207D002F58062904203D002F5E3
:10320400806290421DD14A6823F070031343174A29
:10321400904212D002F5006290420ED0B0F1804F7D
:103224000BD0A2F59832904207D002F5806290420A
:1032340003D002F58062904203D1CA6823F440733C
:1032440013434A6923F08003134303608B68C3620A
:103254000B688362054B984203D003F500639842E0
:1032640001D10B690363012343617047002C0140C2
:10327400036A70B523F010030362036A4468826929
:103284000D6822F4E64242EA05228D6823F0200309
:1032940043EA0513104DA84203D005F50065A84282
:1032A40014D1CD6823F0800343EA05130A4D23F0BB
:1032B4004003A84203D005F50065A84206D14D6934
:1032C4008E6924F44064354344EA85044460826191
:1032D4004A688263036270BD002C014038B590F8DF
:1032E4003C300446012B4FF0020025D0012384F822
:1032F4003D0084F83C300C2A18D8DFE802F00717A8
:1033040017171E1717172F17171740002068FFF7F6
:10331400CBFE236809699A6942F008029A619A69A6
:1033240022F004029A619A690A439A6101230020F7
:1033340084F83D3084F83C0038BD2068FFF798FFDE
:10334400236809699A6942F400629A619A6922F4CD
:1033540080629A619A6942EA0122E6E72068FFF7EF
:10336400D5FE23680969DA6942F00802DA61DA698C
:1033740022F00402DA61DA690A43DA61D6E72068E6
:10338400FFF7FAFE23680969DA6942F40062DA6138
:10339400DA6922F48062DA61DA6942EA0122ECE74E
:1033A400124B8367124BC367124BC0F88030124B29
:1033B400C0F88430114BC0F88830114BC0F88C3001
:1033C400104BC0F89030104BC0F894300F4BC0F83D
:1033D40098300F4BC0F89C300E4BC0F8A0300E4B09
:1033E400C0F8A4300D4BC0F8A8307047CB310008AA
:1033F400CD310008D9310008DB310008D131000893
:10340400D3310008CF310008D5310008D731000886
:10341400A9300008A9340008AB340008AD34000812
:1034240010B50446D8B190F83D3003F0FF0253B90B
:1034340080F83C20FFF7B4FF836D0BB9094B83651B
:10344400A36D204698470223206884F83D30211D4F
:10345400FFF7C2FE0123002084F83D3010BD012097
:1034640010BD00BFC931000890F83C3030B5012BC5
:103474004FF0020314D0046880F83D306268A368FA
:103484000D68496822F0700223F080030B432A433D
:103494006260A360012380F83D30002380F83C3053
:1034A400184630BD704770477047704738B50546B9
:1034B4000368C1681A69192422F440520A431A6144
:1034C40082680069D9680243686921F4B05121F027
:1034D4000C0102430A43DA605A69A96922F4407272
:1034E4000A435A610D4A934214D1FFF7CBFD60435E
:1034F4006C686422A400B0FBF4F0B0FBF2F402FBAD
:1035040014031B013233B3FBF2F3296803EB0413F6
:103514008B6038BDFFF7A6FDE9E700BF0038014026
:10352400F8B504460E4617461D4621680B6836EA70
:10353400030301D10020F8BD6B1CF7D095B92368B3
:103544000320DA6822F4D072DA605A6922F00102A8
:103554005A61202384F8393084F83A30002384F8FF
:103564003830F8BDFEF77CFBC01B8542DDD2E6E7B0
:10357400704770477047704770477047704770478F
:103584002DE9F0411F4690F839300446202B0D46B2
:1035940090464ED1002949D0002A47D090F83830BF
:1035A400012B46D0012380F838300023C363212344
:1035B40080F83930FEF754FB0646A4F82480A4F8BA
:1035C4002680E38C9BB26BB93B46324640212046B1
:1035D400FFF7A6FFA8B9202384F8380084F839300F
:1035E400BDE8F081E38C3246013B9BB2E384A368DF
:1035F4008021B3F5805F20463B460ED1FFF790FF54
:1036040010B10320BDE8F0812B882268C3F30803BE
:103614005360236943B90235D3E7FFF781FF0028DC
:10362400EFD123682A785A600135CAE70120BDE842
:10363400F0810220BDE8F081084B0364084B436429
:10364400084B8364084BC364084B0365084B43650C
:10365400084B8365084BC365704700BF7B35000882
:10366400793500087F3500087D350008813500086C
:103674008335000875350008AF34000810B50446DA
:1036840000282FD090F8393003F0FF0253B980F8A6
:103694003820FFF7D1FF436E0BB9134B4366636EBB
:1036A400204698472423226884F83930D36820467A
:1036B40023F40053D360FFF7F9FE236800201A694E
:1036C40022F490421A615A6922F02A025A61DA6895
:1036D40042F40052DA602023E06384F8393084F83D
:1036E4003A3010BD012010BD77350008F8B500BF91
:1036F400F8BC08BC9E467047F8B500BFF8BC08BCCF
:043704009E46704726
:1037080002030405060708090A0B0C0D0E0F10101A
:103718005B424B465D2053797374656D20696E6911
:103728007420636F6D706C6574652E2053746172BC
:1037380074696E67206669726D776172652E0A001A
:103748005B424B465D20526561642068776269740C
:10375800733A205B25645D5B25645D5B25645D5B76
:1037680025645D5B25645D0A000000000000000020
:103778000001020304060708090000000001020313
:10378800045243434F53432048414C204552520072
:103798007372632F7379735F636C6F636B2E63004F
:1037A800524343434C4B2048414C20455252005B06
:1037B800424B465D2053797374656D2048572D49F7
:1037C8006E697420636F6D706C6574652E0A0049AC
:1037D80032433120494E4954204641494C007372C6
:1037E800632F7379735F6932632E630055415254B6
:1037F8003120494E4954204641494C007372632F89
:103808007379735F75736172742E630054494D2028
:10381800494E4954204552520054494D204D435376
:1038280020494E4954204552520054494D204F4397
:103838004320494E4954204552520054494D204492
:103848004D4120494E495420455252007372632F0E
:103858007379735F74696D65722E63004E503332ED
:1038680020494E495420455252007372632F737990
:10387800735F7773323831322E63000043000000E3
:10388800232D302B20000000686C4C0065666745CE
:103898004647000030313233343536373839414203
:1038A8004344454600000000303132333435363762
:0C38B8003839616263646566000000003E
:0438C40051020008A5
:0438C80029020008C9
:1038CC0004000020000000000000000000000000C8
:1038DC0000000000000000000000000000000000DC
:1038EC000000000084380008000000000000000008
:1038FC0000000000000000000000000000000000BC
:10390C0000000000000000000000000000000000AB
:10391C00000000000000000000000000000000009B
:10392C00000000000024F400010000001000000062
:040000050800199145
:00000001FF
