:020000040800F2
:10000000FFFF0020051600082D0400083104000839
:1000100071040008B1040008F104000800000000A9
:100020000000000000000000000000003105000892
:1000300033050008000000003505000837050008FA
:100040004D1600084D1600084D1600084D16000804
:100050004D1600084D1600084D1600084D160008F4
:100060004D1600084D1600084D1600083D05000805
:100070004D1600084D1600084D1600084D160008D4
:100080004D1600084D1600084D1600084D160008C4
:100090004D1600084D1600084D1600084D160008B4
:1000A0004D1600084D1600084D1600084D160008A4
:1000B0004D1600084D1600084D1600084D16000894
:1000C0004D1600084D1600084D1600084D16000884
:1000D0004D1600084D1600084D1600084D16000874
:1000E0004D1600084D1600084D1600084D16000864
:1000F0004D1600084D1600084D1600084D16000854
:100100004D1600084D1600084D1600084D16000843
:100110004D1600084D1600084D1600084D16000833
:100120004D1600084D1600084D1600084D16000823
:1001300000000000000000000000000000000000BF
:1001400000000000000000000000000000000000AF
:10015000000000000000000000000000000000009F
:10016000000000000000000000000000000000008F
:10017000000000000000000000000000000000007F
:10018000000000000000000000000000000000006F
:10019000000000000000000000000000000000005F
:1001A000000000000000000000000000000000004F
:1001B000000000000000000000000000000000003F
:1001C000000000000000000000000000000000002F
:1001D000000000000000000000000000000000001F
:0401E0005FF8E0F1F3
:1001E40010B5054C237833B9044B13B10448AFF36D
:1001F40000800123237010BD0C02002000000000C9
:100204002054000808B5034B1BB103490348AFF35E
:10021400008008BD000000001002002020540008E7
:10022400034613F8012B002AFBD1181A0138704732
:1002340030B54C4D85B002F06FF800F03BFA00F099
:1002440071FA00F0C1FD00F0E5FA00F0C3FB00F024
:1002540039FC286800F0ECF900F0DCFC00F00EFB3F
:1002640000F022FA404800F00DFA404800F00AFA83
:100274003F4800F007FA3F4800F004FA3E4800F017
:1002840001FA3E4800F0FEF9012300211A463C48D9
:1002940000F0F8F93B4800F0D1F93B4800F0F2F9DE
:1002A40000F0E6FD394800F0EDF900F029FB00F01C
:1002B40067FD00F04BFE00F0EDFA0A232F223449CB
:1002C400286803F08BFF00F031FC282004F010FCB8
:1002D4000446304B30491A78C2F300130293C2F338
:1002E400C0030193C2F380030093C2F3400302F0FE
:1002F400010204F0EFFC0A2321462322286803F0BC
:100304006DFF2046254C04F0FBFB206801F0D5FF6F
:10031400206801F032FF0022214C1146206801F0D0
:1003240006FF20680022012101F001FF00221D4C7C
:100334001146206801F0FBFE20680022012101F033
:10034400F6FE0024184D642084F0010402F008F83D
:1003540022460121284602F0D7FB01F0A1F901F061
:1003640057FAF0E7A0050020385400088854000824
:10037400D85400082855000878550008C8550008C6
:10038400185600086E5A00083B56000855560008D7
:1003940075560008A4050020A5560008B0050020E5
:1003A4009005002094050020000C01400A4B82B007
:1003B4009A6942F001029A619A6902F0010200927C
:1003C400009ADA6942F08052DA61DB6903F0805303
:1003D4000193019B02B07047001002400F4B1A6852
:1003E40042F001021A6059680D4A0A405A601A68BC
:1003F40022F0847222F480321A601A6822F4802275
:100404001A605A6822F4FE025A604FF41F029A607E
:100414004FF00062034B9A60704700BF0010024027
:100424000000FFF800ED00E07047000008B50C4B39
:100434001C78012C13D1224610210A4802F064FBD7
:1004440000222146084802F05FFB002202210648F0
:1004540002F05AFB00220421034802F055FBFEE798
:100464002C02002000080140000C014008B50C4B90
:100474001C78012C13D1224610210A4802F044FBB7
:1004840022462146084802F03FFB0022022106488A
:1004940002F03AFB00220421034802F035FBFEE798
:1004A4002C02002000080140000C014008B50C4B50
:1004B4001C78012C13D1224610210A4802F024FB97
:1004C40000222146084802F01FFB2246022106486A
:1004D40002F01AFB00220421034802F015FBFEE798
:1004E4002C02002000080140000C014008B50C4B10
:1004F4001C78012C13D1224610210A4802F004FB77
:1005040022462146084802F0FFFA22460221064804
:1005140002F0FAFA00220421034802F0F5FAFEE799
:100524002C02002000080140000C01407047704775
:10053400704701F003BF000008B5054B186802F0CE
:100544003DF8044B1868BDE8084001F09ABE00BFAE
:10055400A8050020B00500202DE9F3410746C4207A
:100564000E4690461D4604F0C3FA044698B133463D
:100574002A46CDE90078094904F0ACFB82B2084868
:100584000A232146006803F029FE204602B0BDE894
:10059400F04104F0B5BA02B0BDE8F081E6560008B7
:1005A400A005002008B5084B1B78012B02D1074B8E
:1005B400FFF7D2FF064B1A78012A03D11021054810
:1005C40002F0A2FAFEE700BF9C05002009570008CC
:1005D4002C0200200008014010B50446012C0846F6
:1005E40011461A460BD0022C0FD084B9084B1B7845
:1005F400012B0CD1074BBDE81040FFF7ADBF044BF6
:100604001B78012B03D1044BF5E7FFF7CBFF10BD9B
:100614009C050020155700080F570008382008B51E
:10062400014A0249FFF7BEFF1D570008345700086E
:1006340008B1014B18607047280200200FB473B54D
:100644000F4D069E2B68B3B13046FFF7E9FD00F568
:10065400807004F04DFA044668B107AA314601924D
:1006640004F06EFB0A2382B22146286803F0B6FD2B
:10067400204604F045FA02B0BDE8704004B070476B
:10068400280200200FB407B504A951F8040B019106
:10069400FFF7D4FF0348FFF7D1FF03B05DF804EB85
:1006A40004B070476E5A00080148FFF7C7BF00BF87
:1006B4004057000810B54FF480330122022490B053
:1006C4004FF40031CDE90623CDE90D434FF4E01397
:1006D40006A808910A920F9302F09EFF28B11321F5
:1006E40020460D4B0D4AFFF777FF0F2302244FF4EA
:1006F4008062CDE901340023214601A8CDE903320B
:10070400059303F065F928B11C212046044B034AE4
:10071400FFF762FF10B010BD485700085757000894
:10072400675700082DE9F041354C88B0A3690025CE
:1007340043F00403A361A369012603F004030393B4
:10074400039B10230227DFF8C8800DEB030140460A
:10075400CDE90436CDE9065702F06EF84FF4807304
:10076400404604A9CDE90435CDE9065702F064F802
:10077400A36908F5806843F00803A361A3694046B0
:1007840003F008030293029B272304A9CDE904364E
:10079400CDE9065702F050F84FF44073404604A9DF
:1007A400CDE90435CDE9065702F046F8A36904A95A
:1007B40043F01003A361A369124803F010030193EB
:1007C400019B41F6F073CDE90656CDE9043502F0FC
:1007D40033F8A3690C4843F02003A361A36904A977
:1007E40003F020030093009B0423CDE90656CDE9D2
:1007F400043502F021F8054B1E7008B0BDE8F08105
:100804000010024000100140001401402C0200209E
:1008140000080140012238B5164C1146204602F06A
:1008240073F9154D20460122022102F06DF920468C
:100834000122042102F068F901221021284602F065
:1008440063F9C82001F08CFD20460022012102F04A
:100854005BF920460022022102F056F920460022CC
:10086400042102F051F92846BDE838400022102145
:1008740002F04AB9000C01400008014003480A2371
:100884001F220349006803F0A9BC00BFA005002093
:10089400765700087047000073B50C4B0E461B7862
:1008A4001546012B0FD1104604F022F90A23044601
:1008B40002460748009331462B46006802F0D6FBF7
:1008C400204602B070BD0024FAE700BFB402002045
:1008D4009805002007B510461A46074B1B78012BD4
:1008E40006D10A23009303460448006802F0ECFA98
:1008F40003B05DF804FB00BFB4020020980500209B
:1009040010B5082004F0F4F80F4A02600F4A426060
:1009140001F0FCFB082004F0EBF80D4B04461860D2
:10092400082004F0E5F80B4B0B4A18606FF47F03C2
:10093400C4E90023094AC0E900230123084A1370CB
:10094400084A137010BD00BFD90800089D080008AC
:1009540090050020940500200120FF000121FF00E4
:100964002D0200202E020020044AC021D36904482D
:1009740023F40013D36102F049B800BF0010024011
:10098400000C0140002310B5104C86B00493A369F9
:10099400C02243F00803A361A3690D4803F00803D0
:1009A4000093009B1223CDE90223032302A905939C
:1009B40001F042FFE36943F40013E361E36903F4E4
:1009C40000130193019B06B010BD00BF001002404C
:1009D400000C01401248134B10B5134A1860134B16
:1009E4000124C0E9002300234FF48042C0E902330C
:1009F400C0E90423C0E907330D4B8461C3670D4B81
:100A0400C0F8803002F092F938B1BDE810401F21DF
:100A14000220094B094AFFF7DFBD094B1C7010BDCA
:100A2400300200209805002000540040A0860100F8
:100A3400890900086D09000896570008A5570008A1
:100A4400B4020020044A4FF4C0619369034823F4BC
:100A54008043936101F0DABF0010024000080140B6
:100A640030B5002487B0154B04949A69144D42F4B0
:100A740080429A619A69284602F480420092009A60
:100A84009A6902A942F004029A619B694FF40072C8
:100A940003F004030193019B0223CDE90223032302
:100AA400059301F0C9FE4FF48063284602A9CDE9FD
:100AB4000234049401F0C0FE07B030BD00100240BF
:100AC400000801401148124B10B518604FF4E1338F
:100AD400104AC0E9002300230C22C0E90233C0E914
:100AE40005230361C3610C4B43660C4B836603F01F
:100AF400F3FB38B1BDE810401D210220084B094A20
:100B0400FFF76ABD0122084B1A7010BDB80200201D
:100B1400A005002000380140650A0008490A0008C1
:100B2400B3570008C35700089C050020F8B54FF4DC
:100B34008071134801F0E2FF124D06464FF48071B4
:100B4400284601F0DBFF4FF400710746284601F008
:100B5400D5FF4FF480518400284601F0CFFF44EACA
:100B64004704344364B244EAC0044021064801F017
:100B7400C5FF64B2054B44EA00141C70F8BD00BF05
:100B840000080140000C014000100140A4050020B1
:100B9400034AC06AD36923F00103D36101F098BC0E
:100BA40000100240164B37B5DA69164D42F00102C7
:100BB400DA61DB69144A03F001030193019B1023FA
:100BC400044628684FF48071C0E900230023802282
:100BD4008361C0E902324FF480624FF48053C0E96C
:100BE4000412C36101F036FC28B15A210220074BDC
:100BF400074AFFF7F1FC2B68E3625C6203B030BD87
:100C040000100240A805002008000240D357000845
:100C1400E457000830B51C2200248FB021460DEBA8
:100C24000200CDE9014403F081FF1022214603A80C
:100C340003F07CFF354B364A36481A604FF0804348
:100C4400C0E900345D23C0E90334334B334D83657D
:100C5400334B2860C365334B8460C0F89430324B07
:100C64008461C0F89830314BC0F88830304BC0F8FC
:100C74008C30304B8367304BC367304BC0F88030C7
:100C84002F4BC0F8843003F0F9F928B13021022049
:100C94002C4B2D4AFFF7A0FC0023286801A9CDE9BD
:100CA400013303F00FFA28B136210220274B264ADC
:100CB400FFF792FC002360210822CDE9071328687E
:100CC40007A909930B9303F0A1F828B13E21022050
:100CD4001F4B1D4AFFF780FC1E4B1F489A6903A94E
:100CE40042F004029A619B69042203F00403009316
:100CF400009B0223CDE903230323069301F09CFD0B
:100D04000122164B1A700FB030BD00BFA805002099
:100D14002403002068030020A90B0008AC05002070
:100D2400950B0008013D0008033D0008FD3C000848
:100D3400FF3C0008F73C0008F93C0008053D0008AA
:100D4400073D0008F4570008E4570008015800085C
:100D5400125800080010024000080140140400204A
:100D64000246064808B500680B46082103F044F91A
:100D7400003818BF0120404208BD00BFAC05002068
:100D840008B50B480B4B18600B2303800023037238
:100D9400094B436101F0D4F928B11B210220074B10
:100DA400074AFFF719FC0122064B1A7008BD00BF61
:100DB40018040020B0050020650D00082358000821
:100DC40031580008300400200A4B07B55A69012144
:100DD40042F001025A615B69002203F001030193AE
:100DE4000B20019B01F0E0FA0B2003B05DF804EB4B
:100DF40001F00CBB0010024013B50C4668460621F6
:100E040000F0CEFC019B0098238002B010BDFFF7D8
:100E1400F3BFFFF7F1BF13B50C466846052100F098
:100E2400BFFC019B0098238002B010BD13B50C4693
:100E34006846042100F0B4FC019B0098238002B0B2
:100E440010BD13B50C466846032100F0A9FC019BB4
:100E54000098238002B010BD13B50C4668460021EB
:100E640000F09EFC019B0098238002B010BD00009E
:100E740010B5274C206808B103F042FE4FF4097006
:100E840003F036FE206028B937210220214B224A84
:100E9400FFF7A2FB2148FFF7F5FB00222049206859
:100EA40000F076FA28B13C2102201E4B1A4AFFF7C3
:100EB40093FB1D48FFF7E6FB1C49206800F090FAFD
:100EC40028B1412102201A4B134AFFF785FB194828
:100ED400FFF7D8FB1849206800F084FB28B14621AD
:100EE4000220164B0C4AFFF777FB1548FFF7CAFBA5
:100EF400206800F07CFA28B14B210220114B064AED
:100F0400FFF76AFBBDE810400F48FFF7BBBB00BF0B
:100F14003404002042580008615800086F58000843
:100F24001000002097580008A95800088C000020E1
:100F3400CC580008EC580008C400002018590008D8
:100F44003C5900086C590008845900081FB50B4827
:100F540000F07CFB70B90A4B01930A23ADF808300A
:100F6400084B039304AB13E9070000F083FD01224F
:100F7400054B1A7005B05DF804FB00BF3800002073
:100F8400010000FF2C0000203804002000207047DE
:100F9400704700207047002082B002AB03E90600CE
:100FA40002B07047002070470022C0E90022704759
:100FB4002DE9F34702AB03E903006120144603F073
:100FC40097FD0546042003F093FD214600240646C0
:100FD4001C4801F039F82746A146DFF87480DFF891
:100FE40068A0019BBB4213D82CB1002329461648A4
:100FF4002B5501F029F8154801F026F8304603F086
:101004007FFD284603F07CFD002002B0BDE8F08798
:10101400009B4146DA5D304603F05CFE337871781C
:101024002A192B55A31C51700334B278602CEA544E
:1010340006D12946504685F86090002401F004F852
:101044000137CEE7E8590008055700080A5A000896
:10105400045A000808B5074B1B78012B08D18AB243
:10106400014605480A23006803F0B8F8002008BDCB
:101074000120FCE79C050020A00500202DE9F04399
:101084005A4B89B01878012840F0AE80584B1B7831
:10109400012B40F0A6800026564F574D012404FA38
:1010A40006F8DFF858915FFA88F20021386801F0F9
:1010B40035F82146C8F30722386801F02FF8D9F82B
:1010C4000000C8F30742002101F028F8002221465D
:1010D400D9F80000B4B201F021F8631C4FF4805138
:1010E4002846ADF8043001F009FD431E584258412A
:1010F4008DF80600019800F07BFF04F117034FF40C
:1011040000612846ADF8083001F0F8FC421E504258
:1011140050418DF80A00029800F06AFF04F12D0393
:101124004FF480612846ADF80C3001F0E7FC411E15
:10113400484248418DF80E00039800F059FF04F12D
:1011440043034FF400712846ADF8103001F0D6FC8B
:1011540000F1FF3CDCF1000040EB0C008DF81200C4
:10116400049800F045FF04F159034FF480712846B8
:10117400ADF8143001F0C2FC00F1FF3EDEF10000D6
:1011840040EB0E008DF81600059800F031FF04F1D5
:101194006F0310212846ADF8183001F0AFFC00F1C0
:1011A400FF38D8F1000040EB08008DF81A000698CB
:1011B40000F01EFF853420212846ADF81C4001F0C4
:1011C4009DFC00F1FF39D9F1000040EB09008DF8D6
:1011D4001E000798013600F00BFF162E7FF45EAF59
:1011E400002009B0BDE8F0830120FAE72D020020B9
:1011F4002E020020900500200010014094050020DC
:10120400002070470020704707B50E4B02689A42D1
:1012140015D103F5DA33DA69142042F40002DA61F5
:101224000022DB69114603F400030193019B01F0E2
:10123400BBF8142003B05DF804EB01F0E7B803B089
:101244005DF804FB005C004038B508231D4C1E4AC1
:10125400C4F86802C4E900230223A3600023C0F891
:10126400204205461948C4E906332362FFF70AFA07
:10127400204602F073F808B1FFF7D0F91448FFF7DD
:1012840001FA002218231146D5F8200202F0ACF925
:10129400582300228021D5F8200202F0A5F90D4838
:1012A400FFF7F0F9982300228121D5F8200202F0FB
:1012B4009BF9D82300220121D5F8200202F094F9E9
:1012C400002038BDB4050020005C00400D5A000821
:1012D400175A0008215A000808B5D0F8200202F075
:1012E400B3F8032896BF024B0220185C08BD00BF68
:1012F4002B5A000810B51446D0F820021A4623468B
:1013040002F0B9F8032896BF014B0220185C10BD07
:101314002B5A000808B5D0F8200202F0DEF80328A2
:1013240096BF024B0220185C08BD00BF2B5A000870
:1013340008B5D0F8200202F023F9032896BF024B27
:101344000220185C08BD00BF2B5A000808B5D0F86D
:10135400200202F000F9032896BF024B0220185C19
:1013640008BD00BF2B5A000808B5D0F8200202F0CF
:10137400DDF8032896BF024B0220185C08BD00BFAD
:101384002B5A0008004870473C04002070477047FF
:1013940070B50D4616460446D0B10E48FFF772F9F3
:1013A400D4F8143213B10023C4F814320DB1C4F8C4
:1013B40010520123084884F8FC312670FFF762F9C3
:1013C4002046FFF741FF0548FFF75CF9002070BD98
:1013D4000220FCE72F5A0008375A00083F5A000839
:1013E40019B1C0F81412002070470220704708B5E4
:1013F400FFF772FF002008BD10B504468021FFF7F7
:1014040097FF2046BDE810400021FFF791BF134627
:10141400022210B5C0E90633C0F8F4210A460021BF
:10142400FFF794FF002010BD1346032210B5C0E956
:101434004233C0F8F4210A460021FFF795FF00204B
:1014440010BD00002923038000487047D400002009
:101454000A2303800048704704000020D0F81832A3
:10146400002083F86000704710B5D0F81842E36D8F
:10147400012B06D1D0F81C322046DB6898470023A4
:10148400E365002010BD38B5D0E986530446DB6817
:101494002846984750232A4601212046FFF764FF37
:1014A400002038BD38B50C78034614F06004D0F839
:1014B400185203D0202C2AD0002414E04A780A2A97
:1014C4001ED00B2A20D0062A0DD14A88120A222ABD
:1014D4000BD1CA88D0F81C125B2A28BF5B2209688A
:1014E4001846FFF794FF204638BD212A05D1CA8843
:1014F4001C49092A28BF0922F2E722462146EFE7C0
:10150400012205F15801ECE78B78AB65EBE74A78EB
:10151400023A092A20D8DFE802F013081F1F1F1F10
:101524001F170F058B782B65C6E7012205F15001C3
:101534001846FFF76CFFBFE74B881B0A6B65BBE7D8
:10154400012205F15401F3E701221846EA658A797C
:101554002946FFF769FFAFE71846FFF74DFF02245E
:10156400C1E700BF0F01002010B504468121FFF739
:10157400D1FE01212046FFF7CDFED4F8183253B135
:10158400D4F81C329B689847D4F81802FFF7FEFE83
:101594000023C4F81832002010BD70B504460A2395
:1015A40003228121FFF7A6FE0A23032201212046FC
:1015B400FFF7A0FE6420FFF7E5FE0546C4F8180215
:1015C40070B1002680F86060D4F81C325B689847DC
:1015D40050232A4601212046FFF7C6FE304670BD3F
:1015E4000220FCE719B1C0F81C1200207047022049
:1015F40070470020704700207047002070470000AB
:10160400002103E00B4B5B58435004310A480B4B59
:1016140042189A42F6D30A4A02E0002342F8043BF5
:10162400084B9A42F9D3FEF7D9FE03F03DFAFEF7D0
:10163400FFFD7047F45A0008000000200C0200204F
:101644000C02002034080020FEE7000010B510B999
:101654000124204610BD104C206000F04DF80028F5
:10166400F6D12068183000F023F90028F0D100F0FA
:1016740007FB0028ECD120681C3000F02DFC00286A
:10168400E6D12068203000F0D3FC04460028DFD1E6
:10169400024800F0D9FCDCE7A4040020475A000803
:1016A40008B5044800F0D0FC00F0D6FABDE80840C4
:1016B40000F0F4BB615A000870B590B1441E224694
:1016C400002312F8011F0133DBB20029F9D15B00BA
:1016D400D8B20323074A53700223107014F8016F21
:1016E40006B970BD5D1CD654EDB20233DBB2515560
:1016F400F4E700BFAC04002008B5A0B1016891B1C3
:101704000A4B828818600A4B1A72120A5A7282793A
:101714009A72DA720389074A93701B0AD3700B68B2
:101724009847002008BD0120FCE700BFA804002062
:10173400FD0000209D0100202DE9FF416B4683E858
:101744000600164B06461D6825B90125284604B037
:10175400BDE8F0812B68002BF7D09B68002BF4D0F8
:10176400DDF8048008F10107384603F0C1F90446A6
:101774000028EAD04246009900F8016B03F0C8F94A
:10178400CDE902472B6804A9012211E903009B68F3
:1017940098470546204603F0B3F9D7E7A80400208C
:1017A40010B50446062920D8DFE801F022040A0D0A
:1017B40010171B002920104BC4E90030204610BD2F
:1017C4008E200E4BF8E704200D4BF5E70D4B1B68FC
:1017D400D868FFF771FF0C4BEEE70A4B1B681869DA
:1017E400F7E7084B1B685869F3E700200346E3E773
:1017F4001220064BE0E700BFD40000200F010020B8
:101804009D010020A8040020AC040020FD0000205D
:1018140000F018BB431EB3F5007F2DE9F0410446E8
:1018240002D30120BDE8F0810E4D2F88002FF8D09F
:1018340068680028F5D04FF00C0808FB04F103F0A9
:1018440031FA06460028ECD0A74207D2E21B002159
:1018540008FB02F208FB070003F068F900202C8063
:101864006E60DFE72C050020F8B5431EB3F5007F5A
:10187400044601D30120F8BD0C4D2F88002FF9D068
:1018840068680028F6D0E10003F00CFA0646002848
:10189400F0D0A74206D2E21B0021D20000EBC70021
:1018A40003F044F900202C806E60E4E73C0500203E
:1018B40070B508B9012070BD0368002BFAD00F4B36
:1018C4001D68002DF6D140240D4E18600C212046D1
:1018D400348003F0E1F80B4B70601D700028E9D0F0
:1018E400094E08212046348003F0D6F87060B0FA1F
:1018F40080F0064B40091D70DDE700BF380500206D
:101904002C050020340500203C050020440500205F
:10191400114AF0B5168803460EB154682CB900225A
:101924001A609A809A601846F0BD0029F7D0002208
:101934000C27A4F10C0C90B28642F0D907FB02F0FC
:1019440025180C305CF8000001328842F3D195E888
:10195400070083E80700E6E72C0500202DE9F84F8F
:10196400204BB3F800E0BEF1000F38D05E68B6B388
:1019740000254FF00C0CA8460EF1FF37BFB20CFB4C
:1019840007F906EB0C0A1FFA85FBDE4501D8002097
:1019940023E00CFB05F3F25892B94946384613E0AC
:1019A40074180C395AF8012062B1334494E80700E2
:1019B40083E80700C4F80080A4F80480C4F8088011
:1019C4000135E0E7013880B25845E9D10B3080B2E7
:1019D400FFF720FF0020044B1870BDE8F88F0120AA
:1019E400FBE700BF2C05002034050020104A034605
:1019F4005068F0B508B114882CB900221A609A8096
:101A04009A711846F0BD0029F7D00022A0F108060B
:101A140095B2AC42F1D900EBC205013256F83270EE
:101A24008F42F5D195E8030083E80300E9E700BF9E
:101A34003C05002037B505460C4601466846FFF7CD
:101A4400D5FF0098A84209D168B19DF80630BDF8C9
:101A54000400022B04D9033B012B06D9002002E029
:101A6400231A5842584103B030BD84428CBF002031
:101A74000120F8E72DE9F043274E85B0338801AD06
:101A840085E807001BB9012005B0BDE8F083736841
:101A9400002BF8D0019F002FF5D0039B002BF2D030
:101AA4003846BDF80810FFF7C5FF0028EBD04FF00B
:101AB40000084FF00C0900224FF0FF33308874689F
:101AC40091B288420DD85A1C18D118F0FF0FDAD100
:101AD400203080B2FFF79EFE0028D4D108F101081F
:101AE400E9E709FB02F1615829B9B3F1FF3F08BFE7
:101AF40013460132E4E7B942FBD113460C2202FB40
:101B04000344A06802F0FCFF019795E8070084E80D
:101B140007000020B8E700BF2C0500200A4A014650
:101B2400536810B533B1108828B10022083B94B231
:101B3400A04201D8002010BD013253F832408C423B
:101B4400F5D10120F7E700BF3C0500202DE9F3475C
:101B54006E46204C86E80300636803B32388F3B120
:101B64008146E0B1FFF7DAFF0546C0B9BDF804A02D
:101B74000AF1FF337F2B12D8804600236168208846
:101B8400A1F1080E9FB2B8420BD819D118F0FF0F7B
:101B940005D107F1200080B2FFF766FE80B1012570
:101BA40013E001EBC30C01335EF83320002AE9D1C2
:101BB400CDF80090ADF804A096E803008CE803008B
:101BC400238808F10108BB42D7D0284602B0BDE8FB
:101BD400F08700BF3C0500201D4B2DE9F0415C68F7
:101BE4009CB31F888FB300239C467D1EADB204EBCB
:101BF400C50E9EB2B74201D8002024E054F8332029
:101C0400A2B97146284615E00A4651F80889B8F188
:101C1400000F0DD004EBC30692E8030086E803002E
:101C2400C2F800C0A2F804C082F806C00133E0E79D
:101C3400013880B2B042E7D10B3080B2FFF714FE16
:101C44000020044B1870BDE8F0810120FBE700BFC1
:101C54003C0500204405002008B5074B1B78092BE0
:101C640001D9FFF7B9FF054B1B78092B03D9BDE850
:101C74000840FFF773BE08BD44050020340500206A
:101C840008B5034B93E80300FFF760FF002008BD8D
:101C9400985A00082DE9F043044690460D4685B055
:101CA40031B9018081704160204605B0BDE8F08300
:101CB4002A4901A8FFF72CFE019B13B1BDF8087057
:101CC40027B900232380A3706360EDE703980028FD
:101CD400F7D00023A7F1030E7345F2DA9A1C591CBE
:101CE40092B289B2825C415C10F8039001EB02214C
:101CF400002203339BB289B296B2B142ECD99F421F
:101D0400EAD9C84527D15E1CB6B210F806C0C65C35
:101D140006EB0C26B6B203F1070CB5421FFA8CFC95
:101D240018D19A1C92B2875CDA1C92B2815C1A1D9B
:101D340092B2865C5A1D92B210F802C09A1D92B2F9
:101D4400835C25801B0603EB0C430B44A77003EB59
:101D54000623B9E763460132CEE700BF010000FF66
:101D64007FB585B2324EC0F307442246294601901E
:101D7400304800F069F9294602A83278FFF78AFF53
:101D8400BDF80810304669B18D420BD12A4B1A8830
:101D9400AA421D4609D132783AB1012C02D100225F
:101DA40032701A80002004B070BD9DF80A20039B95
:101DB400022A1DD0032A34D0012AF3D154B91F4872
:101DC400C3F3C40103F0070302FA03F3425C1343B1
:101DD4004354E7E7012CE5D11849C3F3C402885CF6
:101DE40003F0070304FA03F320EA03038B54D9E74F
:101DF40054B9DBB2072BD5D80122114902FA03F3F7
:101E04000A7813430B70CDE7012CCBD1DBB2072B3F
:101E1400C8D80B4A04FA03F3107820EA03031370BA
:101E2400C0E70278224304BF03702980BAE700BFE9
:101E340045050020705A0008680500204705002069
:101E44004605002037B5222002F052FE0446F0B1C8
:101E5400104B821C1B780370002343700E4B03F15C
:101E6400200153F8040B8B4242F8040BF9D12223CE
:101E74000094019302AB012013E90600FFF75CFC18
:101E84000546204602F03CFE284603B030BD01253D
:101E9400FAE700BF460500204705002008B5034BBC
:101EA4001B681B681B689847002008BD6C05002050
:101EB400074B10B584001880204602F019FE054B2C
:101EC40022460021186002F031FE002010BD00BF40
:101ED400740500207005002008B508B9012008BD6C
:101EE4000368002BFAD0064B18608020FFF7E0FF50
:101EF4000028F3D1034B1868B0FA80F04009EEE7EC
:101F04006C0500207005002008B5034B186802F02A
:101F1400F7FD002008BD00BF7005002070B5044621
:101F240018B9BDE87040FFF7EFBF0B4B0B4E1D888F
:101F340081001880306802F0B5FE306050B1A542CF
:101F440006D2621B0021920000EB051002F0EEFDA8
:101F5400002000E0012070BD740500207005002001
:101F6400034670B548B10B4A116881B10A4A0D1F86
:101F74001488002290B2844201D8002006E001EBCC
:101F84008200013235F822609E42F3D170BD0846CA
:101F9400FCE700BF7005002074050020F8B5054675
:101FA400F0B1114B1E68EEB1FFF7DAFF0446A8B991
:101FB4000E4B371F188823469AB2904204D810302B
:101FC40080B2FFF7ABFF09E006EB8302013337F879
:101FD40023100029F0D11446158091702046F8BDD5
:101FE4000446FBE73446F9E7700500207405002039
:101FF40030B585B285B0019015B9012005B030BD6A
:1020040028469DF80640FFF7C9FF0028F5D08378DD
:10201400A3420AD08470013C18BF0124ADF80C50CF
:102024008DF80E400398FFF79BFE0020E6E70000C2
:1020340028B103681BB1034B1860002070470120CE
:10204400704700BF780500200FB473B5184E069D85
:10205400336833B90125284602B0BDE8704004B0A6
:1020640070471B68002BF5D01B68002BF2D0284664
:10207400FEF7D6F800F5807002F03AFD0446002819
:10208400E8D007AA2946019202F05AFE05463368B1
:1020940006211B6807481B689847336829461B6854
:1020A40020461B6898470546204602F029FDD2E7E2
:1020B40078050020A05A000813B58DF80410417863
:1020C400064B49001C688DF805200078022201ABFC
:1020D40001F0FE01A04702B010BD00BF7C05002046
:1020E40011B1012904D0704706218278FFF7E4BFBB
:1020F40007214279FAE711B1012904D0704702217E
:102104000279FFF7D9BF0321C279FAE7024B03C86A
:1021140083E80300704700BF7C05002011B101294A
:1021240003D070470271FFF7E6BFC271FBE711B13C
:10213400012903D070478270FFF7D2BF4271FBE7D9
:1021440038B50588044615B94FF0FF3038BD032172
:10215400284602F0A1FC60600028F5D018206843EE
:102164000221303002F098FCE0600028ECD0606975
:10217400B0FA80F040094042E8E72DE9F0414568B3
:102184000446002D7AD0C068002877D0227C02F063
:10219400FF03002AFAD1227A012A26D01A4621887E
:1021A400914225D8002503F1300292B21946013339
:1021B4009BB2934220F81150F8D109E020F8116045
:1021C400228899B26A4330328A4203F10103F5D876
:1021D40001232188237401EB4101C9003031636973
:1021E40089B298470020BDE8F08118251E46E7E72C
:1021F40002EB4206A91991F801808F78002115F8A5
:1022040006E0C1F1070C48FA0CFC1CF0010F14BFE6
:102214004FF0320C4FF01C0C5E180131B6B2082995
:1022240020F816C0EDD1072103F10F084EFA01FC86
:102234001CF0010F14BF4FF0320C4FF01C0CA8EB34
:102244000106B6B2013920F816C0EFD2072103F116
:10225400170E47FA01FC1CF0010F14BF4FF0320CAB
:102264004FF01C0CAEEB0106B6B2013920F816C0D3
:10227400EFD2183301329BB292B290E74FF0FF30A5
:10228400B1E7037C0BB1002303747047002273B5DC
:102294000191018893B2994202D8002002B070BD26
:1022A400416893B203EB4303BDF804609DF8065004
:1022B400CC18CE520132A570EBE7002382B0ADF802
:1022C40004308DF80630019902B0FFF7DFBF00003B
:1022D40038B50E4B054618784FF47A73B3FBF0F318
:1022E4000B4A1068B0FBF3F000F09EF8044658B9AE
:1022F4000F2D09D8024629464FF0FF3000F054F85C
:102304002046044B1D6038BD0120FCE7A1010020DC
:1023140000000020A4010020074A08B51368032028
:1023240043F01003136000F02DF80F20FFF7D0FFE7
:10233400FEF73CF8002008BD00200240034A044B8D
:1023440011681B780B441360704700BF20080020FD
:10235400A1010020014B1868704700BF200800202D
:1023640038B50446FFF7F6FF0546631C1EBF044B51
:102374001B78E418FFF7EEFF431BA342FAD338BDE2
:10238400A101002007490302CA6803F4E06322F4B0
:10239400E0621204120C134343F0BF6343F40033AE
:1023A400CB60704700ED00E0164B30B5DC68C4F339
:1023B4000224C4F10703251D042B28BF0423062D82
:1023C4004FF0FF3598BF002405FA03F388BF033CA0
:1023D40021EA0303A34005FA04F422EA04020028D4
:1023E40043EA0203ACBF00F16040074A4FEA03131B
:1023F400DBB2ABBF00F5614000F00F0080F80033A2
:10240400135430BD00ED00E014ED00E0002808DBBB
:102414000123420900F01F0003FA00F0014B43F8C6
:102424002200704700E100E00138B0F1807F0AD259
:10243400F021064B064A586082F823100020072238
:1024440098601A6070470120704700BF10E000E0F8
:1024540000ED00E010B5002830D00168184B1424BA
:10246400994223D8174AA3F207430A44B2FBF4F271
:1024740092000264C363D0E901342343C4680A6848
:102484002343046922F47F522343446922F0300237
:10249400234384692343C469234313430B604FF4E8
:1024A4008072002302848363184610BD064B0B44DC
:1024B400B3FBF4F39B000364044BDBE70120F4E774
:1024C40007040240F8FFFDBFF8FBFDBF0004024013
:1024D40010B558B3036814241A6822F001021A6074
:1024E40000221A605A609A60DA60114A934215D841
:1024F40010491944B1FBF4F10F4B89000164C36323
:102504000123D0E90F218B4053600023C0E90A3333
:10251400C0E90C3383630384184610BD074A1A4488
:10252400B2FBF4F29200064B0264E8E70120F4E700
:1025340007040240F8FFFDBF00000240F8FBFDBFA6
:1025440000040240F0B590F82040012C34D001245E
:1025540090F8215080F82040A5424FF000064FF03B
:10256400020427D180F8214004688663266826F097
:1025740001062660D0E90F67BD407560636043685B
:10258400102BC36A0BBFA260A160E160E2604BB193
:10259400236843F00E0300202360236843F0010303
:1025A4002360F0BD236823F004032360236843F011
:1025B4000A03F0E780F820600220F2E770B40425F3
:1025C400C66B026C3468036895402542196800F0B4
:1025D40085804D0740F182801A68914996065EBF56
:1025E4001A6822F004021A608E4A93423ED98B4242
:1025F40035D014318B4234D014318B4233D0143162
:102604008B4220D014318B4220D014318B4220D005
:10261400934221D002F56272934220D01432934245
:102624001FD0143293421ED01432934214BF4FF47D
:1026340080234FF480437C4A5360C36A002B00F02C
:10264400ED8070BC18474FF48043F4E74FF48023C7
:10265400F1E74FF48003EEE74FF08063EBE70423E8
:10266400E9E74023E7E74FF48063E4E78B422ED0A9
:102674006E498B422DD014318B422CD014318B42B5
:1026840019D014318B4219D014318B4219D0934292
:102694001AD0674A93421AD01432934219D0143292
:1026A400934218D01432934214BF4FF480234FF452
:1026B4008043604AC0E74FF48043FAE74FF4802335
:1026C400F7E74FF48003F4E74FF08063F1E7042366
:1026D400EFE74023EDE74FF48063EAE702259540F6
:1026E400254200F087808D0740F184801A689406A3
:1026F40006D41A6822F00A021A60012280F8212006
:10270400484A474993423DD98B4234D014318B42D5
:1027140033D014318B4232D014318B421FD0143158
:102724008B421FD014318B421FD0934220D002F52C
:10273400627293421FD0143293421ED014329342D9
:102744001DD01432934214BF4FF400334FF400539E
:10275400354A5360002380F82030836A6EE74FF4D3
:102764000053F5E74FF40033F2E74FF40013EFE7BB
:102774004FF00073ECE70223EAE72023E8E74FF485
:102784000073E5E78B422ED028498B422DD01431BB
:102794008B422CD014318B4219D014318B4219D076
:1027A40014318B4219D093421AD0214A93421AD041
:1027B4001432934219D01432934218D014329342F3
:1027C40014BF4FF400334FF400531A4AC1E74FF4D7
:1027D4000053FAE74FF40033F7E74FF40013F4E73C
:1027E4004FF00073F1E70223EFE72023EDE74FF406
:1027F4000073EAE70825954025420FD009070DD557
:10280400196821F00E011960012303FA02F27260C3
:1028140083634FF480730384036B0FE770BC7047CA
:102824000800024080000240000402401C000240F4
:1028340008040240000002402DE9F74F002216462A
:102844006B4F6C4BDFF8B4C1DFF8B4E10C6834FAB9
:1028540006F502D103B0BDE8F08F4FF0010808FA85
:1028640006F804EA080538EA040440F082804C685B
:10287400032C07D8013C022C00F28D80DFE804F021
:102884009EA3A900122C00F0A18074D8112C00F092
:102894009780FF2D98BF82464FF00F0988BF00F143
:1028A400040A4FEA8604DAF8008088BF203C09FA5B
:1028B40004FB28EA0B0802FA04F448EA0404CAF800
:1028C4000040D1F804A01AF0805F52D0BC6926F011
:1028D400030844F00104BC61BC6908F1804804F0B9
:1028E4000104019408F5803806F0030B019C4FEABB
:1028F4008B0BD8F8084009FA0BF924EA09093E4C75
:10290400A0426AD004F58064A04268D004F58064D3
:10291400A04266D004F58064A04264D004F58064CB
:10292400A04262D060450CBF0524062404FA0BF4CF
:1029340044EA0904C8F808401C681AF4803F14BF2C
:102944002C43AC431C605C681AF4003F14BF2C4356
:10295400AC435C609C681AF4801F14BF2C43AC43E6
:102964009C60DC681AF4001F14BF254324EA0505A3
:10297400DD6001366AE774450DD018D8DFF884901D
:102984004C4508D009F570294C4504D0A9F58019A7
:102994004C457FF47EAF8A68EAB1012A08BFC0F8CB
:1029A40010804FF0080218BFC0F8148071E7DFF8F8
:1029B40058904C45EFD009F58039E9E7CA6868E7D3
:1029C400CA68043265E7CA68083262E7CA680C322A
:1029D4005FE700225DE704225BE70024A6E7012409
:1029E400A4E70224A2E70324A0E704249EE700BF8F
:1029F400001002400004014000080140001C014096
:102A04000000221000001210000031102DE9F04FD8
:102A140000244FF0010A4FF00F08354BDFF8D8B00F
:102A240031FA04F201D1BDE8F08F0AFA04F70F403D
:102A340052D024F0030505F180452E4A05F5803572
:102A440004F0030CAE684FEA8C0C08FA0CF99042BF
:102A540009EA060E42D002F58062904240D002F5A7
:102A6400806290423ED002F5806290423CD002F5F2
:102A7400806290423AD058450CBF0522062202FAE1
:102A84000CF272456FEA07060FD1AA6822EA09021E
:102A9400AA601A6832401A605A6832405A609A68CA
:102AA40032409A60DA683240DA60FF2F98BF0746F6
:102AB4004FEA840288BF071D3D6888BF203A08FAA0
:102AC40002FC25EA0C054FF0040C0CFA02F22A432E
:102AD4003A60C2681640C6600134A1E70022CEE71E
:102AE4000122CCE70222CAE70322C8E70422C6E790
:102AF4000004014000080140001C014083681942A1
:102B040014BF0120002070470AB101617047090415
:102B1400FBE770477047016800224B6913F4806338
:102B240010D06FF480634B612023026380F83D3042
:102B340080F83E20036C80F83C2043F004030364D7
:102B440001207047184670472DE9F04104460F46AE
:102B5400164698462568686927EA000080B2B8B12D
:102B64006B695A0516D52B68202243F400732B6039
:102B74006FF480636B610023236384F83D2084F841
:102B84003E30226C42F004020120226484F83C307E
:102B9400BDE8F081731CDED0FFF7DCFBA0EB08007E
:102BA400B04201D8002ED5D100232022236384F81B
:102BB4003D2084F83E30226C42F02002E4E770B5F8
:102BC40004460D46164623685B695B0701D5002061
:102BD40070BD2046FFF79FFFA8B96A1CF3D0FFF72A
:102BE400B9FB801BA84201D8002DECD10023202280
:102BF400236384F83D2084F83E30226C84F83C3012
:102C040042F0200222640120E2E7704770477047D7
:102C140070477047704770477047704770B50446F7
:102C24000D46164621684B6913F0400301D000207D
:102C340010E04A69D2060ED56FF010024A612022D4
:102C4400236384F83D2084F83E30226C0120226402
:102C540084F83C3070BDFFF77DFB801BA84201D88F
:102C6400002DDFD100232022236384F83D2084F843
:102C74003E30226C42F02002E8E72DE9F846064691
:102C84000F4691461D464FEA114A3368BAF1010FC7
:102C94000CBF5C699C6927EA0404A4B2B4FA84F406
:102CA4006409A14501D0002017E06A1CEED0FFF7AB
:102CB40051FB089BC01AA84201D8002DE5D100237E
:102CC40020220120336386F83D2086F83E30326CA2
:102CD40086F83C3042F020023264BDE8F88670B5D4
:102CE40004460D46164623685B691B0601D5002081
:102CF40070BD2046FFF70FFFA8B96A1CF3D0FFF799
:102D040029FB801BA84201D8002DECD100232022EE
:102D1400236384F83D2084F83E30226C84F83C30F0
:102D240042F0200222640120E2E7000070B504466C
:102D340008B9012070BD90F83D3003F0FF02E3B9FB
:102D4400524B80F83C204365514B8365514BC3651E
:102D5400514B0366514B4366514B8366514BC366DB
:102D6400514B0367514B4367514B8367C36F0BB997
:102D7400504BC3672046E36F98472423226884F8A6
:102D84003D30136823F00103136000F0BDFE4A4A8E
:102D94006368934294BF494A494A90428CBF0022D7
:102DA4000122002AC5D1474E2168B0FBF6F64A68D5
:102DB40022F03F0232434A603F4A0D6A934281BF88
:102DC4004FF4967272434FF47A76B2FBF6F225F022
:102DD4003F0594BF721C01322A430A62CD69421E28
:102DE400354825F44F45834225F0FF0532D85B0072
:102DF400B2FBF3F340F6FC720133134242D0C3F347
:102E04000B032B43CB610A68D4E9073022F0C002DC
:102E1400034313430B608A68D4E9030322F4034297
:102E2400034322F0FF0213438B60CA68D4E90530E0
:102E340022F0FF0203431343CB600B68002043F0EE
:102E440001030B602023206484F83D30206384F860
:102E54003E006FE7A06850B903EB4303B2FBF3F302
:102E64000133C3F30B037BB143F40043C9E71920D7
:102E74004343B2FBF3F30133C3F30B0323B143F432
:102E84004043BEE70423BCE70123BAE7112C000842
:102E9400132C0008152C0008172C0008192C000806
:102EA4001B2C00081D2C00081F2C00080F2C0008E8
:102EB400192B0008172B0008A08601007F841E0030
:102EC400FF083D0040420F002DE9F043044685B061
:102ED40098460D4691460C9FFFF73CFA94F83D3016
:102EE4000646202B04D00225284605B0BDE8F08311
:102EF40000901923012220465849FFF7BEFE0028FE
:102F0400F1D194F83C30012BEDD00123216884F8F1
:102F14003C300B68DB075EBF0B6843F001030B60BA
:102F24000B6823F400630B60212384F83D301023E5
:102F340084F83E3000232364A4F82A80638DC4F807
:102F440024902385464BE362E36A082B04D0012BCB
:102F540002D013F5803F04D10B6843F480730B60F7
:102F640002E0236B122BF7D03B4600224FF00111F5
:102F740020460096FFF781FE08B10125B4E72369D6
:102F84002268B3F5804F21D105F0FE051561334663
:102F94003A4620463349FFF7D7FD05460028ECD1D1
:102FA400236803905A6903929B690393039B238DBF
:102FB400F3B921680A6842F400720A60202284F896
:102FC4003C3084F83D2084F83E308DE7EB1103F06B
:102FD400060343F0F0031361204633463A46224980
:102FE400FFF7B2FD0028C8D12368EDB21D61CEE71A
:102FF400324639462046FFF772FE40B1236C042B5B
:1030040001BF2268136843F400731360B5E7636A71
:1030140020681A4612F8011B01616262628D013A4E
:1030240092B26285228DD0F814C0511E89B21CF070
:10303400040F21850AD049B15978023301616362D2
:10304400638D023A013B9BB2638522853246394641
:103054002046FFF7B4FD0028A9D0CFE702001000F6
:103064000000FFFF02000100080001002DE9F04309
:10307400044689B098460E469146109FFFF76AF9B8
:1030840094F83D300546202B04D00226304609B082
:10309400BDE8F08300901923012220469B49FFF7E5
:1030A400ECFD0028F1D194F83C30012BEDD0012344
:1030B400216884F83C300B68D8075EBF0B6843F086
:1030C40001030B600B6823F400630B60222384F874
:1030D4003D30102384F83E3000232364A4F82A8072
:1030E400638DC4F824902385894BE362E36A0A68FC
:1030F400082B42F480620A6004D0012B02D013F53D
:10310400803F04D10B6843F480730B6002E0236BAF
:10311400112BF7D03B4600224FF0011120460095B9
:10312400FFF7ABFD08B10126B0E722692368B2F5C9
:10313400804F27D146F00106F6B21E612B463A466F
:1031440020467449FFF700FD06460028EBD1228D86
:103154002368002A4AD103905A6903929A69039218
:10316400039A1A6842F400721A60DFF8B081238D62
:10317400002B6BD1202284F83C3084F83D2084F865
:103184003E3083E74FEAE61808F0060848F0F002FC
:103194001A6120462B463A465F49FFF7D5FC0028C2
:1031A400C1D12368F6B23A461E6120462B465949DE
:1031B400FFF7CAFC02460028B5D123680790596975
:1031C40020460791996907910799196841F480711C
:1031D40019603B464FF001110095FFF74EFD0028A2
:1031E400A1D1226848F0F1031361A7E7012A11D1A4
:1031F4001A6822F480621A6072B6236804905A69CD
:1032040004929A690492049A1A6842F400721A6049
:1032140062B6AAE7022A1A680ED142F400621A6062
:1032240072B6236805905A6905929A690592059ABF
:103234001A6822F48062EAE742F480621A60069017
:103244005A6906929B690693069B8EE7032B67D8FF
:10325400012B16D12A4639462046FFF7DFFC002809
:103264007FF461AF23681A69636A1A70636A013371
:103274006362238D013B2385638D013B9BB2638590
:1032840075E7022B4FF000023B464146204600956D
:1032940019D1FFF7F2FC00287FF445AF72B623681A
:1032A4001A6842F400721A601A69636A1A70636ACF
:1032B40001336362238D013B2385638D013B9BB204
:1032C400638562B6CEE7FFF7D8FC024600287FF498
:1032D4002AAF21680B6823F480630B6072B62368FD
:1032E40020461969636A1970636A4146013363624F
:1032F400238D0095013B2385638D013B9BB2638540
:103304003B46FFF7BAFC0028C9D00CE702001000C6
:103314000000FFFF0200010008000100040001009A
:103324002A4639462046FFF779FC00287FF4FBAE95
:1033340023681A69636A1A70626A531C6362238D74
:10334400013B2385638D013B9BB2638523685969E7
:1033540049077FF50CAF1B69537087E7F0B5044646
:1033640087B010B390F8293203F0FF021BB980F83C
:103374002822FDF749FF032325466E4684F82932A7
:1033840055F8100B00F0F0FF0FCD0FC62B68271D6A
:103394003360264697E80E0056F8100B00F0D4FF71
:1033A400054620B1022384F82932012549E001466B
:1033B400206800F0E3FF29464FF0010C6068CBB2AF
:1033C400984201F101011AD800221146D3B2984261
:1033D40002F1010220D8EC4635460FCDACE80F00CF
:1033E4002B68CCF8003097E80E00206800F0C8FF86
:1033F40001230546F0B1022284F82922D5E704EB23
:103404004312C2E90E5582F829C082F82830D386C7
:1034140082F82B501564D2E704EB431585F8283164
:103424000A335B01C5E94E1185F8291185F82B1182
:10343400E150CBE784F82400206884F8293201F0B5
:1034440032FA284607B0F0BD10B590F82832044689
:10345400012B0ED0012180F82812FDF798FF206877
:1034640001F01FFA206800F076FF002084F828029B
:1034740010BD0220FCE770B5054601F0070011F00D
:10348400800F4FEA401415BF04F1280104F594712C
:103494000124002405EB401619BF491986F8294078
:1034A400491986F829410A614A780870CB7002B13B
:1034B400C881022B04BF00230B7195F82832012B1D
:1034C40009D00123286885F8283200F075FF002010
:1034D40085F8280270BD0220FCE701F0070211F014
:1034E400800F4FEA421310B5044615BF03F12801BB
:1034F40003F594710123002300EB421015BF091951
:10350400091980F8293080F829310A7094F8283292
:10351400012B09D00123206884F8283201F0C2F875
:10352400002084F8280210BD0220FCE738B50025ED
:1035340001F0070100EB411484F82811C4E94F237A
:10354400C4F8445184F8295104F59471006801F0D9
:10355400BFF9284638BD01F0070138B500EB411426
:103564000025C4E90F2384F828100123214665644B
:1035740084F829302831006801F0AAF9284638BDBA
:1035840038B5436801F007059D42044628D80B0668
:103594001DD501226B0103F128010344014483F882
:1035A400292001230D708B7094F828229A4219D097
:1035B400206884F8283201F054F925B9206804F50C
:1035C4000C7101F072F9002084F8280238BD002241
:1035D4004B0103F594710344014483F82921E0E786
:1035E4000120F3E70220F1E711F0800F1BBF01F087
:1035F400070100EB411000EB4110283008BF00F533
:10360400947099B21AB90273C180002070470122E4
:1036140083600273F9E700002DE9F341054638B3EE
:103624000368DB0710D42B689F075ED42B68190747
:1036340000F195802B685A0700F1BF80E8690028E3
:1036440040F02C81002029E08F4C636803F00C03C8
:10365400042B07D0636803F00C03082B0AD16368BA
:10366400DE0307D523689C03DDD56B68002BDAD114
:10367400012013E06B68B3F5803F12D1236843F453
:1036840080332360FEF766FE064623689803CAD497
:10369400FEF760FE801B6428F7D9032002B0BDE862
:1036A400F0819BB9236823F480332360236823F4D7
:1036B40080232360FEF74EFE064623689903B2D5A5
:1036C400FEF748FE801B6428F7D9E6E7B3F5A02F80
:1036D400236803D143F480232360CFE723F48033AA
:1036E4002360236823F48023CBE7674C636813F0DB
:1036F4000C0F07D0636803F00C03082B10D1636828
:10370400DA030DD423689B0702D52B69012BAFD1B3
:1037140023686A6923F0F80343EAC203236085E758
:103724002A695A4B6AB101221A60FEF713FE064653
:1037340023689F07ECD4FEF70DFE801B0228F7D9FF
:10374400ABE71A60FEF706FE0646236898077FF586
:103754006DAFFEF7FFFD801B0228F6D99DE7AA692D
:10376400494E4B4BDAB101221A60FEF7F3FD0446D1
:10377400736A9B070DD54FF4FA52464B1B68B3FB93
:10378400F2F3019300BF019B5A1E0192002BF9D161
:1037940050E7FEF7DFFD001B0228E9D97DE71A6038
:1037A400FEF7D8FD0446736A9F077FF543AFFEF723
:1037B400D1FD001B0228F6D96FE7334CE369D8002A
:1037C40024D40127E36943F08053E361E36903F000
:1037D40080530093009B304E3368D90518D5EB68AD
:1037E400012B26D1236A43F001032362FEF7B2FDC5
:1037F40041F288380646236A9B073FD5002F3FF4E1
:103804001DAFE36923F08053E36117E70027E2E784
:10381400336843F480733360FEF79CFD804633685D
:10382400DA05DCD4FEF796FDA0EB08006428F6D98F
:1038340033E7ABB9236A41F2883823F001032362EA
:10384400236A23F004032362FEF784FD0646236AF9
:103854009807D3D5FEF77EFD801B4045F7D91CE7BA
:10386400052B236A03D143F004032362BAE723F050
:1038740001032362236A23F00403B6E7FEF76AFD1B
:10388400801B4045B7D908E70010024000004242BF
:103894008004424200000020007000402A4B5A6815
:1038A4001C4602F00C02082A3DD00023274E0228B1
:1038B40033602BD1FEF74EFD0746236899011FD4D0
:1038C4002B6AB3F5803F05D16268A96822F40032FF
:1038D4000A436260696A62680B4322F474121343F8
:1038E400636001233360FEF735FD054623689A01C2
:1038F4003FF5A8AEFEF72EFD401B0228F6D9CCE614
:10390400FEF728FDC01B0228D7D9C6E6FEF722FD24
:10391400054623689B017FF595AEFEF71BFD401B12
:103924000228F6D9B9E601283FF4B8AE5B682A6AE2
:1039340003F4803191427FF49BAE6A6A03F47013FE
:1039440093423FF47FAE93E600100240600042428F
:1039540030B51A4B87B002AC03F110052246186843
:103964005968083303C2AB421446F7D140F201232D
:103974001349ADF804304B6803F00C02042A19D043
:10398400082A19D1C3F3834206A80244DB0312F8C0
:10399400102C0CD54B680B48C3F34043504306AA84
:1039A400134413F8143CB0FBF3F007B030BD0648E1
:1039B4005043FAE70348F8E70448F6E7A65A000834
:1039C400001002400024F40000093D0000127A00B7
:1039D4002DE9F0410D46044610B90120BDE8F081FF
:1039E400444A136803F007038B4228D321688E07E7
:1039F40030D4CA0743D43F4A136803F00703AB42E9
:103A040065D822683C4D12F0040F6CD1130706D51B
:103A14006B68226923F4605343EAC2036B60FFF7C7
:103A240097FF6B68354AC3F30313D35CD840344B18
:103A34001860344B1868FEF74BFC0020CEE713687F
:103A440023F007030B431360136803F007038B424F
:103A5400C3D1CBE7284B11F0040F1EBF5A6842F4C0
:103A6400E0625A60080742BF5A6842F460525A60E2
:103A74005A68A06822F0F00202435A60B9E762680B
:103A84001D4E012A33681AD113F4003FA5D0736880
:103A940041F2883823F0030313437360FEF75AFCA2
:103AA40007467368626803F00C03B3EB820FA2D07D
:103AB400FEF750FCC01B4045F3D903208EE7022AD1
:103AC40002D113F0007FE1E713F0020FDEE7136881
:103AD40023F007032B431360136803F00703AB427F
:103AE4007FF47BAF8DE76B68E16823F4E0630B43FD
:103AF4006B608BE70020024000100240CE560008A5
:103B040000000020A4010020044B054A5B68C3F3B5
:103B14000223D35C034A1068D84070470010024067
:103B2400DE56000800000020044B054A5B68C3F31E
:103B3400C223D35C034A1068D84070470010024087
:103B4400DE560008000000200123406A80F83D3062
:103B5400D0F89C301847012310B5446A626A84F88F
:103B64003D30824207D12377D4F8943020469847D9
:103B74000023237710BDA36A834201D10223F2E715
:103B8400E36A834201D10423EDE7236B8342EBD143
:103B94000823E8E7012310B5446A626A84F83D30DB
:103BA400824207D12377D4F89830204698470023DF
:103BB400237710BDA36A834201D10223F2E7E36AAB
:103BC400834201D10423EDE7236B8342EBD1082325
:103BD400E8E70000036A70B523F001030362036A97
:103BE400446882690D6822F073022A438D6823F0C9
:103BF40002032B430E4DA84202D00E4EB04210D108
:103C0400CE6823F008033343A84223F0040302D010
:103C1400084DA84205D1D1E9055624F44074354332
:103C24002C43446082614A684263036270BD00BFF2
:103C3400002C014000340140036A70B523F4807302
:103C44000362036A4468C2690D6822F073022A435E
:103C54008D6823F4007343EA0523114DA84203D071
:103C640005F50065A84214D1CD6823F4006343EA46
:103C740005230B4D23F48063A84203D005F50065AA
:103C8400A84206D1D1E9055624F44054354344EA08
:103C940005144460C2614A68C263036270BD00BF18
:103CA400002C0140036A30B523F480530362036A95
:103CB4004468C2690D6822F4E64242EA05228D682E
:103CC40023F4005343EA0533084DA84203D005F515
:103CD4000065A84204D14D6924F4804444EA851463
:103CE4004460C2614A680264036230BD002C014032
:103CF4007047704770477047704770477047704708
:103D04007047704770470000244A0368904212D0FD
:103D140002F5006290420ED0B0F1804F0BD0A2F5B4
:103D24009832904207D002F58062904203D002F5A7
:103D3400806290421DD14A6823F070031343174AEE
:103D4400904212D002F5006290420ED0B0F1804F42
:103D54000BD0A2F59832904207D002F580629042CF
:103D640003D002F58062904203D1CA6823F4407301
:103D740013434A6923F08003134303608B68C362CF
:103D84000B688362054B984203D003F500639842A5
:103D940001D10B690363012343617047002C014087
:103DA400036A70B523F010030362036A44688269EE
:103DB4000D6822F4E64242EA05228D6823F02003CE
:103DC40043EA0513104DA84203D005F50065A84247
:103DD40014D1CD6823F0800343EA05130A4D23F080
:103DE4004003A84203D005F50065A84206D1D1E9F5
:103DF400055624F44064354344EA850444608261F2
:103E04004A688263036270BD002C014038B590F8A3
:103E14003C300446012B4FF0020010D00123082A45
:103E240084F83C3084F83D003FD009D8DAB1042A44
:103E34002AD00123002084F83D3084F83C0038BDAA
:103E44000C2AF6D12068FFF72DFF23680969DA6987
:103E540042F40062DA61DA6922F48062DA61DA69D2
:103E640042EA012230E02068FFF7B4FE23680969C2
:103E74009A6942F008029A619A6922F004029A61EE
:103E84009A690A439A61D4E72068FFF789FF236897
:103E940009699A6942F400629A619A6922F480621B
:103EA4009A619A6942EA0122ECE72068FFF7C4FEAE
:103EB40023680969DA6942F00802DA61DA6922F0F2
:103EC4000402DA61DA690A43DA61B2E710B501245F
:103ED400036A01F01F018C4023EA04030362036AAE
:103EE4008A401A43026210BD70B50D46114690F81F
:103EF4003D200446022AD0B206D094F83D20012A7F
:103F040006D111B90BB1012070BD022284F83D2005
:103F1400082D226856D01FD8002D30D0042D40D053
:103F2400012229462068FFF7D1FF23682E4A9342D5
:103F340003D002F50062934203D15A6C42F400426A
:103F44005A649A68002002F00702062A1EBF1A6803
:103F540042F001021A60D7E70C2DE1D1206B234E09
:103F640040328662224EC662224E0663FEF7EAFAA9
:103F74000028C8D12268D36843F480530FE0606AF4
:103F84001A4E343286621A4EC6621A4E0663FEF721
:103F9400D9FA0028B7D12268D36843F40073D360F8
:103FA400BEE7A06A114E38328662114EC662114EC7
:103FB4000663FEF7C7FA0028A5D12268D36843F444
:103FC4008063ECE7E06A094E3C328662084EC662C2
:103FD400084E0663FEF7B6FA002894D12268D36827
:103FE40043F40063DBE700BF002C01405B3B0008A7
:103FF400993B00084D3B0008FFF776BF124B8367DF
:10400400124BC367124BC0F88030124BC0F8843097
:10401400114BC0F88830114BC0F88C30104BC0F8ED
:104024009030104BC0F894300F4BC0F898300F4BC1
:10403400C0F89C300E4BC0F8A0300E4BC0F8A43032
:104044000D4BC0F8A8307047F73C0008F93C000855
:10405400053D0008073D0008FD3C0008FF3C000842
:10406400FB3C0008013D0008033D0008093D000831
:1040740005410008074100080941000810B504463D
:10408400D8B190F83D3003F0FF0253B980F83C20DA
:10409400FFF7B4FF836D0BB9094B83652046A36D0D
:1040A40098470223206884F83D30211DFFF72CFE39
:1040B4000123002084F83D3010BD0120FCE700BF3F
:1040C400F53C000830B590F83C200346012A4FF037
:1040D400020014D01C6883F83D006068A2680D6873
:1040E400496820F0700022F0800228430A4360608F
:1040F400A2600020012283F83C0083F83D2030BDFB
:10410400704770477047704738B505460368C16803
:104114001A69192422F440520A431A618268006918
:10412400D9680243686921F4B05121F00C010243BB
:104134000A43DA605A69A96922F440720A435A614F
:104144000D4A934214D1FFF7EFFC44436B68642299
:104154009B00B4FBF3F4B4FBF2F102FB11431B012B
:104164003233B3FBF2F3286803EB0113836038BDE9
:10417400FFF7CAFCE9E700BF00380140F8B5044680
:104184000E4617461D462268136836EA030301D11A
:10419400002014E06B1CF7D095B923680320DA687B
:1041A40022F4D072DA605A6922F001025A612023A3
:1041B40084F8393084F83A30002384F83830F8BD74
:1041C400FEF7C8F8C01B8542DDD2E6E770477047AA
:1041D4007047704770477047704770472DE9F0414A
:1041E4001F4690F839300446202B0D4690464ED198
:1041F40000294AD0002A48D090F83830012B46D004
:10420400012380F838300023C363212380F8393038
:10421400FEF7A0F80646A4F82480A4F82680E38CD0
:104224009BB263B93B46324640212046FFF7A6FFC6
:10423400A0B9202384F8380084F839300FE0E38CE7
:104244003246013B9BB2E384A3688021B3F5805FCF
:1042540020463B4610D1FFF791FF10B10320BDE883
:10426400F0812B882268C3F30803536023690BB9D8
:104274000235D4E70135D2E7FFF780FF0028EDD1FE
:10428400236815F8012B5A60C9E70120E7E70220EB
:10429400E5E70000084B0364084B4364084B836460
:1042A400084BC364084B0365084B4365084B83659F
:1042B400084BC365704700BFD5410008D3410008CF
:1042C400D9410008D7410008DB410008DD4100085E
:1042D400DF410008D141000810B5044678B390F8D6
:1042E400393003F0FF0253B980F83820FFF7D2FFCA
:1042F400436E0BB9134B43662046636E98472423E1
:10430400226884F83930D368204623F40053D360FC
:10431400FFF7FAFE236800201A6922F490421A611A
:104324005A6922F02A025A61DA6842F40052DA60C9
:104334002023E06384F8393084F83A3010BD01203A
:10434400FCE700BF0B41000884B001A880E80E0020
:1043540004B000207047B0F840309BB243F43F43B0
:10436400A0F8403000207047B0F8403023F47C536C
:104374005B045B0CA0F840300020704700207047BD
:1043840084B010B5044603A880E80E000020012381
:10439400A4F84030A4F84000A4F84400A4F8500065
:1043A400B4F840309BB243F43F43A4F84030BDE836
:1043B400104004B070470000F0B50D78034630F8A3
:1043C4002520C87822F4EC4222F070021204120C68
:1043D40003284FD8DFE800F0024B494742F400724B
:1043E40048F28004224323F825200E78AA4D33F89E
:1043F400262092B22A403243224323F826200C7B03
:104404000A78002C40F08980CC884E7864086400D7
:1044140003EB021286B3B3F85060B6B23244A2F88A
:1044240000440C7833F82420520609D533F82420AC
:1044340092B22A4042F4004242F0C00223F82420FF
:10444400CA780C78012A33F82420944992B202EAFB
:10445400010218BF82F0200242F4004242F08002BE
:1044640023F82420F0BD42F4C0620020B8E742F4EF
:104474008062FAE70120B3E7B3F850500E69ADB299
:104484002A44A2F808440A78B3F8504003EB021215
:10449400A4B202F20C427EBB155B25F4F8452D0450
:1044A4002D0C1553155B6FEA45456FEA5545ADB2C2
:1044B40015530C7833F8242055040DD533F82420F3
:1044C40022F4E04222F070021204120C42F4404240
:1044D40042F0800223F82420097833F8212022F4C2
:1044E400804222F070021204120C82F4405242F410
:1044F400004242F0800280E03E2E05D87508F7079E
:1045040048BF0135AD02D2E77709654DF60608BF0D
:1045140007F1FF3745EA8725C9E733F82240A4B2FB
:104524002C4044F4014444F0800423F822400A78E7
:104534000C89B3F8506003EB02126408B6B202F5BA
:104544008062640094530A784C89B3F8506003EB9A
:104554000212640802F581626400B6B294534A7888
:104564000C78002A4CD133F82420520409D533F8AE
:10457400242092B22A4042F4404242F0800223F8BE
:1045840024200C7833F8242057060DD533F8242042
:1045940022F4E04222F070021204120C42F40042AF
:1045A40042F0C00223F824200C7833F8242022F4AB
:1045B400E04222F070021204120C42F4004242F073
:1045C400C00223F8242048F280040D7833F8252013
:1045D40022F4804222F070021204120C82F440523F
:1045E400224323F82520097833F8212022F4E042DD
:1045F40022F040021204120C224323F8212031E756
:1046040033F82420560409D533F8242092B22A40E2
:1046140042F4404242F0800223F824200C7833F81C
:10462400242052060DD533F8242022F4E04222F04F
:1046340070021204120C42F4004242F0C00223F849
:1046440024200C78154D33F8242022F4E04222F083
:1046540070021204120C42F4404242F0800223F829
:104664002420CA780C78012A33F8242092B202EA72
:10467400050218BF82F0200242F4004242F0800298
:1046840023F82420097833F8212022F4804222F0F0
:1046940070021204120C2AE78F8FFFFFBF8FFFFFF7
:1046A4000080FFFF10B50C7B4B780A78002C3DD1BD
:1046B40013B330F822305C060DD530F8223023F4E1
:1046C400E04323F070031B041B0C43F4004343F04A
:1046D400C00320F822300A7830F8223023F4E04373
:1046E40023F040031B041B0C43F4004343F08003FA
:1046F40020F82230002010BD30F822305B040DD5A4
:1047040030F8223023F4E04323F070031B041B0C25
:1047140043F4404343F0800320F822300A7830F811
:10472400223023F4804323F07003DBE7002B4ED1C7
:1047340030F822305C040DD530F8223023F4E04305
:1047440023F070031B041B0C43F4404343F0800329
:1047540020F822300A7830F822305B060DD530F884
:10476400223023F4E04323F070031B041B0C43F4B6
:10477400004343F0C00320F822300A7830F8223096
:1047840023F4E04323F070031B041B0C43F40043A5
:1047940043F0C00320F8223048F280020C7830F84D
:1047A400243023F4804323F070031B041B0C1343B5
:1047B40020F82430097830F8213023F4E04323F042
:1047C40040031B041B0C134320F8213092E730F8FC
:1047D40022305C040DD530F8223023F4E04323F07A
:1047E40070031B041B0C43F4404343F0800320F884
:1047F40022300A7830F822305B060DD530F82230AA
:1048040023F4E04323F070031B041B0C43F4004324
:1048140043F0C00320F822300A7830F8223023F421
:10482400E04323F070031B041B0C43F4404343F0A8
:10483400800320F8223048F280020C7830F82430CB
:1048440023F4E04323F040031B041B0C134320F820
:104854002430097830F8213023F4804323F07003A6
:10486400AFE74B780A788BB130F8223023F4E04379
:1048740023F040031B041B0C83F0100343F4004398
:1048840043F0800320F822300020704730F82230B3
:1048940023F4804323F070031B041B0C83F4805324
:1048A400ECE700207047002070470020704700EBC1
:1048B4004202013302F580625B0802EB83039A42F1
:1048C40000D1704731F8020B22F8040BF7E700001F
:1048D40070B50D46497804460129AB692A69287BDD
:1048E40064D193428ABF991A00211346A9619EB2EA
:1048F400696900BB3346EA882046FFF7D8FFB4F85D
:1049040050302A7899B204F2044312010B44D6526F
:104914002A7834F8223023F4E04323F040031B04C4
:104924001B0C83F0300343F4004343F08003002066
:1049340024F8223070BD2B7834F823201B0112F0A8
:10494400400FB4F8502090B215BF04F20C4204F2A8
:1049540004421218121816BFD652D6526A89334628
:1049640008BF2A892046FFF7A2FF6B782A7873B91B
:1049740034F8223023F4E04323F070031B041B0CAF
:1049840043F4004343F0C00324F82230C0E7012B72
:10499400BED134F8223023F4E04323F070031B0427
:1049A4001B0C43F4404343F08003EDE7934294BF70
:1049B40000269E1AAE6188BF13462A78B0B9B4F8AF
:1049C400501004F20C4089B201441201002B42D170
:1049D4008B5A23F4F8431B041B0C8B528B5A6FEA3B
:1049E40043436FEA53439BB28B523DE0A1B9B4F801
:1049F400501004F2044089B201441201D3B9885A18
:104A040020F4F8400004000C8852885A6FEA4040B1
:104A14006FEA504080B2885269782A780029CED053
:104A2400012921D1B4F85010120188B204F20C41CA
:104A34000144D8E73E2B05D85808DE0748BF0130AB
:104A44008002E7E75E09D806124808BF06F1FF3680
:104A540040EA8620DEE73E2B12D85808DE0748BF1E
:104A64000130800280B288522A7834F8223023F44C
:104A7400804323F070031B041B0C83F4405352E760
:104A84005809DB06034B08BF00F1FF3043EA8023DB
:104A9400A9E700BF0080FFFF024B0A4601461868E1
:104AA40000F04CB8A801002070B500260C4D0D4C48
:104AB400641BA410A64209D100F0B0FC00260A4DE4
:104AC4000A4C641BA410A64205D170BD55F8043BE2
:104AD40098470136EEE755F8043B98470136F2E76C
:104AE400EC5A0008EC5A0008EC5A0008F05A000886
:104AF400024B0146186800F07BB800BFA8010020F3
:104B0400024B0146186800F027B800BFA801002036
:104B14000A44914200F1FF3300D1704710B511F8F7
:104B2400014B914203F8014FF9D110BD03460244F1
:104B3400934200D1704703F8011BF9E738B502FB33
:104B440001F5294600F054F8044618B12A4600211C
:104B5400FFF7ECFF204638BD38B50546002943D0A1
:104B640051F8043C0C1F002BB8BFE41800F0F2F815
:104B74001E4A1368104633B9636014602846BDE8C2
:104B8400384000F0EDB8A3420AD921686218934274
:104B940001BF1A685B685218226063600460EDE725
:104BA4001A465B680BB1A342FAD911685018A042A7
:104BB4000BD120680144501883421160DED118687B
:104BC4005B68014411605360D8E702D90C232B6061
:104BD400D4E7206821188B4201BF19685B68091863
:104BE400216063605460C9E738BD00BF84050020BC
:104BF400F8B5CD1C25F0030508350C2D38BF0C2560
:104C0400002D064601DBA94203D90C2333600020A2
:104C1400F8BD00F09FF821490A6814469CB9204F5A
:104C24003B6823B92146304600F044F838602946F1
:104C3400304600F03FF8431C23D10C233046336048
:104C440000F08EF8E3E723685B1B17D40B2B03D922
:104C540023601C44256004E06368A2420CBF0B601F
:104C64005360304600F07CF804F10B00231D20F063
:104C74000700C21ACCD01B1AA350C9E722466468A5
:104C8400CCE7C41C24F00304A042E3D0211A30462C
:104C940000F010F80130DDD1CFE700BF840500201B
:104CA40088050020024B0A460146186800F05EB8E9
:104CB400A801002038B50023054D044608462B60A2
:104CC40000F09EFB431C02D12B6803B1236038BD66
:104CD400240800200EB46FF0004100B59CB01DAB59
:104CE40002900690079104910848094953F8042B4F
:104CF4000591006802A9019300F0BAF80022029B12
:104D04001A701CB05DF804EB03B07047A8010020D2
:104D14000802FFFF00B59BB0009104916FF00041C1
:104D24000591029105490391694600F0A1F800221A
:104D3400009B1A701BB05DF804FB00BF0802FFFF64
:104D440013460A46014602480068FFF7E3BF00BF66
:104D5400A8010020014800F021BB00BF2C0800205E
:104D6400014800F01CBB00BF2C080020F8B5074622
:104D740014460E4621B91146BDE8F840FFF738BF86
:104D840022B9FFF7E9FE25462846F8BD00F030FBBE
:104D9400A0420FD221463846FFF72AFF05460028D5
:104DA400F2D031462246FFF7B3FE31463846FFF7CC
:104DB400D3FEE9E73546E7E72DE9F0478E688246FA
:104DC4009E420C4690461F4638D88A8912F4906F4A
:104DD40032D0256809690133A5EB010965694B44A3
:104DE40005EB450505EBD5756D109D4238BF1D4695
:104DF400530531D52946FFF7FBFE064650B90C236F
:104E04004FF0FF30CAF80030A38943F04003A38178
:104E1400BDE8F0874A462169FFF77AFEA38923F4A7
:104E2400906343F08003A38126614E4426603E468E
:104E34006561A5EB0905A560BE4200D93E46324630
:104E44004146206800F0BAFAA36822689B1B3244EA
:104E54000020A3602260DBE72A46FFF787FF0646AF
:104E64000028E1D150462169FFF776FEC7E700002C
:104E74002DE9F04F98468B8907461B060D461446CC
:104E84009DB00ED50B6963B94021FFF7B1FE2860D0
:104E9400286120B90C233B604FF0FF30D1E0402360
:104EA4006B610023099320238DF8293030234FF0C0
:104EB4000109CDF80C80DFF8A4818DF82A3023464F
:104EC4009A4613F8012B0AB1252AF9D1BAEB040B3F
:104ED4000BD05B46224629463846FFF76DFF01306A
:104EE40000F0AA80099A5A4409929AF80030002BDB
:104EF40000F0A28000234FF0FF32CDE905230AF130
:104F0400010A049307938DF853301A9354460522EB
:104F140014F8011B514800F043FA049AD8B9D0069A
:104F240044BF20238DF85330110744BF2B238DF841
:104F340053309AF800302A2B15D0544600204FF0F5
:104F44000A0C079A214611F8013B303B092B4ED934
:104F5400B0B1079214E0A0EB080309FA03F313437A
:104F6400A2460493D2E7039B191D1B680391002BEF
:104F7400BBBF5B4242F0020207930793B8BF04929F
:104F840023782E2B0CD163782A2B35D1039B023442
:104F94001A1D1B680392002BB8BF4FF0FF33059313
:104FA400DFF8C8A003225046217800F0F9F940B197
:104FB4004023A0EB0A0003FA00F0049B01340343EE
:104FC400049314F8011B062225488DF8281000F0DC
:104FD400E7F9002838D0234B1BBB039B073323F08E
:104FE400070308330393099B3344099367E70C468B
:104FF40001200CFB0232A5E700234FF00A0C1946EE
:1050040001340593204610F8012B303A092A03D9BC
:10501400002BC5D00591C3E7044601230CFB0121F5
:10502400F0E703AB00932A4638460F4B04A9AFF3CD
:105034000080421C0646D6D1AB895B063FF52CAFF7
:1050440009981DB0BDE8F08F03AB00932A4638469B
:10505400054B04A900F07CF8EBE700BFB75A000841
:10506400C15A000800000000BD4D0008BD5A0008E8
:105074002DE9F047164699468A680B69074693421C
:10508400B8BF1346336091F843200C46DDF8208006
:105094000AB1013333602368990642BF336802338F
:1050A4003360256815F0060506D104F1190AE36892
:1050B40032689B1AAB4228DC94F84320131E226802
:1050C40018BF012392062DD44946384604F1430201
:1050D400C047013020D02368E56803F00603042BA1
:1050E40018BF002532684FF00006A36808BFAD1A48
:1050F400226908BF25EAE5759342C4BF9B1AED18DF
:105104001A34B5421AD1002008E001235246494618
:105114003846C047013003D14FF0FF30BDE8F08777
:105124000135C4E73020E11881F843005A1C94F893
:1051340045102244023382F84310C5E70123224676
:1051440049463846C0470130E6D00136D9E7000069
:105154002DE9FF470C46277E9146782F80469A46D4
:105164000C9904F1430207D8622F0AD8002F00F0EB
:10517400D980582F00F0A48004F1420684F84270CC
:105184003AE0A7F16303152BF6D801A050F823F0F9
:10519400ED510008015200087D5100087D510008BE
:1051A4007D5100087D510008015200087D5100081E
:1051B4007D5100087D5100087D5100080F530008FF
:1051C40031520008F15200087D5100087D51000859
:1051D400315300087D510008315200087D51000808
:1051E4007D510008F95200080B6804F142061A1DAB
:1051F4001B680A6084F842300123A4E0256808682B
:105204002E0600F104030AD505680B60002D03DAAD
:105214002D236D4284F843300A235E4819E015F0CB
:10522400400F05680B6018BF2DB2EFE70B682568C7
:10523400181D0860280601D51D6802E06906FBD523
:105244001D886F2F0CBF08230A235248002184F8BD
:1052540043106668002EA8BF2168A660A4BF21F091
:10526400040121600DB9002E4DD01646B5FBF3F1B3
:1052740003FB1157C75D06F8017D2F46BB420D465F
:10528400F4D9082B0BD12368DF0708D5236961689B
:105294009942DEBF302306F8013C06F1FF36921B2B
:1052A40022614B4621464046CDF800A003AAFFF7F1
:1052B400DFFE01304CD14FF0FF3004B0BDE8F08781
:1052C400344884F845700E68236856F8045B1F065A
:1052D4000E6014D5D90744BF43F0200323601DB9E1
:1052E400236823F0200323601023AFE7236843F0EF
:1052F400200323607823284884F84530E3E75E06DA
:1053040048BFADB2E6E71646BBE70B6826681D1D2D
:1053140060690D6035061B6801D5186002E07106EE
:10532400FBD51880002316462361BAE70B681A1DC3
:105334000A601E6800213046626800F031F808B146
:10534400801B606063682361002384F84330A8E70E
:105354003246494640462369D0470130ABD02368E2
:105364009B0713D4E068039B9842B8BF1846A4E790
:105374000123324649464046D04701309BD001358F
:10538400E36803995B1AAB42F2DCEBE7002504F116
:105394001906F5E7C85A0008D95A0008704770473B
:1053A400034610B5C9B202449342184601D1002005
:1053B40003E0047801338C42F6D110BD884210B565
:1053C40001EB020402D98442234607D8431EA142BA
:1053D40008D011F8012B03F8012FF8E70146024425
:1053E4008A4200D110BD13F8014D02F8014DF7E7D0
:1053F40051F8043C181F002BBCBF0B58C018704751
:10540400044A05491368002B08BF0B461844106072
:10541400184670478C05002038080020F8B500BFF6
:10542400F8BC08BC9E467047F8B500BFF8BC08BC81
:045434009E467047D9
:105438002020205F5F5F20202020202020202020A7
:1054480020202020202020202020205F2020202015
:105458002020202020202020202020202020202044
:105468002020205F202020202020202020202020F5
:10547800202020202020202020202020205F200005
:1054880020202F205F5F5C205F5F5F205F205F5FD1
:10549800205F205F5F2020205F5F7C207C205F5F93
:1054A8005F2020202F5C202F5C5F5F5F205F202023
:1054B800205F7C207C5F5F2020205F5F5F202020B2
:1054C8005F5F205F205F205F5F205F5F7C207C0044
:1054D800202F5F5F5C2F2F2F205F205C20275F5FCE
:1054E8007C20275F205C202F205F60207C2F205F9E
:1054F800205C202F202F2F5F2F205F205C207C2016
:105508007C207C20275F205C202F205F205C202FC0
:10551800205F60207C20275F5F2F205F60207C0059
:105528002F205C2F20205C20205F5F2F207C2020F4
:105538007C207C207C207C20285F7C207C20285FAD
:1055480029202F205F5F205C20205F5F2F207C5F59
:105558007C207C207C5F29207C20285F29207C20DF
:10556800285F7C207C207C207C20285F7C207C009D
:105578005C5F5F5F5F5F2F5C5F5F5F7C5F7C2020AD
:105588007C5F7C207C5F7C5C5F5F2C5F7C5C5F5F0A
:105598005F2F5C2F20205C2F5C5F5F5F7C5C5F5F10
:1055A8002C207C5F2E5F5F2F205C5F5F5F2F205C6D
:1055B8005F5F2C5F7C5F7C20205C5F5F2C5F7C00E2
:1055C80020202020202020202020202020202020D3
:1055D80020202020202020202020202020202020C3
:1055E800202020202020202020202020207C5F5FD9
:1055F8005F2F202020202020202020202020202055
:1056080020202020202020202020202020202000B2
:105618004265726E646F4B6579626F617264204691
:1056280069726D77617265207625692E25692E2548
:10563800692E005B424B465D20496E697469616C56
:105648006973696E67205553422E2E2E005B424BBC
:10565800465D20496E697469616C6973696E67207B
:105668006C69627261726965732E2E2E005B424B03
:10567800465D2053797374656D20696E6974206383
:105688006F6D706C6574652E205374617274696EE9
:1056980067206669726D776172652E0A005B424BFE
:1056A800465D2052656164206877626974733A20A8
:1056B8005B25645D5B25645D5B25645D5B25645DDE
:1056C8005B25645D0A000000000000000000010284
:1056D80003040607080900000000010203045B42F6
:1056E8004B465D5B25735D205468726F776E206151
:1056F800742025733A256C643A202D3E2025730AC0
:1057080000464154414C204552524F520057415295
:105718004E494E47004572726F722048616E646C44
:10572800657220696E766F6B65642E007372632FE5
:105738006572726F722E63001B5B324A1B5B4800F6
:105748005243434F53432048414C20455252007323
:1057580072632F7379735F636C6F636B2E63005290
:105768004343434C4B2048414C20455252005B4236
:105778004B465D2053797374656D2048572D496EEB
:10578800697420636F6D706C6574652E0A00493208
:10579800433120494E4954204641494C00737263B5
:1057A8002F7379735F6932632E6300554152543108
:1057B80020494E4954204641494C007372632F7367
:1057C80079735F75736172742E630054494D204478
:1057D8004D4120494E495420455252007372632F5F
:1057E8007379735F74696D65722E630054494D2037
:1057F800494E4954204552520054494D204D435377
:1058080020494E4954204552520054494D204F4397
:105818004320494E495420455252004E50333220BD
:10582800494E495420455252007372632F7379735D
:105838005F7773323831322E6300555342442D68F6
:10584800616E646C6520616C6C6F636174696F6E06
:10585800206661696C65642E007372632F737973B7
:105868005F7573622E63005B5359532D5553425D28
:1058780020416C6C6F636174656420555342442DFC
:1058880068616E646C65206D656D6F72792E005568
:105898005342442D696E6974206661696C65642E93
:1058A800005B5359532D5553425D20496E69746905
:1058B800616C6973656420555342442068616E6465
:1058C8006C652E005553424420636C6173732072DB
:1058D8006567697374726174696F6E206661696C5B
:1058E80065642E005B5359532D5553425D20526514
:1058F800676973746572656420496E66696E694B81
:10590800657973205553424420636C6173732E008C
:105918005553424420696E746572666163652072EE
:105928006567697374726174696F6E206661696C0A
:1059380065642E005B5359532D5553425D205265C3
:10594800676973746572656420496E66696E694B30
:10595800657973205553424420696E746572666197
:1059680063652E005553424420706F72742D737412
:10597800617274206661696C65642E005B535953CB
:105988002D5553425D20496E697469616C69736570
:105998006420555342442E20537461727465642008
:1059A80055534220636F6E6E656374696F6E2E0087
:1059B8004265726E646F7266657220456C656374C9
:1059C800726F6E696373004265726E646F4B6579BE
:1059D800626F61726400534E2D30303030303100C8
:1059E800555342205472616E736D697373696F6E9B
:1059F80020746F2045502569207B0A0025303258D5
:105A080020007D0A00547261636520312D300054F6
:105A18007261636520312D310054726163652031F4
:105A28002D32000002010254726163652030005477
:105A380072616365203100547261636520320049E8
:105A48006E697469616C6973656420496E66696E14
:105A5800692D4B6579732E0A00496E766F6B656404
:105A6800205449434B2E0A004B65797374726F6B4F
:105A7800654576656E7420494E564F4B45443A202D
:105A88004B3A20256920543A2025692E0A00000047
:105A9800010000FF800003005B494B5D200002030A
:105AA8000405060708090A0B0C0D0E0F1010002339
:105AB8002D302B2000686C4C006566674546470012
:105AC800303132333435363738394142434445462C
