:020000040800F2
:10000000FFFF0020A50500081103000813030008E6
:10001000150300081703000819030008000000007A
:100020000000000000000000000000001B030008AA
:100030001D030008000000001F0300082103000842
:10004000ED050008ED050008ED050008ED050008C8
:10005000ED050008ED050008ED050008ED050008B8
:10006000ED050008ED050008ED050008ED050008A8
:10007000ED050008ED050008ED050008ED05000898
:10008000ED050008ED050008ED050008ED05000888
:10009000ED050008ED050008ED050008ED05000878
:1000A000ED050008ED050008ED050008ED05000868
:1000B000ED050008ED050008ED050008ED05000858
:1000C000ED050008ED050008ED050008ED05000848
:1000D000ED050008ED050008ED050008ED05000838
:1000E000ED050008ED050008ED050008ED05000828
:1000F000ED050008ED050008ED050008ED05000818
:10010000ED050008ED050008ED050008ED05000807
:10011000ED050008ED050008ED050008ED050008F7
:10012000ED050008ED050008ED050008ED050008E7
:1001300000000000000000000000000000000000BF
:1001400000000000000000000000000000000000AF
:10015000000000000000000000000000000000009F
:10016000000000000000000000000000000000008F
:10017000000000000000000000000000000000007F
:10018000000000000000000000000000000000006F
:10019000000000000000000000000000000000005F
:1001A000000000000000000000000000000000004F
:1001B000000000000000000000000000000000003F
:1001C000000000000000000000000000000000002F
:1001D000000000000000000000000000000000001F
:0401E0005FF8E0F1F3
:1001E400044B05481B1A062B02D9044B03B11847CC
:1001F400704700BF73000020700000200000000062
:1002040005490648091A891001EBD171491002D039
:10021400034B03B1184770477000002070000020A2
:100224000000000010B5064C237843B9FFF7D8FF4F
:10023400044B13B10448AFF300800123237010BDB5
:100244007000002000000000C010000808B5084B32
:100254001BB108480849AFF300800848036813B984
:10026400BDE80840CCE7064B002BF9D09847F7E7E8
:1002740000000000C010000874000020700000207E
:100284000000000008B500F0D5F900F05BF800F0BC
:1002940091F800F021F900F053F9642000F0EEF930
:1002A40001210A46054800F027FB642000F0E6F926
:1002B40002480121002200F01FFBEEE7000C014080
:1002C4000F4B1A6842F001021A6059680D4A0A403D
:1002D4005A601A6822F0847222F480321A601A6812
:1002E40022F480221A605A6822F4FE025A604FF403
:1002F4001F029A60044B4FF000629A60704700BF7F
:10030400001002400000FFF800ED00E07047FEE737
:10031400FEE7FEE7FEE770477047704700F09CB9C0
:10032400022808B508D1054B1A78012A03D10448DC
:10033400102100F0E1FAFEE708BD00BF8C000020A8
:100344000008014010B54FF4803390B001220793A8
:100354004FF4003102240E9306A84FF4E0130692E2
:1003640008910A920D940F9300F070FB28B1204677
:1003740013210D4A0D4BFFF7D3FF0F2302240193E2
:100384004FF48062002301A821460294039304924F
:10039400059300F03FFD28B120461C21024A044B7E
:1003A400FFF7BEFF10B010BD0211000812110008C3
:1003B400211100082DE9F043102789B0414C3A4639
:1003C4000DEB0700002100F0FDFDA369DFF80491A7
:1003D40043F00403A361A369012603F004034FF06F
:1003E4000208009348460DEB07010025009B049783
:1003F4000596CDF81C8000F0ABF94FF480734846A5
:100404000DEB0701049305950695CDF81C8000F0CB
:100414009FF93A4629460DEB070000F0D3FDA36986
:1004240009F5806943F00803A361A369484603F012
:1004340008030193019B0DEB070127230493059601
:10044400CDF81C8000F084F94FF4407348460DEB5E
:100454000701049305950695CDF81C8000F078F902
:100464003A4629460DEB070000F0ACFDA3690DEBFD
:1004740007013B43A361A36913483B400293029BDA
:1004840041F670730796049300F062F929463A46E0
:100494000DEB070000F096FDA3690C4843F0200320
:1004A400A361A3690DEB070103F020030393039BEE
:1004B40004230493079600F04BF9054B1E7009B012
:1004C400BDE8F08300100240001001400014014018
:1004D4008C0000200008014038B5174C012120464B
:1004E4000A4600F009FA154D20460221012200F0C7
:1004F40003FA20460421012200F0FEF928461021C7
:10050400012200F0F9F9C82000F0B8F820460121D2
:10051400002200F0F1F920460221002200F0ECF95B
:1005240020460421002200F0E7F92846BDE83840BF
:100534001021002200F0E0B9000C01400008014045
:1005440010B5542000F036FD0F4ADFF850E010607B
:100554000E4A012480E804404FF480410022826066
:10056400C260846101614261C261026200F0CAF941
:1005740038B1BDE8104002201721054A054BFFF7AA
:10058400CFBE054B1C7010BD9C00002000540040E1
:10059400301100083E1100088D000020A0860100E3
:1005A400002103E00B4B5B58435004310A480B4BCA
:1005B40042189A42F6D30A4A02E0002342F8043B66
:1005C400084B9A42F9D3FFF77BFE00F0CDFCFFF70E
:1005D40059FE7047581100080000002070000020E8
:1005E40070000020A8000020FEE7704738B50E4BCD
:1005F400054618784FF47A73B3FBF0F30B4A10688E
:10060400B0FBF3F000F08EF8044658B90F2D09D86A
:100614004FF0FF302946224600F054F8044B2046A0
:100624001D6038BD012038BD0800002000000020F6
:1006340004000020074A08B51368032043F01003A0
:10064400136000F02DF80F20FFF7D0FFFFF7CDFF68
:10065400002008BD00200240034A044913680978B9
:100664000B441360704700BFA00000200800002066
:10067400014B1868704700BFA000002038B504463D
:10068400FFF7F6FF0546631C1EBF044B1B78E418F6
:10069400FFF7EEFF401BA042FAD338BD080000204C
:1006A400074A00F00700D36823F4E0631B041B0C23
:1006B40043F0BF6343F4003343EA0023D36070473D
:1006C40000ED00E0154B70B5DB68C3F30223C3F102
:1006D40007051C1D042D28BF0425062C8CBF033BD5
:1006E4000023012404FA03F6AC40013C013E2140FE
:1006F40099403240002842EA01024FEA0212A9BF9F
:1007040000F16040064BD2B200F56140BBBF00F07F
:100714000F00D2B280F800231A5470BD00ED00E03F
:1007240014ED00E00138B0F1807F3FBF064B074A6B
:10073400F02158603FBF82F8231000200722986000
:1007440034BF1A600120704710E000E000ED00E0C3
:100754000023F7B51D460C6834FA05F200F0C0809A
:100764000122AA401440944240F0B8804A68122AF8
:100774002BD00ED8022A25D004D84AB3012A30D16E
:10078400CB682EE0032A1BD0112A2AD1CB6804336C
:1007940027E0544EB2421BD006D8A6F58016B242CA
:1007A40016D006F5803608E04F4EB24210D006F55A
:1007B4008036B2420CD0A6F58016B24211D107E0C1
:1007C40000230EE0CB6808330BE0CB680C3308E061
:1007D4008B682BB1012B0CBF04614461082300E03A
:1007E4000423FF2C97BF8646A5F108070668AF00CF
:1007F40084BF4668BF004FF00F0202FA07FC26EAE6
:100804000C0603FA07F746EA070688BF00F1040E50
:10081400CEF800604F68FE0060D5344E05F0030C3E
:10082400D6F818E04FEA8C0C4EF0010EC6F818E02A
:10083400B66902FA0CF206F001060196019E25F053
:10084400030606F1804606F58036D6F808E02EEA5F
:10085400020E274A904216D002F58062904214D0CC
:1008640002F58062904212D002F58062904210D06C
:1008740002F5806290420ED002F5806290420CBF75
:100884000522062208E0002206E0012204E00222FA
:1008940002E0032200E0042202FA0CF242EA0E0211
:1008A400B260144A17F4803F166814BF2643A64367
:1008B4001660566817F4003F14BF2643A6435660DB
:1008C400966817F4801F14BF2643A6439660D66823
:1008D400BF024CBF344326EA0404D46001353AE72E
:1008E40003B0F0BD000021100000311000100240E0
:1008F400000801400004014002B909040161704785
:100904007047000070B5044608B9012070BD90F826
:100914003D3003F0FF021BB980F83C20FFF7F0FFE5
:100924002268242384F83D30136823F00103136004
:1009340000F00AFB6368414A93420FD8404A904250
:10094400E3D940492268B0FBF1F1556825F03F0531
:100954000D435560166A26F03F0615E03A4A904268
:10096400D3D938492268B0FBF1F14FF49675566833
:100974004D4326F03F060E434FF47A71B5FBF1F177
:100984005660166A26F03F06013131431162D1697F
:100994002A4D21F44F41AB4221F0FF0100F1FF3019
:1009A40009D85B00B0FBF3F0431CC3F30B03042B27
:1009B40038BF042318E0A56855B903EB4303B0FB23
:1009C400F3F0431CC3F30B036BB143F400430BE09C
:1009D40019256B43B0FBF3F0431CC3F30B0313B1B2
:1009E40043F4404300E001230B43D3611368206ABE
:1009F400E16923F0C00301430B4313609168236949
:100A0400E068184321F4034323F0FF030343936096
:100A1400D368A069616923F0FF0301430B43D360EA
:100A24001368002043F0010313602023206484F83A
:100A34003D30206384F83E0070BD00BFA0860100F5
:100A44007F841E0040420F00FF083D00F7B50546B5
:100A5400002800F095810368DB0703D42B689F0707
:100A64004ED490E0974C636803F00C03042B07D03A
:100A7400636803F00C03082B09D16368DE0306D511
:100A840023689C03EAD56B68002BE7D178E16B6897
:100A9400B3F5803F13D05BB9236823F4803323601C
:100AA400236823F480232360FFF7E2FD064623E056
:100AB400B3F5A02F236806D143F480232360236871
:100AC40043F4803305E023F480332360236823F464
:100AD40080232360FFF7CCFD064623689803BDD42A
:100AE400FFF7C6FD801B6428F7D9032049E1FFF70F
:100AF400BFFD801B6428F8D823689903F7D4ADE7B9
:100B0400704C636813F00C0F07D0636803F00C0398
:100B1400082B11D16368DA030ED423689B0703D52D
:100B24002B69012B40F02C8123686A6923F0F803B8
:100B340043EAC203236026E02A69634BB2B101226F
:100B44001A60FFF795FD064623685E4A9F0705D4A1
:100B5400FFF78EFD801B0228F6D9C6E71368696982
:100B640023F0F80343EAC10313600CE01A60FFF7B3
:100B74007FFD06462368980705D5FFF779FD801B9E
:100B84000228F7D9B1E72B68190703D42B685A0751
:100B94002DD492E0AA694B4C4C4BDAB101221A6075
:100BA400FFF766FD0646636A9B0705D4FFF760FD01
:100BB400801B0228F7D998E7454B4FF4FA521B687B
:100BC400B3FBF2F3019300BF019B5A1E0192002B69
:100BD400F9D1DBE71A60FFF74BFD0646636A9F070E
:100BE400D4D5FFF745FD801B0228F7D97DE7354CA6
:100BF400E369D8005FBFE369012643F08053E361F2
:100C040057BFE369002603F08053009358BF009B4D
:100C1400304B1A68D10503D5EB68012B11D123E0C1
:100C24001A6842F480721A60FFF722FD0746294BC6
:100C34001B68DA05F0D4FFF71BFDC01B6428F6D946
:100C440053E75BB9236A23F001032362236A23F089
:100C540004032362FFF70CFD074626E0052B236AF5
:100C640006D143F004032362236A43F0010305E041
:100C740023F001032362236A23F004032362FFF7B2
:100C8400F7FC0746236A9B0712D4FFF7F1FC41F2F5
:100C94008833C01B9842F5D927E7FFF7E9FC41F2F6
:100CA4008833C01B98423FF620AF236A9807F4D4D8
:100CB4001EB1E36923F08053E361E86960B9002061
:100CC4005FE000BF00100240000042428004424244
:100CD40000000020007000402B4B5A681C4602F0B4
:100CE4000C02082A3DD0294E0023022833602CD15F
:100CF400FFF7BEFC07462268234B910105D5FFF799
:100D0400B7FCC01B0228F6D9EFE62F6AB7F5803F7F
:100D140001BF596821F40030A968014308BF596034
:100D24006A6A63683A4323F47413134363600123C8
:100D34003360FFF79DFC054623689A01BFD4FFF793
:100D440097FC401B0228F7D9CFE6FFF791FC054634
:100D540023689B01B3D5FFF78BFC401B0228F7D90E
:100D6400C3E601280DD058682B6A00F480329A42F9
:100D740006D16B6A00F47010C01A18BF012000E09D
:100D8400012003B0F0BD00BF0010024060004242E9
:100D94001B4B70B503F110052E4686B002AC2246FB
:100DA40018685968083303C2AB421446F7D1338834
:100DB4001449ADF804304B6803F00C02042A1BD02C
:100DC400082A01D0104818E0C3F3834206A8DB03C5
:100DD400024412F8100C41BF0C4B4A685843C2F34A
:100DE400404343BF06AA9B1813F8143C084B4CBF5E
:100DF400B0FBF3F0584300E0044806B070BD00BFF8
:100E0400D81000080010024000127A000024F400F8
:100E140000093D00F8B50D46044608B90120F8BDA7
:100E2400444A136803F00703994217D822689007CD
:100E34001FD5414B12F0040F1EBF596841F4E06105
:100E44005960110742BF596841F4605159605968AB
:100E540021F0F000A168014359600AE0136823F00F
:100E640007030B431360136803F007038B42D5D1C8
:100E7400DCE7D20706D42F4A136803F007039D4228
:100E840028D331E063682C4E012B326802D112F46E
:100E9400003F06E0022B02D112F0007F01E012F0C5
:100EA400020FBBD0726822F0030213437360FFF792
:100EB400DFFB07467368626803F00C03B3EB820F31
:100EC400D9D0FFF7D5FB41F28833C01B9842F1D942
:100ED4000320F8BD136823F007032B431360136842
:100EE40003F00703AB4299D12168134D11F0040FAD
:100EF40005D06B6823F4E062E36813436B600B076F
:100F040041BF6B68226923F4605343EAC20348BFBC
:100F14006B60FFF73DFF6B68084AC3F30313D35CB0
:100F2400D840074B1860074B1868FFF75FFB002099
:100F3400F8BD00BF0020024000100240EA10000883
:100F44000000002004000020044B054A5B68C3F342
:100F54000223D35C034A1068D84070470010024053
:100F6400FA100008000000200E4B70B51E460E4C0F
:100F74000025E41AA410A54204D056F82530984759
:100F84000135F8E700F09AF8084B094C1E46E41ABC
:100F9400A4100025A54204D056F825309847013501
:100FA400F8E770BD501100085011000850110008F6
:100FB40054110008024B0146186800F00BB800BF3A
:100FC4006C00002003460244934202D003F8011B44
:100FD400FAE7704770B5CC1C24F0030408340C2CD9
:100FE40038BF0C24002C064603DA0C23336000209F
:100FF40070BD8C42F9D3204A136810461946A1B13A
:101004000A68121B0ED40B2A03D90A608B188C5061
:101014001FE08B420BBF5A684A6802605A6018BFCF
:101024000B4616E00B464968E9E7144D2B681BB9DB
:10103400304600F025F828603046214600F020F8BC
:10104400421C0346D1D0C51C25F0030585420AD1B4
:101054001C6003F10B001A1D20F00700821A0AD04D
:101064005142995070BD3046E91A00F009F8013038
:10107400BBD02B46ECE770BD94000020900000200C
:1010840038B5064C002305460846236000F008F8EE
:10109400431C02D1236803B12B6038BDA400002097
:1010A400044A05491368002B08BF0B461844106016
:1010B4001846704798000020A8000020F8B500BF2B
:1010C400F8BC08BC9E467047F8B500BFF8BC08BC25
:0410D4009E4670477D
:1010D80002030405060708090A0B0C0D0E0F101071
:1010E80001020000000000000000010203040607DE
:1010F800080900000000010203047372632F73796A
:10110800735F636C6F636B2E63005243434F5343AB
:101118002048414C2045525200524343434C4B20F7
:1011280048414C20455252007372632F7379735FA4
:101138006932632E63004932433120494E495420B5
:081148004641494C0043000040
:041150005102000840
:041154002902000864
:101158000024F4001000000001000000000000005E
:101168000000000000000000000000000000000077
:101178000000000000000000000000004D11000801
:101188000000000000000000000000000000000057
:101198000000000000000000000000000000000047
:1011A8000000000000000000000000000000000037
:1011B8000000000000000000000000000C000020FB
:04000005080005A545
:00000001FF
