:020000040800F2
:10000000FFFF00200D0D0008E1030008E5030008D4
:100010002504000865040008A5040008000000008D
:10002000000000000000000000000000E5040008DF
:10003000E704000800000000E9040008EB040008E1
:10004000550D0008550D0008550D0008550D000808
:10005000550D0008550D0008550D0008550D0008F8
:10006000550D0008550D0008550D0008F104000855
:10007000550D0008550D0008550D0008550D0008D8
:10008000550D0008550D0008550D0008550D0008C8
:10009000550D0008550D0008550D0008550D0008B8
:1000A000550D0008550D0008550D0008550D0008A8
:1000B000550D0008550D0008550D0008550D000898
:1000C000550D0008550D0008550D0008550D000888
:1000D000550D0008550D0008550D0008550D000878
:1000E000550D0008550D0008550D0008550D000868
:1000F000550D0008550D0008550D0008550D000858
:10010000550D0008550D0008550D0008550D000847
:10011000550D0008550D0008550D0008550D000837
:10012000550D0008550D0008550D0008550D000827
:1001300000000000000000000000000000000000BF
:1001400000000000000000000000000000000000AF
:10015000000000000000000000000000000000009F
:10016000000000000000000000000000000000008F
:10017000000000000000000000000000000000007F
:10018000000000000000000000000000000000006F
:10019000000000000000000000000000000000005F
:1001A000000000000000000000000000000000004F
:1001B000000000000000000000000000000000003F
:1001C000000000000000000000000000000000002F
:1001D000000000000000000000000000000000001F
:0401E0005FF8E0F1F3
:1001E40010B5054C237833B9044B13B10448AFF36D
:1001F40000800123237010BD700000200000000067
:100204006036000808B5034B1BB103490348AFF33C
:10021400008008BD00000000740000206036000863
:100224002DE9FF47464D00F0C5FE00F0CBF900F084
:1002340001FA00F051FD00F075FA00F053FB00F0F4
:10024400C9FB00F06FFC00F0A1FA00F0E1FA00F045
:100254001FFD00F0A7FA0A232F223A49286802F06A
:10026400ADFC00F0EBFB282002F08AFD0446364B7F
:1002740036491A780027C2F300130293C2F3C0036D
:100284000193C2F380030093C2F3400302F001021E
:1002940002F052FE0A2321462322286802F08EFC33
:1002A40020462B4C02F074FD206800F054FE2068B8
:1002B40000F0B1FD0022274C1146206800F085FDB6
:1002C40000220121206800F080FD0022224D114609
:1002D400286800F07AFD00220121286800F075FDED
:1002E400BA464FF00108DFF87490642087F00107E4
:1002F40000F084FE01213A46484601F053FA0AF11F
:100304000103D9B2072903F00706C3F3C40514D9BE
:10031400072E14BF8A464FF0000A07298CBF00211C
:1003240001212068002200F047FD08FA06F2294660
:100334002068D2B200F040FDD7E78A46EDE700BF5F
:10034400B802002078360008BC020020A836000855
:10035400C8020020A8020020AC020020000C0140CA
:100364000A4B82B09A6942F001029A619A6902F0DA
:1003740001020092009ADA6942F08052DA61DB6984
:1003840003F080530193019B02B0704700100240B8
:100394000F4B1A6842F001021A6059680D4A0A406C
:1003A4005A601A6822F0847222F480321A601A6841
:1003B40022F480221A605A6822F4FE025A604FF432
:1003C4001F029A604FF00062034B9A60704700BFAF
:1003D400001002400000FFF800ED00E0704700004C
:1003E40008B50C4B1C78012C13D1224610210A4865
:1003F40001F0D8F900222146084801F0D3F900227F
:100404000221064801F0CEF900220421034801F03C
:10041400C9F9FEE78C00002000080140000C0140EF
:1004240008B50C4B1C78012C13D1224610210A4824
:1004340001F0B8F922462146084801F0B3F9002238
:100444000221064801F0AEF900220421034801F01C
:10045400A9F9FEE78C00002000080140000C0140CF
:1004640008B50C4B1C78012C13D1224610210A48E4
:1004740001F098F900222146084801F093F9224638
:100484000221064801F08EF900220421034801F0FC
:1004940089F9FEE78C00002000080140000C0140AF
:1004A40008B50C4B1C78012C13D1224610210A48A4
:1004B40001F078F922462146084801F073F92246F2
:1004C4000221064801F06EF900220421034801F0DC
:1004D40069F9FEE78C00002000080140000C01408F
:1004E40070477047704700F077BD000008B5054BB2
:1004F400186800F0B1FE044B1868BDE8084000F02D
:100504000EBD00BFC0020020C80200202DE9F34147
:100514000746C4200E4690461D4602F031FC0446B0
:1005240098B133462A46CDE90078094902F004FD22
:1005340082B208480A232146006802F03FFB2046A5
:1005440002B0BDE8F04102F023BC02B0BDE8F08186
:10055400E9360008B802002010B50446012C08460C
:1005640011461A460BD0022C0FD0F4B90F4B1B784E
:10057400012B1AD10E4BBDE81040FFF7C7BF0B4B40
:100584001B78012B11D10B4BF5E7084B1B78012B82
:1005940002D1094BFFF7BAFF084B1A78012A03D19D
:1005A4001021074801F0FEF8FEE710BDB402002058
:1005B4000C3700081A370008143700088C00002094
:1005C4000008014010B54FF480330122022490B09A
:1005D4004FF40031CDE90623CDE90D434FF4E01388
:1005E40006A808910A920F9301F006FD28B1132181
:1005F40020460D4B0D4AFFF7AFFF0F2302244FF4A3
:100604008062CDE901340023214601A8CDE90332FB
:10061400059301F0CDFE28B11C212046044B034A6A
:10062400FFF79AFF10B010BD203700082F370008DD
:100634003F3700082DE9F041354C88B0A369002507
:1006440043F00403A361A369012603F004030393A5
:10065400039B10230227DFF8C8800DEB03014046FB
:10066400CDE90436CDE9065700F034FF4FF480732A
:10067400404604A9CDE90435CDE9065700F02AFF28
:10068400A36908F5806843F00803A361A3694046A1
:1006940003F008030293029B272304A9CDE904363F
:1006A400CDE9065700F016FF4FF44073404604A905
:1006B400CDE90435CDE9065700F00CFFA36904A980
:1006C40043F01003A361A369124803F010030193DC
:1006D400019B41F6F073CDE90656CDE9043500F0EF
:1006E400F9FEA3690C4843F02003A361A36904A99C
:1006F40003F020030093009B0423CDE90656CDE9C3
:10070400043500F0E7FE054B1E7008B0BDE8F0812B
:100714000010024000100140001401408C00002031
:1007240000080140012238B5164C1146204601F05C
:1007340039F8154D20460122022101F033F82046F4
:100744000122042101F02EF801221021284601F093
:1007540029F8C82000F052FC20460022012101F0B3
:1007640021F820460022022101F01CF82046002234
:10077400042101F017F82846BDE838400022102172
:1007840001F010B8000C01400008014003480A239E
:100794001F220349006802F011BA00BFB80200200A
:1007A4004E3700087047000073B50C4B0E461B789B
:1007B4001546012B0FD1104602F0E2FA0A23044633
:1007C40002460748009331462B46006801F09CFA24
:1007D400204602B070BD0024FAE700BF14010020D7
:1007E400B002002007B510461A46074B1B78012BB0
:1007F40006D10A23009303460448006801F0B2F9C5
:1008040003B05DF804FB00BF14010020B002002017
:1008140010B5082002F0B4FA0F4A02600F4A426091
:1008240000F0C2FA082002F0ABFA0D4B044618603F
:10083400082002F0A5FA0B4B0B4A18606FF47F03F3
:10084400C4E90023094AC0E900230123084A1370BC
:10085400084A137010BD00BFE9070008AD0700087F
:10086400A8020020AC0200200120FF000121FF00AB
:100874008D0000208E000020044AC021D369044862
:1008840023F40013D36100F00FBF00BF0010024037
:10089400000C0140002310B5104C86B00493A369EA
:1008A400C02243F00803A361A3690D4803F00803C1
:1008B4000093009B1223CDE90223032302A905938D
:1008C40000F008FEE36943F40013E361E36903F411
:1008D40000130193019B06B010BD00BF001002403D
:1008E400000C01401248134B10B5134A1860134B07
:1008F4000124C0E9002300234FF48042C0E90233FD
:10090400C0E90423C0E907330D4B8461C3670D4B71
:10091400C0F8803001F058F838B1BDE810401F210C
:100924000220094B094AFFF717BE094B1C7010BD82
:1009340090000020B002002000540040A086010076
:10094400990800087D0800086E3700087D37000804
:1009540014010020044A4FF4C0619369034823F44E
:100964008043936100F0A0BE0010024000080140E3
:1009740030B5002487B0154B04949A69144D42F4A1
:1009840080429A619A69284602F480420092009A51
:100994009A6902A942F004029A619B694FF40072B9
:1009A40003F004030193019B0223CDE902230323F3
:1009B400059300F08FFD4FF48063284602A9CDE92A
:1009C4000234049400F086FD07B030BD00100240EC
:1009D400000801401148124B10B518604FF4E13380
:1009E400104AC0E9002300230C22C0E90233C0E905
:1009F40005230361C3610C4B43660C4B836602F011
:100A04005BF938B1BDE810401D210220084B094AAA
:100A1400FFF7A2BD0122084B1A7010BD1801002077
:100A2400B80200200038014075090008590900087F
:100A34008B3700089B370008B4020020F8B54FF448
:100A44008071134800F0A8FE124D06464FF48071E1
:100A5400284600F0A1FE4FF400710746284600F036
:100A64009BFE4FF480518400284600F095FE44EA32
:100A74004704344364B244EAC0044021064800F009
:100A84008BFE64B2054B44EA00141C70F8BD00BF31
:100A940000080140000C014000100140BC0200208D
:100AA400034AC06AD36923F00103D36100F05EBB3B
:100AB40000100240164B37B5DA69164D42F00102B8
:100AC400DA61DB69144A03F001030193019B1023EB
:100AD400044628684FF48071C0E900230023802273
:100AE4008361C0E902324FF480624FF48053C0E95D
:100AF4000412C36100F0FCFA28B15A210220074B0A
:100B0400074AFFF729FD2B68E3625C6203B030BD3E
:100B140000100240C002002008000240AB37000869
:100B2400BC37000830B51C2200248FB021460DEBE1
:100B34000200CDE9014402F033F91022214603A852
:100B440002F02EF9354B364A36481A604FF080438E
:100B5400C0E900345D23C0E90334334B334D83656E
:100B6400334B2860C365334B8460C0F89430324BF8
:100B74008461C0F89830314BC0F88830304BC0F8ED
:100B84008C30304B8367304BC367304BC0F88030B8
:100B94002F4BC0F8843001F061FF28B130210220CE
:100BA4002C4B2D4AFFF7D8FC0023286801A9CDE976
:100BB400013301F077FF28B136210220274B264A62
:100BC400FFF7CAFC002360210822CDE90713286837
:100BD40007A909930B9301F009FE28B13E210220D5
:100BE4001F4B1D4AFFF7B8FC1E4B1F489A6903A907
:100BF40042F004029A619B69042203F00403009307
:100C0400009B0223CDE903230323069300F062FC37
:100C14000122164B1A700FB030BD00BFC002002075
:100C240084010020C8010020B90A0008C402002081
:100C3400A50A0008E1260008E3260008DD260008CE
:100C4400DF260008D7260008D9260008E526000874
:100C5400E7260008CC370008BC370008D93700085D
:100C6400EA37000800100240000801407402002026
:100C74000246064808B500680B46082101F0ACFEA0
:100C8400003818BF0120404208BD00BFC402002044
:100C940008B50B480B4B18600B2303800023037229
:100CA400094B436100F09AF828B11B210220074B3D
:100CB400074AFFF751FC0122064B1A7008BD00BF1A
:100CC40078020020C8020020750C0008FB370008D9
:100CD40009380008900200200A4B07B55A6901211F
:100CE40042F001025A615B69002203F0010301939F
:100CF4000B20019B00F0A6F90B2003B05DF804EB78
:100D040000F0D2B900100240002103E00B4B5B5805
:100D1400435004310A480B4B42189A42F6D30A4A0C
:100D240002E0002342F8043B084B9A42F9D3FFF750
:100D34002FFB02F001F8FFF773FA704768380008D8
:100D4400000000207000002070000020E00200205D
:100D5400FEE7000013B58DF804104178064B4900F6
:100D64001C688DF805200078022201AB01F0FE0119
:100D7400A04702B010BD00BF9402002011B10129A8
:100D840004D0704706218278FFF7E4BF0721427937
:100D9400FAE711B1012904D0704702210279FFF763
:100DA400D9BF0321C279FAE7024B03C883E80300E1
:100DB400704700BF9402002011B1012903D070478D
:100DC4000271FFF7E6BFC271FBE711B1012903D03D
:100DD40070478270FFF7D2BF4271FBE738B50588D0
:100DE400044615B94FF0FF3038BD0321284601F001
:100DF4009BFF60600028F5D0182068430221303042
:100E040001F092FFE0600028ECD06069B0FA80F055
:100E140040094042E8E72DE9F04145680446002DC9
:100E24007AD0C068002877D0227C02F0FF03002A21
:100E3400FAD1227A012A26D01A462188914225D84D
:100E4400002503F1300292B2194601339BB293425A
:100E540020F81150F8D109E020F81160228899B2E5
:100E64006A4330328A4203F10103F5D80123218811
:100E7400237401EB4101C9003031636989B2984799
:100E84000020BDE8F08118251E46E7E702EB420684
:100E9400A91991F801808F78002115F806E0C1F1B5
:100EA400070C48FA0CFC1CF0010F14BF4FF0320C75
:100EB4004FF01C0C5E180131B6B2082920F816C098
:100EC400EDD1072103F10F084EFA01FC1CF0010FCC
:100ED40014BF4FF0320C4FF01C0CA8EB0106B6B255
:100EE400013920F816C0EFD2072103F1170E47FA93
:100EF40001FC1CF0010F14BF4FF0320C4FF01C0C1E
:100F0400AEEB0106B6B2013920F816C0EFD21833A1
:100F140001329BB292B290E74FF0FF30B1E7037C0D
:100F24000BB1002303747047002273B5019101884B
:100F340093B2994202D8002002B070BD416893B2C6
:100F440003EB4303BDF804609DF80650CC18CE5261
:100F54000132A570EBE7002382B0ADF804308DF8C0
:100F64000630019902B0FFF7DFBF000038B50E4B21
:100F7400054618784FF47A73B3FBF0F30B4A106804
:100F8400B0FBF3F000F09EF8044658B90F2D09D8D1
:100F9400024629464FF0FF3000F054F82046044B37
:100FA4001D6038BD0120FCE7040000200000002083
:100FB40008000020074A08B51368032043F0100313
:100FC400136000F02DF80F20FFF7D0FFFFF7C8F9EA
:100FD400002008BD00200240034A044B11681B781E
:100FE4000B441360704700BFCC02002004000020B3
:100FF400014B1868704700BFCC02002038B5044686
:10100400FFF7F6FF0546631C1EBF044B1B78E4186C
:10101400FFF7EEFF431BA342FAD338BD04000020C0
:1010240007490302CA6803F4E06322F4E06212048D
:10103400120C134343F0BF6343F40033CB60704797
:1010440000ED00E0164B30B5DC68C4F30224C4F1B3
:101054000703251D042B28BF0423062D4FF0FF355D
:1010640098BF002405FA03F388BF033C21EA030375
:10107400A34005FA04F422EA0402002843EA020326
:10108400ACBF00F16040074A4FEA0313DBB2ABBFC9
:1010940000F5614000F00F0080F80033135430BDB8
:1010A40000ED00E014ED00E0002808DB0123420914
:1010B40000F01F0003FA00F0014B43F822007047D0
:1010C40000E100E00138B0F1807F0AD2F021064B44
:1010D400064A586082F823100020072298601A609C
:1010E40070470120704700BF10E000E000ED00E011
:1010F40010B5002830D00168184B1424994223D825
:10110400174AA3F207430A44B2FBF4F292000264C2
:10111400C363D0E901342343C4680A6823430469E0
:1011240022F47F522343446922F03002234384692A
:101134002343C469234313430B604FF48072002399
:1011440002848363184610BD064B0B44B3FBF4F3CF
:101154009B000364044BDBE70120F4E7070402402F
:10116400F8FFFDBFF8FBFDBF0004024010B558B303
:10117400036814241A6822F001021A6000221A601B
:101184005A609A60DA60114A934215D8104919449A
:10119400B1FBF4F10F4B89000164C3630123D0E96F
:1011A4000F218B4053600023C0E90A33C0E90C339C
:1011B40083630384184610BD074A1A44B2FBF4F251
:1011C4009200064B0264E8E70120F4E707040240BA
:1011D400F8FFFDBF00000240F8FBFDBF0004024021
:1011E400F0B590F82040012C34D0012490F821501F
:1011F40080F82040A5424FF000064FF0020427D1AA
:1012040080F8214004688663266826F0010626607B
:10121400D0E90F67BD40756063604368102BC36AF3
:101224000BBFA260A160E160E2604BB1236843F0B0
:101234000E0300202360236843F001032360F0BD04
:10124400236823F004032360236843F00A03F0E7D0
:1012540080F820600220F2E770B40425C66B026CAB
:101264003468036895402542196800F085804D076D
:1012740040F182801A68914996065EBF1A6822F08E
:1012840004021A608E4A93423ED98B4235D01431FF
:101294008B4234D014318B4233D014318B4220D062
:1012A40014318B4220D014318B4220D0934221D070
:1012B40002F56272934220D0143293421FD014324A
:1012C40093421ED01432934214BF4FF480234FF440
:1012D40080437C4A5360C36A002B00F0ED8070BCED
:1012E40018474FF48043F4E74FF48023F1E74FF4B9
:1012F4008003EEE74FF08063EBE70423E9E7402344
:10130400E7E74FF48063E4E78B422ED06E498B42CB
:101314002DD014318B422CD014318B4219D014317E
:101324008B4219D014318B4219D093421AD0674A98
:1013340093421AD01432934219D01432934218D0E3
:101344001432934214BF4FF480234FF48043604A15
:10135400C0E74FF48043FAE74FF48023F7E74FF4F4
:101364008003F4E74FF08063F1E70423EFE74023C1
:10137400EDE74FF48063EAE702259540254200F04B
:1013840087808D0740F184801A68940606D41A6811
:1013940022F00A021A60012280F82120484A4749B3
:1013A40093423DD98B4234D014318B4233D0143123
:1013B4008B4232D014318B421FD014318B421FD058
:1013C40014318B421FD0934220D002F562729342B3
:1013D4001FD0143293421ED0143293421DD01432C3
:1013E400934214BF4FF400334FF40053354A536013
:1013F400002380F82030836A6EE74FF40053F5E74A
:101404004FF40033F2E74FF40013EFE74FF00073AB
:10141400ECE70223EAE72023E8E74FF40073E5E76B
:101424008B422ED028498B422DD014318B422CD0A4
:1014340014318B4219D014318B4219D014318B42A0
:1014440019D093421AD0214A93421AD014329342AB
:1014540019D01432934218D01432934214BF4FF46B
:1014640000334FF400531A4AC1E74FF40053FAE72C
:101474004FF40033F7E74FF40013F4E74FF0007331
:10148400F1E70223EFE72023EDE74FF40073EAE7E7
:101494000825954025420FD009070DD5196821F07C
:1014A4000E011960012303FA02F2726083634FF4A0
:1014B40080730384036B0FE770BC7047080002401D
:1014C40080000240000402401C0002400804024064
:1014D400000002402DE9F74F002216466B4F6C4B7B
:1014E400DFF8B4C1DFF8B4E10C6834FA06F502D1D0
:1014F40003B0BDE8F08F4FF0010808FA06F804EADB
:10150400080538EA040440F082804C68032C07D8AC
:10151400013C022C00F28D80DFE804F09EA3A900B8
:10152400122C00F0A18074D8112C00F09780FF2DAC
:1015340098BF82464FF00F0988BF00F1040A4FEAB2
:101544008604DAF8008088BF203C09FA04FB28EA04
:101554000B0802FA04F448EA0404CAF80040D1F87B
:1015640004A01AF0805F52D0BC6926F0030844F04E
:101574000104BC61BC6908F1804804F001040194D1
:1015840008F5803806F0030B019C4FEA8B0BD8F862
:10159400084009FA0BF924EA09093E4CA0426AD032
:1015A40004F58064A04268D004F58064A04266D04B
:1015B40004F58064A04264D004F58064A04262D043
:1015C40060450CBF0524062404FA0BF444EA09041C
:1015D400C8F808401C681AF4803F14BF2C43AC437D
:1015E4001C605C681AF4003F14BF2C43AC435C607D
:1015F4009C681AF4801F14BF2C43AC439C60DC68C5
:101604001AF4001F14BF254324EA0505DD600136E2
:101614006AE774450DD018D8DFF884904C4508D09B
:1016240009F570294C4504D0A9F580194C457FF47F
:101634007EAF8A68EAB1012A08BFC0F810804FF073
:10164400080218BFC0F8148071E7DFF858904C45C1
:10165400EFD009F58039E9E7CA6868E7CA68043257
:1016640065E7CA68083262E7CA680C325FE700229D
:101674005DE704225BE70024A6E70124A4E7022433
:10168400A2E70324A0E704249EE700BF0010024061
:101694000004014000080140001C01400000221029
:1016A40000001210000031102DE9F04F00244FF01B
:1016B400010A4FF00F08354BDFF8D8B031FA04F2C5
:1016C40001D1BDE8F08F0AFA04F70F4052D024F09C
:1016D400030505F180452E4A05F5803504F0030C19
:1016E400AE684FEA8C0C08FA0CF9904209EA060E2F
:1016F40042D002F58062904240D002F5806290426E
:101704003ED002F5806290423CD002F58062904265
:101714003AD058450CBF0522062202FA0CF2724553
:101724006FEA07060FD1AA6822EA0902AA601A68BA
:1017340032401A605A6832405A609A6832409A605D
:10174400DA683240DA60FF2F98BF07464FEA840216
:1017540088BF071D3D6888BF203A08FA02FC25EAC5
:101764000C054FF0040C0CFA02F22A433A60C268EA
:101774001640C6600134A1E70022CEE70122CCE77F
:101784000222CAE70322C8E70422C6E70004014094
:1017940000080140001C01408368194214BF012065
:1017A400002070470AB1016170470904FBE77047E4
:1017B4007047016800224B6913F4806310D06FF402
:1017C40080634B612023026380F83D3080F83E2023
:1017D400036C80F83C2043F0040303640120704749
:1017E400184670472DE9F04104460F4616469846C0
:1017F4002568686927EA000080B2B8B16B695A05A8
:1018040016D52B68202243F400732B606FF4806399
:101814006B610023236384F83D2084F83E30226CFE
:1018240042F004020120226484F83C30BDE8F081D7
:10183400731CDED0FFF7DCFBA0EB0800B04201D83C
:10184400002ED5D100232022236384F83D2084F880
:101854003E30226C42F02002E4E770B504460D46A7
:10186400164623685B695B0701D5002070BD2046DE
:10187400FFF79FFFA8B96A1CF3D0FFF7B9FB801BE1
:10188400A84201D8002DECD100232022236384F840
:101894003D2084F83E30226C84F83C3042F0200233
:1018A40022640120E2E77047704770477047704731
:1018B400704770477047704770B504460D4616462A
:1018C40021684B6913F0400301D0002010E04A69FD
:1018D400D2060ED56FF010024A612022236384F8E9
:1018E4003D2084F83E30226C0120226484F83C3090
:1018F40070BDFFF77DFB801BA84201D8002DDFD10E
:1019040000232022236384F83D2084F83E30226C97
:1019140042F02002E8E72DE9F84606460F469146D4
:101924001D464FEA114A3368BAF1010F0CBF5C69D6
:101934009C6927EA0404A4B2B4FA84F46409A145B6
:1019440001D0002017E06A1CEED0FFF751FB089B82
:10195400C01AA84201D8002DE5D10023202201207D
:10196400336386F83D2086F83E30326C86F83C308E
:1019740042F020023264BDE8F88670B504460D4694
:10198400164623685B691B0601D5002070BD2046FE
:10199400FFF70FFFA8B96A1CF3D0FFF729FB801BE0
:1019A400A84201D8002DECD100232022236384F81F
:1019B4003D2084F83E30226C84F83C3042F0200212
:1019C40022640120E2E7000070B5044608B9012052
:1019D40070BD90F83D3003F0FF02E3B9524B80F83C
:1019E4003C204365514B8365514BC365514B0366A2
:1019F400514B4366514B8366514BC366514B03674E
:101A0400514B4367514B8367C36F0BB9504BC3674B
:101A14002046E36F98472423226884F83D301368F6
:101A240023F00103136000F05FFD4A4A63689342A8
:101A340094BF494A494A90428CBF00220122002A9D
:101A4400C5D1474E2168B0FBF6F64A6822F03F0242
:101A540032434A603F4A0D6A934281BF4FF4967203
:101A640072434FF47A76B2FBF6F225F03F0594BF49
:101A7400721C01322A430A62CD69421E354825F49C
:101A84004F45834225F0FF0532D85B00B2FBF3F3E8
:101A940040F6FC720133134242D0C3F30B032B43D1
:101AA400CB610A68D4E9073022F0C0020343134330
:101AB4000B608A68D4E9030322F40342034322F04F
:101AC400FF0213438B60CA68D4E9053022F0FF0299
:101AD40003431343CB600B68002043F001030B6006
:101AE4002023206484F83D30206384F83E006FE7AF
:101AF400A06850B903EB4303B2FBF3F30133C3F320
:101B04000B037BB143F40043C9E719204343B2FB01
:101B1400F3F30133C3F30B0323B143F44043BEE7B0
:101B24000423BCE70123BAE7AD180008AF18000886
:101B3400B1180008B3180008B5180008B718000851
:101B4400B9180008BB180008AB180008B51700083E
:101B5400B3170008A08601007F841E00FF083D0023
:101B640040420F002DE9F043044685B098460D46E7
:101B740091460C9FFFF73CFA94F83D300646202B23
:101B840004D00225284605B0BDE8F083009019234F
:101B9400012220465849FFF7BEFE0028F1D194F8EF
:101BA4003C30012BEDD00123216884F83C300B68D4
:101BB400DB075EBF0B6843F001030B600B6823F483
:101BC40000630B60212384F83D30102384F83E30F9
:101BD40000232364A4F82A80638DC4F82490238509
:101BE400464BE362E36A082B04D0012B02D013F5C1
:101BF400803F04D10B6843F480730B6002E0236BD5
:101C0400122BF7D03B4600224FF0011120460096DC
:101C1400FFF781FE08B10125B4E723692268B3F513
:101C2400804F21D105F0FE05156133463A46204622
:101C34003349FFF7D7FD05460028ECD1236803900C
:101C44005A6903929B690393039B238DF3B921681B
:101C54000A6842F400720A60202284F83C3084F856
:101C64003D2084F83E308DE7EB1103F0060343F08A
:101C7400F0031361204633463A462249FFF7B2FD8A
:101C84000028C8D12368EDB21D61CEE7324639463B
:101C94002046FFF772FE40B1236C042B01BF22687B
:101CA400136843F400731360B5E7636A20681A4647
:101CB40012F8011B01616262628D013A92B262857F
:101CC400228DD0F814C0511E89B21CF0040F218556
:101CD4000AD049B15978023301616362638D023AD3
:101CE400013B9BB263852285324639462046FFF785
:101CF400B4FD0028A9D0CFE7020010000000FFFFC8
:101D040002000100080001002DE9F043044689B0F7
:101D140098460E469146109FFFF76AF994F83D30B5
:101D24000546202B04D00226304609B0BDE8F083D6
:101D340000901923012220469B49FFF7ECFD00285F
:101D4400F1D194F83C30012BEDD00123216884F8C3
:101D54003C300B68D8075EBF0B6843F001030B608F
:101D64000B6823F400630B60222384F83D301023B6
:101D740084F83E3000232364A4F82A80638DC4F8D9
:101D840024902385894BE362E36A0A68082B42F4B2
:101D940080620A6004D0012B02D013F5803F04D185
:101DA4000B6843F480730B6002E0236B112BF7D0B4
:101DB4003B4600224FF0011120460095FFF7ABFD92
:101DC40008B10126B0E722692368B2F5804F27D114
:101DD40046F00106F6B21E612B463A462046744987
:101DE400FFF700FD06460028EBD1228D2368002A68
:101DF4004AD103905A6903929A690392039A1A6822
:101E040042F400721A60DFF8B081238D002B6BD18D
:101E1400202284F83C3084F83D2084F83E3083E767
:101E24004FEAE61808F0060848F0F0021A61204666
:101E34002B463A465F49FFF7D5FC0028C1D12368F9
:101E4400F6B23A461E6120462B465949FFF7CAFCB2
:101E540002460028B5D123680790596920460791A6
:101E6400996907910799196841F4807119603B4693
:101E74004FF001110095FFF74EFD0028A1D1226813
:101E840048F0F1031361A7E7012A11D11A6822F47B
:101E940080621A6072B6236804905A6904929A693F
:101EA4000492049A1A6842F400721A6062B6AAE7AD
:101EB400022A1A680ED142F400621A6072B62368CC
:101EC40005905A6905929A690592059A1A6822F44E
:101ED4008062EAE742F480621A6006905A690692C8
:101EE4009B690693069B8EE7032B67D8012B16D1BB
:101EF4002A4639462046FFF7DFFC00287FF461AF0D
:101F040023681A69636A1A70636A01336362238DF2
:101F1400013B2385638D013B9BB2638575E7022BEF
:101F24004FF000023B4641462046009519D1FFF789
:101F3400F2FC00287FF445AF72B623681A6842F4B5
:101F440000721A601A69636A1A70636A0133636201
:101F5400238D013B2385638D013B9BB2638562B670
:101F6400CEE7FFF7D8FC024600287FF42AAF2168A9
:101F74000B6823F480630B6072B6236820461969EA
:101F8400636A1970636A414601336362238D009565
:101F9400013B2385638D013B9BB263853B46FFF781
:101FA400BAFC0028C9D00CE7020010000000FFFFB3
:101FB4000200010008000100040001002A4639461D
:101FC4002046FFF779FC00287FF4FBAE23681A69EA
:101FD400636A1A70626A531C6362238D013B238512
:101FE400638D013B9BB263852368596949077FF57B
:101FF4000CAF1B69537087E72DE9F341054638B3ED
:102004000368DB0710D42B689F075ED42B6819077D
:1020140000F195802B685A0700F1BF80E869002819
:1020240040F02C81002029E08F4C636803F00C03FE
:10203400042B07D0636803F00C03082B0AD16368F0
:10204400DE0307D523689C03DDD56B68002BDAD14A
:10205400012013E06B68B3F5803F12D1236843F489
:1020640080332360FEF7C4FF064623689803CAD46E
:10207400FEF7BEFF801B6428F7D9032002B0BDE839
:10208400F0819BB9236823F480332360236823F40D
:1020940080232360FEF7ACFF064623689903B2D57C
:1020A400FEF7A6FF801B6428F7D9E6E7B3F5A02F57
:1020B400236803D143F480232360CFE723F48033E0
:1020C4002360236823F48023CBE7674C636813F011
:1020D4000C0F07D0636803F00C03082B10D163685E
:1020E400DA030DD423689B0702D52B69012BAFD1EA
:1020F40023686A6923F0F80343EAC203236085E78F
:102104002A695A4B6AB101221A60FEF771FF06462A
:1021140023689F07ECD4FEF76BFF801B0228F7D9D6
:10212400ABE71A60FEF764FF0646236898077FF55D
:102134006DAFFEF75DFF801B0228F6D99DE7AA6903
:10214400494E4B4BDAB101221A60FEF751FF0446A7
:10215400736A9B070DD54FF4FA52464B1B68B3FBC9
:10216400F2F3019300BF019B5A1E0192002BF9D197
:1021740050E7FEF73DFF001B0228E9D97DE71A600E
:10218400FEF736FF0446736A9F077FF543AFFEF7F9
:102194002FFF001B0228F6D96FE7334CE369D80000
:1021A40024D40127E36943F08053E361E36903F036
:1021B40080530093009B304E3368D90518D5EB68E3
:1021C400012B26D1236A43F001032362FEF710FF9B
:1021D40041F288380646236A9B073FD5002F3FF417
:1021E4001DAFE36923F08053E36117E70027E2E7BB
:1021F400336843F480733360FEF7FAFE8046336835
:10220400DA05DCD4FEF7F4FEA0EB08006428F6D966
:1022140033E7ABB9236A41F2883823F00103236220
:10222400236A23F004032362FEF7E2FE0646236AD0
:102234009807D3D5FEF7DCFE801B4045F7D91CE791
:10224400052B236A03D143F004032362BAE723F086
:1022540001032362236A23F00403B6E7FEF7C8FEF2
:10226400801B4045B7D908E70010024000004242F5
:102274008004424200000020007000402A4B5A684B
:102284001C4602F00C02082A3DD00023274E0228E7
:1022940033602BD1FEF7ACFE0746236899011FD4A7
:1022A4002B6AB3F5803F05D16268A96822F4003235
:1022B4000A436260696A62680B4322F4741213432E
:1022C400636001233360FEF793FE054623689A0199
:1022D4003FF5A8AEFEF78CFE401B0228F6D9CCE6EB
:1022E400FEF786FEC01B0228D7D9C6E6FEF780FE9D
:1022F400054623689B017FF595AEFEF779FE401BEA
:102304000228F6D9B9E601283FF4B8AE5B682A6A18
:1023140003F4803191427FF49BAE6A6A03F4701334
:1023240093423FF47FAE93E60010024060004242C5
:1023340030B51A4B87B002AC03F110052246186879
:102344005968083303C2AB421446F7D140F2012363
:102354001349ADF804304B6803F00C02042A19D079
:10236400082A19D1C3F3834206A80244DB0312F8F6
:10237400102C0CD54B680B48C3F34043504306AABA
:10238400134413F8143CB0FBF3F007B030BD064817
:102394005043FAE70348F8E70448F6E71A38000818
:1023A400001002400024F40000093D0000127A00ED
:1023B4002DE9F0410D46044610B90120BDE8F08135
:1023C400444A136803F007038B4228D321688E071D
:1023D40030D4CA0743D43F4A136803F00703AB421F
:1023E40065D822683C4D12F0040F6CD1130706D552
:1023F4006B68226923F4605343EAC2036B60FFF7FE
:1024040097FF6B68354AC3F30313D35CD840344B4E
:102414001860344B1868FEF7A9FD0020CEE7136856
:1024240023F007030B431360136803F007038B4285
:10243400C3D1CBE7284B11F0040F1EBF5A6842F4F6
:10244400E0625A60080742BF5A6842F460525A6018
:102454005A68A06822F0F00202435A60B9E7626841
:102464001D4E012A33681AD113F4003FA5D07368B6
:1024740041F2883823F0030313437360FEF7B8FD79
:1024840007467368626803F00C03B3EB820FA2D0B3
:10249400FEF7AEFDC01B4045F3D903208EE7022AA8
:1024A40002D113F0007FE1E713F0020FDEE71368B7
:1024B40023F007032B431360136803F00703AB42B5
:1024C4007FF47BAF8DE76B68E16823F4E0630B4333
:1024D4006B608BE70020024000100240D1360008F8
:1024E4000000002008000020044B054A5B68C3F389
:1024F4000223D35C034A1068D8407047001002409E
:10250400E136000800000020044B054A5B68C3F371
:10251400C223D35C034A1068D840704700100240BD
:10252400E1360008000000200123406A80F83D30B5
:10253400D0F89C301847012310B5446A626A84F8C5
:102544003D30824207D12377D4F89430204698470F
:102554000023237710BDA36A834201D10223F2E74B
:10256400E36A834201D10423EDE7236B8342EBD179
:102574000823E8E7012310B5446A626A84F83D3011
:10258400824207D12377D4F8983020469847002315
:10259400237710BDA36A834201D10223F2E7E36AE1
:1025A400834201D10423EDE7236B8342EBD108235B
:1025B400E8E70000036A70B523F001030362036ACD
:1025C400446882690D6822F073022A438D6823F0FF
:1025D40002032B430E4DA84202D00E4EB04210D13E
:1025E400CE6823F008033343A84223F0040302D047
:1025F400084DA84205D1D1E9055624F44074354369
:102604002C43446082614A684263036270BD00BF28
:10261400002C014000340140036A70B523F4807338
:102624000362036A4468C2690D6822F073022A4394
:102634008D6823F4007343EA0523114DA84203D0A7
:1026440005F50065A84214D1CD6823F4006343EA7C
:1026540005230B4D23F48063A84203D005F50065E0
:10266400A84206D1D1E9055624F44054354344EA3E
:1026740005144460C2614A68C263036270BD00BF4E
:10268400002C0140036A30B523F480530362036ACB
:102694004468C2690D6822F4E64242EA05228D6864
:1026A40023F4005343EA0533084DA84203D005F54B
:1026B4000065A84204D14D6924F4804444EA851499
:1026C4004460C2614A680264036230BD002C014068
:1026D400704770477047704770477047704770473E
:1026E4007047704770470000244A0368904212D034
:1026F40002F5006290420ED0B0F1804F0BD0A2F5EB
:102704009832904207D002F58062904203D002F5DD
:10271400806290421DD14A6823F070031343174A24
:10272400904212D002F5006290420ED0B0F1804F78
:102734000BD0A2F59832904207D002F58062904205
:1027440003D002F58062904203D1CA6823F4407337
:1027540013434A6923F08003134303608B68C36205
:102764000B688362054B984203D003F500639842DB
:1027740001D10B690363012343617047002C0140BD
:10278400036A70B523F010030362036A4468826924
:102794000D6822F4E64242EA05228D6823F0200304
:1027A40043EA0513104DA84203D005F50065A8427D
:1027B40014D1CD6823F0800343EA05130A4D23F0B6
:1027C4004003A84203D005F50065A84206D1D1E92B
:1027D400055624F44064354344EA85044460826128
:1027E4004A688263036270BD002C014038B590F8DA
:1027F4003C300446012B4FF0020010D00123082A7C
:1028040084F83C3084F83D003FD009D8DAB1042A7A
:102814002AD00123002084F83D3084F83C0038BDE0
:102824000C2AF6D12068FFF72DFF23680969DA69BD
:1028340042F40062DA61DA6922F48062DA61DA6908
:1028440042EA012230E02068FFF7B4FE23680969F8
:102854009A6942F008029A619A6922F004029A6124
:102864009A690A439A61D4E72068FFF789FF2368CD
:1028740009699A6942F400629A619A6922F4806251
:102884009A619A6942EA0122ECE72068FFF7C4FEE4
:1028940023680969DA6942F00802DA61DA6922F028
:1028A4000402DA61DA690A43DA61B2E710B5012495
:1028B400036A01F01F018C4023EA04030362036AE4
:1028C4008A401A43026210BD70B50D46114690F855
:1028D4003D200446022AD0B206D094F83D20012AB5
:1028E40006D111B90BB1012070BD022284F83D203C
:1028F400082D226856D01FD8002D30D0042D40D08A
:10290400012229462068FFF7D1FF23682E4A93420B
:1029140003D002F50062934203D15A6C42F40042A0
:102924005A649A68002002F00702062A1EBF1A6839
:1029340042F001021A60D7E70C2DE1D1206B234E3F
:1029440040328662224EC662224E0663FEF748FC7F
:102954000028C8D12268D36843F480530FE0606A2A
:102964001A4E343286621A4EC6621A4E0663FEF757
:1029740037FC0028B7D12268D36843F40073D360CE
:10298400BEE7A06A114E38328662114EC662114EFD
:102994000663FEF725FC0028A5D12268D36843F41A
:1029A4008063ECE7E06A094E3C328662084EC662F8
:1029B400084E0663FEF714FC002894D12268D368FD
:1029C40043F40063DBE700BF002C01403B25000813
:1029D400792500082D250008FFF776BF124B836781
:1029E400124BC367124BC0F88030124BC0F88430CE
:1029F400114BC0F88830114BC0F88C30104BC0F824
:102A04009030104BC0F894300F4BC0F898300F4BF7
:102A1400C0F89C300E4BC0F8A0300E4BC0F8A43068
:102A24000D4BC0F8A8307047D7260008D9260008F7
:102A3400E5260008E7260008DD260008DF26000852
:102A4400DB260008E1260008E3260008E926000842
:102A5400E52A0008E72A0008E92A000810B5044618
:102A6400D8B190F83D3003F0FF0253B980F83C2010
:102A7400FFF7B4FF836D0BB9094B83652046A36D43
:102A840098470223206884F83D30211DFFF72CFE6F
:102A94000123002084F83D3010BD0120FCE700BF75
:102AA400D526000830B590F83C200346012A4FF0A3
:102AB400020014D01C6883F83D006068A2680D68A9
:102AC400496820F0700022F0800228430A436060C5
:102AD400A2600020012283F83C0083F83D2030BD31
:102AE400704770477047704738B505460368C1683A
:102AF4001A69192422F440520A431A61826800694F
:102B0400D9680243686921F4B05121F00C010243F1
:102B14000A43DA605A69A96922F440720A435A6185
:102B24000D4A934214D1FFF7EFFC44436B686422CF
:102B34009B00B4FBF3F4B4FBF2F102FB11431B0161
:102B44003233B3FBF2F3286803EB0113836038BD1F
:102B5400FFF7CAFCE9E700BF00380140F8B50446B6
:102B64000E4617461D462268136836EA030301D150
:102B7400002014E06B1CF7D095B923680320DA68B1
:102B840022F4D072DA605A6922F001025A612023D9
:102B940084F8393084F83A30002384F83830F8BDAA
:102BA400FEF726FAC01B8542DDD2E6E77047704780
:102BB4007047704770477047704770472DE9F04180
:102BC4001F4690F839300446202B0D4690464ED1CE
:102BD40000294AD0002A48D090F83830012B46D03A
:102BE400012380F838300023C363212380F839306F
:102BF400FEF7FEF90646A4F82480A4F82680E38CA8
:102C04009BB263B93B46324640212046FFF7A6FFFC
:102C1400A0B9202384F8380084F839300FE0E38C1D
:102C24003246013B9BB2E384A3688021B3F5805F05
:102C340020463B4610D1FFF791FF10B10320BDE8B9
:102C4400F0812B882268C3F30803536023690BB90E
:102C54000235D4E70135D2E7FFF780FF0028EDD134
:102C6400236815F8012B5A60C9E70120E7E7022021
:102C7400E5E70000084B0364084B4364084B836496
:102C8400084BC364084B0365084B4365084B8365D5
:102C9400084BC365704700BFB52B0008B32B000871
:102CA400B92B0008B72B0008BB2B0008BD2B00086C
:102CB400BF2B0008B12B000810B5044678B390F878
:102CC400393003F0FF0253B980F83820FFF7D2FF00
:102CD400436E0BB9134B43662046636E9847242317
:102CE400226884F83930D368204623F40053D36033
:102CF400FFF7FAFE236800201A6922F490421A6151
:102D04005A6922F02A025A61DA6842F40052DA60FF
:102D14002023E06384F8393084F83A3010BD012070
:102D2400FCE700BFEB2A0008024B0A46014618687C
:102D340000F03EB80C00002070B500260C4D0D4C80
:102D4400641BA410A64209D100F088FC00260A4D99
:102D54000A4C641BA410A64205D170BD55F8043B6F
:102D640098470136EEE755F8043B98470136F2E7F9
:102D740060380008603800086038000864380008CB
:102D8400024B0146186800F06DB800BF0C0000202B
:102D9400024B0146186800F019B800BF0C0000206F
:102DA40003460244934200D1704703F8011BF9E73C
:102DB40038B502FB01F5294600F054F8044618B171
:102DC4002A460021FFF7ECFF204638BD38B50546FA
:102DD400002943D051F8043C0C1F002BB8BFE41861
:102DE40000F0CAF81E4A1368104633B963601460D1
:102DF4002846BDE8384000F0C5B8A3420AD9216886
:102E04006218934201BF1A685B68521822606360BB
:102E14000460EDE71A465B680BB1A342FAD9116866
:102E24005018A0420BD1206801445018834211600D
:102E3400DED118685B68014411605360D8E702D999
:102E44000C232B60D4E7206821188B4201BF19683A
:102E54005B680918216063605460C9E738BD00BF2E
:102E64009C020020F8B5CD1C25F0030508350C2D77
:102E740038BF0C25002D064601DBA94203D90C23DB
:102E840033600020F8BD00F077F821490A68144641
:102E94009CB9204F3B6823B92146304600F03CF8EA
:102EA40038602946304600F037F8431C23D10C2300
:102EB4003046336000F066F8E3E723685B1B17D401
:102EC4000B2B03D923601C44256004E06368A242F1
:102ED4000CBF0B605360304600F054F804F10B0053
:102EE400231D20F00700C21ACCD01B1AA350C9E737
:102EF40022466468CCE7C41C24F00304A042E3D057
:102F0400211A304600F008F80130DDD1CFE700BFC8
:102F14009C020020A002002038B50023054D044681
:102F240008462B6000F08CFB431C02D12B6803B1D4
:102F3400236038BDD00200200EB46FF0004100B50C
:102F44009CB01DAB02900690079104910848094972
:102F540053F8042B0591006802A9019300F074F85A
:102F64000022029B1A701CB05DF804EB03B070479A
:102F74000C0000200802FFFF014800F0FBBA00BF6C
:102F8400D8020020014800F0F6BA00BFD8020020A1
:102F94002DE9F0478E6882469E420C4690461F46B5
:102FA40038D88A8912F4906F32D0256809690133C0
:102FB400A5EB010965694B4405EB450505EBD575A2
:102FC4006D109D4238BF1D46530531D52946FFF784
:102FD40049FF064650B90C234FF0FF30CAF80030C1
:102FE400A38943F04003A381BDE8F0874A462169E1
:102FF40000F0D0FAA38923F4906343F08003A38103
:1030040026614E4426603E466561A5EB0905A56030
:10301400BE4200D93E4632464146206800F0C8FA16
:10302400A36822689B1B32440020A3602260DBE774
:103034002A4600F0D7FA06460028E1D15046216915
:10304400FFF7C4FEC7E700002DE9F04F98468B89CF
:1030540007461B060D4614469DB00ED50B6963B991
:103064004021FFF7FFFE2860286120B90C233B6054
:103074004FF0FF30D1E040236B61002309932023FC
:103084008DF8293030234FF00109CDF80C80DFF89A
:10309400A4818DF82A3023469A4613F8012B0AB1ED
:1030A400252AF9D1BAEB040B0BD05B4622462946FC
:1030B4003846FFF76DFF013000F0AA80099A5A44A0
:1030C40009929AF80030002B00F0A28000234FF000
:1030D400FF32CDE905230AF1010A049307938DF821
:1030E40053301A935446052214F8011B514800F03A
:1030F40043FA049AD8B9D00644BF20238DF853303C
:10310400110744BF2B238DF853309AF800302A2B33
:1031140015D0544600204FF00A0C079A214611F8A6
:10312400013B303B092B4ED9B0B1079214E0A0EB20
:10313400080309FA03F31343A2460493D2E7039B5B
:10314400191D1B680391002BBBBF5B4242F00202B6
:1031540007930793B8BF049223782E2B0CD163787E
:103164002A2B35D1039B02341A1D1B680392002BB2
:10317400B8BF4FF0FF330593DFF8C8A003225046D1
:10318400217800F0F9F940B14023A0EB0A0003FADA
:1031940000F0049B01340343049314F8011B06223A
:1031A40025488DF8281000F0E7F9002838D0234B83
:1031B4001BBB039B073323F0070308330393099BCB
:1031C4003344099367E70C4601200CFB0232A5E760
:1031D40000234FF00A0C194601340593204610F8D9
:1031E400012B303A092A03D9002BC5D00591C3E736
:1031F400044601230CFB0121F0E703AB00932A46AC
:1032040038460F4B04A9AFF30080421C0646D6D1C2
:10321400AB895B063FF52CAF09981DB0BDE8F08F74
:1032240003AB00932A463846054B04A900F07CF80A
:10323400EBE700BF2B380008353800080000000019
:10324400952F0008313800082DE9F04716469946B5
:103254008A680B6907469342B8BF1346336091F8F6
:1032640043200C46DDF820800AB101333360236823
:10327400990642BF336802333360256815F00605AA
:1032840006D104F1190AE36832689B1AAB4228DCC0
:1032940094F84320131E226818BF012392062DD4EC
:1032A4004946384604F14302C047013020D0236820
:1032B400E56803F00603042B18BF002532684FF0BD
:1032C4000006A36808BFAD1A226908BF25EAE575A0
:1032D4009342C4BF9B1AED181A34B5421AD1002088
:1032E40008E00123524649463846C047013003D11D
:1032F4004FF0FF30BDE8F0870135C4E73020E11816
:1033040081F843005A1C94F845102244023382F891
:103314004310C5E70123224649463846C0470130D9
:10332400E6D00136D9E700002DE9FF470C46277E99
:103334009146782F80469A460C9904F1430207D8A7
:10334400622F0AD8002F00F0D980582F00F0A480F3
:1033540004F1420684F842703AE0A7F16303152BA6
:10336400F6D801A050F823F0C5330008D93300087B
:103374005533000855330008553300085533000809
:10338400D933000855330008553300085533000875
:1033940055330008E734000809340008C93400082C
:1033A4005533000855330008093500085533000823
:1033B400093400085533000855330008D134000897
:1033C4000B6804F142061A1D1B680A6084F8423037
:1033D4000123A4E0256808682E0600F104030AD539
:1033E40005680B60002D03DA2D236D4284F8433009
:1033F4000A235E4819E015F0400F05680B6018BFFA
:103404002DB2EFE70B682568181D0860280601D562
:103414001D6802E06906FBD51D886F2F0CBF0823C9
:103424000A235248002184F843106668002EA8BF7E
:103434002168A660A4BF21F0040121600DB9002E0B
:103444004DD01646B5FBF3F103FB1157C75D06F8E3
:10345400017D2F46BB420D46F4D9082B0BD12368BE
:10346400DF0708D5236961689942DEBF302306F877
:10347400013C06F1FF36921B22614B462146404631
:10348400CDF800A003AAFFF7DFFE01304CD14FF0C6
:10349400FF3004B0BDE8F087344884F845700E6806
:1034A400236856F8045B1F060E6014D5D90744BF81
:1034B40043F0200323601DB9236823F02003236015
:1034C4001023AFE7236843F02003236078232848C0
:1034D40084F84530E3E75E0648BFADB2E6E716463A
:1034E400BBE70B6826681D1D60690D6035061B6807
:1034F40001D5186002E07106FBD51880002316463A
:103504002361BAE70B681A1D0A601E680021304661
:10351400626800F031F808B1801B60606368236161
:10352400002384F84330A8E73246494640462369DD
:10353400D0470130ABD023689B0713D4E068039BCA
:103544009842B8BF1846A4E701233246494640468C
:10355400D04701309BD00135E36803995B1AAB4235
:10356400F2DCEBE7002504F11906F5E73C38000826
:103574004D38000870477047034610B5C9B202447D
:103584009342184601D1002003E0047801338C42B1
:10359400F6D110BD0A44914200F1FF3300D17047C7
:1035A40010B511F8014B914203F8014FF9D110BD48
:1035B400884210B501EB020402D98442234607D89D
:1035C400431EA14208D011F8012B03F8012FF8E79C
:1035D400014602448A4200D110BD13F8014D02F89D
:1035E400014DF7E7F8B5074614460E4621B91146D2
:1035F400BDE8F840FFF736BC22B9FFF7E7FB2546E4
:103604002846F8BD00F014F8A0420FD221463846EF
:10361400FFF728FC05460028F2D031462246FFF782
:10362400B9FF31463846FFF7D1FBE9E73546E7E70E
:1036340051F8043C181F002BBCBF0B58C01870472E
:10364400044A05491368002B08BF0B461844106050
:1036540018467047A4020020E0020020F8B500BF1D
:10366400F8BC08BC9E467047F8B500BFF8BC08BC5F
:043674009E467047B7
:103678005B424B465D2053797374656D20696E69B2
:103688007420636F6D706C6574652E20537461725D
:1036980074696E67206669726D776172652E0A00BB
:1036A8005B424B465D2052656164206877626974AD
:1036B800733A205B25645D5B25645D5B25645D5B17
:1036C80025645D5B25645D0A0000000000000000C1
:1036D80000010203040607080900000000010203B4
:1036E800045B424B465D5B25735D205468726F77BF
:1036F8006E2061742025733A256C643A202D3E2093
:1037080025730A005741524E494E470046415441DD
:103718004C204552524F52005243434F5343204886
:10372800414C20455252007372632F7379735F6363
:103738006C6F636B2E6300524343434C4B204841EC
:103748004C20455252005B424B465D2053797374BE
:10375800656D2048572D496E697420636F6D706CD4
:103768006574652E0A004932433120494E49542078
:103778004641494C007372632F7379735F693263F2
:103788002E6300554152543120494E495420464138
:10379800494C007372632F7379735F757361727428
:1037A8002E630054494D20444D4120494E49542030
:1037B800455252007372632F7379735F74696D6534
:1037C800722E630054494D20494E495420455252A7
:1037D8000054494D204D435320494E4954204552E9
:1037E800520054494D204F434320494E49542045E7
:1037F8005252004E50333220494E495420455252BD
:10380800007372632F7379735F7773323831322E96
:10381800630002030405060708090A0B0C0D0E0FC6
:10382800101000232D302B2000686C4C0065666753
:10383800454647003031323334353637383941421E
:1038480043444546003031323334353637383961F0
:08385800626364656600000074
:043860000902000851
:04386400E501000872
:103868000024F400010000001000000010000020F7
:103878000000000000000000000000000000000040
:103888000000000000000000000000000000000030
:103898000000000000000000000000000000000020
:1038A8000000000000000000000000000000000010
:1038B8000000000000000000000000000000000000
:1038C80000000000000000000000000000000000F0
:0400000508000D0DD5
:00000001FF
