:020000040800F2
:10000000FFFF0020C50B0008290400082B0400088E
:100010002D0400082F04000831040008000000002F
:100020000000000000000000000000003304000891
:1000300035040008000000003704000839040008F7
:100040000D0C00080D0C00080D0C00080D0C00082C
:100050000D0C00080D0C00080D0C00080D0C00081C
:100060000D0C00080D0C00080D0C00080D0C00080C
:100070000D0C00083D0400080D0C00080D0C0008D4
:100080000D0C00080D0C00080D0C00080D0C0008EC
:100090000D0C00080D0C00080D0C00080D0C0008DC
:1000A0000D0C00080D0C00080D0C00080D0C0008CC
:1000B0000D0C00080D0C00080D0C00080D0C0008BC
:1000C0000D0C00080D0C00080D0C00080D0C0008AC
:1000D0000D0C00080D0C00080D0C00080D0C00089C
:1000E0000D0C00080D0C00080D0C00080D0C00088C
:1000F0000D0C00080D0C00080D0C00080D0C00087C
:100100000D0C00080D0C00080D0C00080D0C00086B
:100110000D0C00080D0C00080D0C00080D0C00085B
:100120000D0C00080D0C00080D0C00080D0C00084B
:1001300000000000000000000000000000000000BF
:1001400000000000000000000000000000000000AF
:10015000000000000000000000000000000000009F
:10016000000000000000000000000000000000008F
:10017000000000000000000000000000000000007F
:10018000000000000000000000000000000000006F
:10019000000000000000000000000000000000005F
:1001A000000000000000000000000000000000004F
:1001B000000000000000000000000000000000003F
:1001C000000000000000000000000000000000002F
:1001D000000000000000000000000000000000001F
:0401E0005FF8E0F1F3
:1001E400044B05481B1A062B02D9044B03B11847CC
:1001F400704700BF73000020700000200000000062
:1002040005490648091A891001EBD171491002D039
:10021400034B03B1184770477000002070000020A2
:100224000000000010B5064C237843B9FFF7D8FF4F
:10023400044B13B10448AFF300800123237010BDB5
:1002440070000020000000000432000808B5084BCC
:100254001BB108480849AFF300800848036813B984
:10026400BDE80840CCE7064B002BF9D09847F7E7E8
:100274000000000004320008740000207000002018
:1002840000000000F0B5414D87B000F0F3FD00F030
:10029400EBF800F021F900F07BFC00F0AFF900F07E
:1002A40099FA00F013FB00F0C3FB00F0DBF900F057
:1002B40019FA00F049FC00F0E1F935492F220A232C
:1002C400286802F06DFA00F035FB282002F050FB9C
:1002D400304B31491B780446C3F380020092C3F3C8
:1002E400C0020192C3F30012029203F00102C3F3AD
:1002F400400302F00DFC2146C2B20A23286802F032
:100304004FFA204602F03CFB0024FF23234D8DF8D6
:1003140014308DF815408DF816400599286800F0C2
:100324006DFD28681E4D00F0DAFC1E4E286821463B
:10033400224600F0AEFC28680121224600F0A9FC08
:1003440030682146224600F0A4FC30680121224690
:1003540000F09FFC0134E4B2642000F0AFFDE60835
:1003640004F0070702D0072F08BF0024B6FA86F16D
:1003740028684909002200F083FC0122BA40286859
:100384003146D2B200F07CFCE4E700BFBC0200209E
:100394002E320008C00200205E320008CC02002089
:1003A400AC020020B00200200A4B82B09A6942F0ED
:1003B40001029A619A6902F001020092009ADA69D4
:1003C40042F08052DA61DB6903F080530193019BB0
:1003D40002B07047001002400F4B1A6842F001024D
:1003E4001A6059680D4A0A405A601A6822F08472E9
:1003F40022F480321A601A6822F480221A605A6841
:1004040022F4FE025A604FF41F029A60044B4FF02C
:1004140000629A60704700BF001002400000FFF8BD
:1004240000ED00E07047FEE7FEE7FEE7FEE77047F9
:100434007047704700F030BD014B186800F03EBEB5
:10044400C4020020022808B508D1054B1A78012AF5
:1004540003D10448102101F05DF8FEE708BD00BF98
:100464008C0000200008014010B54FF4803390B098
:10047400012207934FF4003102240E9306A84FF48F
:10048400E013069208910A920D940F9301F078FC00
:1004940028B1204613210D4A0D4BFFF7D3FF0F233C
:1004A400022401934FF48062002301A821460294A0
:1004B40003930492059301F047FE28B120461C21C2
:1004C400024A044BFFF7BEFF10B010BD9F32000874
:1004D400AF320008BE3200082DE9F043102789B07E
:1004E400414C3A460DEB0700002102F051FAA36992
:1004F400DFF8049143F00403A361A369012603F028
:1005040004034FF00208009348460DEB0701002551
:10051400009B04970596CDF81C8000F0ABFE4FF4C9
:10052400807348460DEB0701049305950695CDF8B5
:100534001C8000F09FFE3A4629460DEB070002F0AE
:1005440027FAA36909F5806943F00803A361A36945
:10055400484603F008030193019B0DEB0701272391
:1005640004930596CDF81C8000F084FE4FF440738C
:1005740048460DEB0701049305950695CDF81C80BC
:1005840000F078FE3A4629460DEB070002F000FA27
:10059400A3690DEB07013B43A361A36913483B40E7
:1005A4000293029B41F670730796049300F062FE77
:1005B40029463A460DEB070002F0EAF9A3690C4814
:1005C40043F02003A361A3690DEB070103F02003AB
:1005D4000393039B04230493079600F04BFE054BFF
:1005E4001E7009B0BDE8F083001002400010014005
:1005F400001401408C0000200008014038B5174C5D
:10060400012120460A4600F085FF154D20460221AF
:10061400012200F07FFF20460421012200F07AFF2E
:1006240028461021012200F075FFC82000F046FC86
:1006340020460121002200F06DFF20460221002205
:1006440000F068FF20460421002200F063FF2846E2
:10065400BDE838401021002200F05CBF000C0140CE
:1006640000080140034B044918681F220A2302F0C2
:1006740097B800BFBC020020CD32000870470000CC
:100684000C4B73B51B780E46012B15460ED1104644
:1006940002F06EF904460A230093074B31461868AA
:1006A40022462B4601F0F6F9204600E0002002B075
:1006B40070BD00BF96000020B402002013B514469C
:1006C400064A1278012A07D10A220092044A1068C5
:1006D4001A46234601F010F902B010BD960000201E
:1006E400B402002010B5082002F042F9164A106046
:1006F400164A0260164A426000F0BAFA082002F074
:1007040037F9144B04461860082002F031F9124BF3
:100714000122186020236370FF232371E371A37007
:1007240063710371C371837043710C4B00211A70A0
:100734002270E170A1710A4B212402704470C170CF
:1007440081711A7010BD00BF90000020C10600081E
:1007540085060008AC020020B002002095000020AD
:1007640094000020044A0548D369C02123F40013EF
:10077400D36100F053BE00BF00100240000C0140E2
:1007840010B5124C86B0102202A8002102F000F924
:10079400A3690F4843F00803A361A36902A903F006
:1007A40008030093009BC0230293122303930323A3
:1007B400059300F05FFDE36943F40013E361E3692B
:1007C40003F400130193019B06B010BD0010024016
:1007D400000C01401248134B10B5134C1860134B16
:1007E4004FF4804280E8180000238360C3604361B3
:1007F400C36103620E4B0124C3670E4B8461026123
:10080400C0F8803000F0A6FF38B1BDE810400220E7
:100814001F21094A094BFFF715BE094B1C7010BD77
:1008240098000020B4020020A0860100005400407B
:100834008507000869070008ED320008FB3200084C
:1008440096000020044A054893694FF4C06123F4DC
:100854008043936100F0E2BD0010024000080140B3
:1008640010B586B002A80021102202F091F8154BB1
:10087400154C9A69204642F480429A619A6902A909
:1008840002F480420092009A9A6942F004029A614A
:100894009B6903F004030193019B4FF400730293DB
:1008A400022303930323059300F0E4FC4FF48063D5
:1008B40002932046002302A90393049300F0DAFC78
:1008C40006B010BD00100240000801401148124B50
:1008D40010B51860114B4FF4E13480E81800002380
:1008E4008360C36003618361C3610D4B0C22436663
:1008F4000C4B4261836601F0D3FF38B1BDE8104070
:1009040002201D21084A094BFFF79CBD084B012218
:100914001A7010BD1C010020BC02002000380140E8
:1009240065080008490800080A3300081A3300085B
:10093400B802002070B54FF48071134800F0E4FD54
:10094400124E05464FF48071304600F0DDFD4FF441
:1009540000710446304600F0D7FD800040EA4404AC
:100964004FF48051304600F0CFFD2C43E4B244EA0A
:10097400C000C4B24021064800F0C6FD054B44EA5D
:100984000010187070BD00BF00080140000C014049
:1009940000100140C002002010B50446064A006B56
:1009A400D36923F00203D36100F048FB206ABDE859
:1009B400104000F043BB00BF00100240174B37B596
:1009C400DA69174C42F00202DA61DB69054603F08A
:1009D40002032068019313498022019B102380E8BD
:1009E4000A00C26000234FF4807283600261836155
:1009F4004FF480624FF480534261C36100F0D6FA31
:100A040028B102204E21084A084BFFF71BFD23683A
:100A14002B635D622B6203B030BD00BF0010024047
:100A2400C4020020300002402A3300083A33000890
:100A340030B500248FB021461C2207A801940294EB
:100A440001F0A6FF2146102203A801F0A1FF2E4ABF
:100A54002E4B2F481A602F4B2F4D80E818005D2332
:100A6400C3602E4B846083652D4B046184612860D0
:100A7400C36501F0E5FD2C4628B102202321294A53
:100A8400294BFFF7DFFC0023206801A9019302939F
:100A940001F0FAFD28B102202921224A234BFFF755
:100AA400D1FC602307932068002307A9042208933C
:100AB40009930B9301F020FD28B102203121194A3A
:100AC4001B4BFFF7BFFC1B4B1B489A6903A942F061
:100AD40010029A619B6903F010030093009B80232A
:100AE4000393022304930323069300F0C3FB134AE6
:100AF400536843F0E06343F440635360104B0122B6
:100B04001A700FB030BD00BF8C010020C402002059
:100B1400D001002000040040C8020020C1090008E0
:100B24009D0900082A3300084B3300085833000895
:100B34006933000800100240001001400000014029
:100B4400880100200020704708B50B480B4B186043
:100B54000B23038000230372094B436100F0A2F8C6
:100B640028B102201521074A074BFFF76BFC074BFE
:100B740001221A7008BD00BF7C020020CC020020B4
:100B8400490B00087A3300088B33000894020020D4
:100B94000A4B07B55A69012142F001025A615B69A7
:100BA400002203F0010301930D20019B00F0AAF938
:100BB4000D2000F0D7F903B05DF804FB00100240EB
:100BC400002103E00B4B5B58435004310A480B4BA4
:100BD40042189A42F6D30A4A02E0002342F8043B40
:100BE400084B9A42F9D3FFF7F7FB01F09BFEFFF79E
:100BF40049FB7047D8330008000000207000002033
:100C040070000020D8020020FEE7000013B58DF824
:100C14000530064B49008DF804201C6801F0FE01E4
:100C2400022201ABA04702B010BD00BF9802002011
:100C3400034611B1012905D070475978007806227E
:100C44009B7803E0597800785B790722FFF7DEBFD1
:100C5400034611B1012905D0704759780078022262
:100C64001B7903E059780078DB790322FFF7CEBFC4
:100C7400024B03C883E80300704700BF98020020BA
:100C840011B1012902D07047027100E0C271FFF76F
:100C9400DFBF11B1012902D07047827000E04271B8
:100CA400FFF7C6BF38B5058804460DB9FF2014E028
:100CB4002846032101F02CFE60600028F6D018209D
:100CC40068430221303001F023FEE0600028EDD0BB
:100CD400606900280CBFFF20002040B238BD2DE918
:100CE400F0414668002E00F08580C468002C00F0B6
:100CF4008180027C02F0FF03002AFAD1027A012AE1
:100D040001D0194669E0058818226A4399B2303245
:100D1400914203F101030CD2002224F81120F2E7DE
:100D240000229918013289B20025302A24F8115082
:100D3400F7D10188012301EB4101C900303103746B
:100D440089B2436920469847002054E0C2F1070C59
:100D54005FFA8CFC48FA0CFC1CF0010F03EB020553
:100D640002F1010214BF4FF0320C4FF01C0CADB273
:100D7400082A24F815C0E9D103F10805ADB2013AF7
:100D8400D2B24EFA02F818F0010F05F1010C14BFAB
:100D94004FF032084FF01C0824F815801FFA8CF528
:100DA400002AECD103F11005ADB20822013AD2B207
:100DB40047FA02FC1CF0010F05F1010E14BF4FF0BD
:100DC400320C4FF01C0C24F815C01FFA8EF5002AC3
:100DD400ECD1183301319BB289B202888A429FD97F
:100DE40001EB4105721992F80180977816F805E035
:100DF4000022ABE7FF2040B2BDE8F08173B50023C9
:100E0400019102885C1C9BB29A420BD902AA32F867
:100E1400046D416803EB43039278CD18CE52AA7057
:100E24002346EEE7002002B070BD000038B50E4B3B
:100E3400054618784FF47A73B3FBF0F30B4A106845
:100E4400B0FBF3F000F09CF8044658B90F2D09D814
:100E54004FF0FF302946224600F054F8044B204658
:100E64001D6038BD012038BD0800002000000020AE
:100E740004000020074A08B51368032043F0100358
:100E8400136000F02DF80F20FFF7D0FFFFF78CFA66
:100E9400002008BD00200240034A04491368097871
:100EA4000B441360704700BFD002002008000020EC
:100EB400014B1868704700BFD002002038B50446C3
:100EC400FFF7F6FF0546631C1EBF044B1B78E418AE
:100ED400FFF7EEFF401BA042FAD338BD0800002004
:100EE400074A00F00700D36823F4E0631B041B0CDB
:100EF40043F0BF6343F4003343EA0023D3607047F5
:100F040000ED00E0154B70B5DB68C3F30223C3F1B9
:100F140007051C1D042D28BF0425062C8CBF033B8C
:100F24000023012404FA03F6AC40013C013E2140B5
:100F340099403240002842EA01024FEA0212A9BF56
:100F440000F16040064BD2B200F56140BBBF00F037
:100F54000F00D2B280F800231A5470BD00ED00E0F7
:100F640014ED00E00028A1BF4109012300F01F0097
:100F7400024AA4BF834042F82130704700E100E0F8
:100F84000138B0F1807F3FBF064B074AF02158601B
:100F94003FBF82F8231000200722986034BF1A60F4
:100FA4000120704710E000E000ED00E010B50028DB
:100FB40039D01E4B01681424994297BF1C4A1D4B1B
:100FC4005218B2FBF4F287BF5B18B3FBF4F3920040
:100FD40002648468426888BF9B0044EA0204C268D1
:100FE40088BF036444EA0204026988BF124B44EADE
:100FF4000204426998BFA3F2074314438269C3639E
:101004000B681443C26923F47F53224323F0300353
:1010140013430B6001220023836380F8212080F8AE
:101024002030184610BD012010BD00BF0704024047
:10103400F8FFFDBFF8FBFDBF0004024010B5002817
:101044002FD0036814241A6822F001021A600022C7
:101054001A605A609A60DA60134A934295BF134942
:10106400134AC918D21897BFB1FBF4F1B2FBF4F2DA
:101074008900104B83BF92000F4B02640164C36369
:10108400016CC26B01238B40536000238362C362F3
:1010940003634363836380F8213080F8203018466B
:1010A40010BD012010BD00BF07040240F8FFFDBFC2
:1010B400F8FBFDBF000002400004024070B5C66B9F
:1010C400026C34680425036895402542196851D0A0
:1010D4004D074FD51A6896065EBF1A6822F00402BF
:1010E4001A60604A934219D902F5627293420DD094
:1010F400143293420CD0143293420BD014329342E4
:101104000CBF4FF480434FF4802305E0042303E035
:10111400402301E04FF48063534A28E053498B4253
:1011240015D014318B4214D014318B4213D01431A6
:101134008B4213D014318B4213D014318B4213D011
:1011440093420CBF4FF080634FF480230EE00423DE
:101154000CE040230AE04FF4806307E04FF480433F
:1011640004E04FF4802301E04FF48003404A5360CD
:10117400C36A71E002259540254258D08D0756D5A3
:101184001A6894065FBF1A6822F00A021A600122E4
:1011940058BF80F82120334A934219D902F562726C
:1011A40093420DD0143293420CD0143293420BD09C
:1011B400143293420CBF4FF400534FF4003305E054
:1011C400022303E0202301E04FF40073264A28E0C1
:1011D40026498B4215D014318B4214D014318B42E2
:1011E40013D014318B4213D014318B4213D01431E9
:1011F4008B4213D093420CBF4FF000734FF4003373
:101204000EE002230CE020230AE04FF4007307E011
:101214004FF4005304E04FF4003301E04FF40013A3
:10122400134A5360002380F82030836A14E00825B1
:101234009540254214D0090712D5196821F00E01F2
:101244001960012303FA02F27260836380F821308B
:10125400002380F82030036B13B1BDE870401847B9
:1012640070BD00BF8000024000040240080002403C
:10127400000002400023F7B51D460C6834FA05F25D
:1012840000F0C0800122AA401440944240F0B8808B
:101294004A68122A2BD00ED8022A25D004D84AB381
:1012A400012A30D1CB682EE0032A1BD0112A2AD17F
:1012B400CB68043327E0544EB2421BD006D8A6F5BF
:1012C4008016B24216D006F5803608E04F4EB24280
:1012D40010D006F58036B2420CD0A6F58016B24284
:1012E40011D107E000230EE0CB6808330BE0CB6894
:1012F4000C3308E08B682BB1012B0CBF04614461F3
:10130400082300E00423FF2C97BF8646A5F10807B5
:101314000668AF0084BF4668BF004FF00F0202FAB0
:1013240007FC26EA0C0603FA07F746EA070688BF15
:1013340000F1040ECEF800604F68FE0060D5344E14
:1013440005F0030CD6F818E04FEA8C0C4EF0010EB1
:10135400C6F818E0B66902FA0CF206F00106019626
:10136400019E25F0030606F1804606F58036D6F880
:1013740008E02EEA020E274A904216D002F5806257
:10138400904214D002F58062904212D002F580623D
:10139400904210D002F5806290420ED002F5806235
:1013A40090420CBF0522062208E0002206E001223A
:1013B40004E0022202E0032200E0042202FA0CF21A
:1013C40042EA0E02B260144A17F4803F166814BF52
:1013D4002643A6431660566817F4003F14BF2643FD
:1013E400A6435660966817F4801F14BF2643A6438D
:1013F4009660D668BF024CBF344326EA0404D46026
:1014040001353AE703B0F0BD0000211000003110AF
:10141400001002400008014000040140F0B5002221
:1014240031FA02F368D0012303FA02F60E4061D0C8
:1014340022F0030404F1804404F5803402F003052F
:10144400DFF8C0C0D4F808E0AD000F27AF40604516
:1014540007EA0E0E15D00CF5806C604518D0274BAA
:10146400984210D003F5806398420ED003F5806350
:1014740098420CD003F5806398420CBF05230623E1
:1014840006E0002304E0022302E0032300E0042337
:10149400AB409E456FEA060510D1A36823EA07070F
:1014A400174BA7601C682C401C605C682C405C6077
:1014B4009C682C409C60DC682C40DC60FF2E95BF4F
:1014C4000746A2F108060368436894BF9600B60075
:1014D4004FF00F0404FA06F423EA04034FF0040463
:1014E40004FA06F443EA040388BF071D3B60C3689B
:1014F4001D40C560013293E7F0BD00BF00100140FC
:1015040000040140000801408368194214BF01200F
:101514000020704702B909040161704770477047A1
:1015240070477047704770477047704770477047FF
:101534007047016800224B6913F480631FBF6FF486
:1015440080634B61202302631FBF80F83D3080F825
:101554003E20036C80F83C201DBF43F00403036469
:101564000120184670472DE9F84304460E461746F5
:101574009946C1F307482568B8F1010F0CBF6869A3
:10158400A869C04380B2304214BF0120002070B368
:101594006B695A0511D52B68202243F400732B6024
:1015A4006FF480636B610023236384F83D2084F827
:1015B4003E30226C42F0040213E07B1CDBD0FFF7C8
:1015C40077FCC9EB0000B84201D8002FD3D1002327
:1015D4002022236384F83D2084F83E30226C42F0BC
:1015E4002002226484F83C300120BDE8F883BDE881
:1015F400F8832DE9F84304460E4690461F46089D9D
:10160400C1F307492368B9F1010F0CBF5869986900
:10161400C04380B230420CBF01230023434518D19C
:101624007B1CEFD0FFF744FC401BB84201D8002FCD
:10163400E8D100232022236384F83D2084F83E303F
:10164400226C84F83C3042F0200222640120BDE880
:10165400F8830020BDE8F88370B504460D461646AD
:1016640023685B691B061AD42046FFF762FFC0B9E2
:101674006A1CF5D0FFF71CFC801BA84201D8002D82
:10168400EED100232022236384F83D2084F83E30E9
:10169400226C84F83C3042F02002226401E00020F5
:1016A40070BD012070BD70B504460D461646236812
:1016B4005B695B071AD42046FFF73BFFC0B96A1C7D
:1016C400F5D0FFF7F5FB801BA84201D8002DEED121
:1016D40000232022236384F83D2084F83E30226CCA
:1016E40084F83C3042F02002226401E0002070BD06
:1016F400012070BD70B504460D4616462068436946
:1017040013F0400323D14269D2060AD56FF01002C8
:1017140042612022236384F83D2084F83E30226C09
:1017240010E0FFF7C5FB801BA84201D8002DE5D1CE
:1017340000232022236384F83D2084F83E30226C69
:1017440042F02002226484F83C30012070BD002065
:1017540070BD000070B5044608B9012070BD90F852
:101764003D3003F0FF02E3B9544B80F83C2043655D
:10177400534B8365534BC365534B0366534B4366CB
:10178400534B8366534BC366534B0367534B4367B7
:10179400534B8367C36F0BB9524BC367E36F204648
:1017A40098472268242384F83D30136823F001030A
:1017B400136000F063FD63684B4A93420FD84B4AB1
:1017C4009042CAD94A492268B0FBF1F1556825F024
:1017D4003F050D435560166A26F03F0615E0454A5D
:1017E4009042BAD942492268B0FBF1F14FF49675A0
:1017F40056684D4326F03F060E434FF47A71B5FB0D
:10180400F1F15660166A26F03F0601313143116248
:10181400D169354D21F44F41AB4221F0FF0100F174
:10182400FF3009D85B00B0FBF3F0431CC3F30B0398
:10183400042B38BF042318E0A56855B903EB430310
:10184400B0FBF3F0431CC3F30B036BB143F400434D
:101854000BE019256B43B0FBF3F0431CC3F30B03FC
:1018640013B143F4404300E001230B43D3611368F5
:10187400206AE16923F0C00301430B4313609168BC
:101884002369E068184321F4034323F0FF0303436F
:101894009360D368A069616923F0FF0301430B439C
:1018A400D3601368002043F00103136020232064F5
:1018B40084F83D30206384F83E0070BD2315000891
:1018C4002515000827150008291500082D150008FE
:1018D4002F150008311500083315000835150008C8
:1018E4002B15000821150008A08601007F841E0026
:1018F40040420F00FF083D002DE9FF4104461F460A
:101904000D469046FFF7D4FA94F83D300646202B56
:1019140001D00225B1E000905A4920460122192342
:10192400FFF767FE0028F4D194F83C30012BF0D087
:10193400012384F83C3023681A68D2075EBF1A6812
:1019440042F001021A601A6822F400621A6021222D
:1019540084F83D20102284F83E200022226467850A
:10196400628DC4F824802285474AE262E26A082A2A
:1019740007D0012A05D012F5803F02D0226B122A2B
:1019840003D11A6842F480721A60009620464FF020
:10199400011100220A9BFFF72CFE00286CD1236959
:1019A4002268B3F5804F03D105F0FE05156110E000
:1019B40005F44073DB1143F0F0031361204633490F
:1019C4000A9A3346FFF7CFFD002855D12368EDB2BC
:1019D4001D6120462E490A9A3346FFF7C4FD054689
:1019E400002849D1236803905A6903929B690393A1
:1019F400039B238D002B32D020460A993246FFF7F1
:101A04002BFE18BB636A20681A4612F8011B016199
:101A14006262628D013A92B26285228D4769511EDB
:101A240089B27F0721850AD549B15978023301610A
:101A34006362638D023A013B9BB263852285204633
:101A44000A993246FFF72FFE0028D2D0236C042BCC
:101A540012D12268136843F4007313600CE0216808
:101A64000A6842F400720A60202284F83D2084F857
:101A74003C3084F83E3000E00125284604B0BDE83F
:101A8400F08100BF020010000000FFFF0800010009
:101A9400020001002DE9F043044689B098460F4640
:101AA4009146109EFFF704FA94F83D300546202B2A
:101AB40001D0022760E100909849204601221923B1
:101AC400FFF797FD0028F4D194F83C30012BF0D0B7
:101AD400012384F83C3023681A68D0075EBF1A6873
:101AE40042F001021A601A6822F400621A6022228B
:101AF40084F83D20102284F83E2000222264A4F8B9
:101B04002A80628DC4F824902285854AE262E26AC2
:101B14001968082A41F48061196007D0012A05D0A8
:101B240012F5803F02D0226B112A03D11A6842F4C5
:101B340080721A60009520464FF00111002233464E
:101B4400FFF757FD002840F016812369B3F5804F55
:101B5400236804D147F00107FFB21F6135E007F4A1
:101B640040784FEAD81848F0F0021A6120466D49CF
:101B740032462B46FFF7F7FC002840F0FC80236830
:101B8400FFB21F613246204667492B46FFF7EBFC44
:101B94000246002840F0EF802368079059692046E8
:101BA4000791996907910799196841F4807119603F
:101BB40000954FF001113346FFF71BFD002840F05C
:101BC400DA80226848F0F103136120465649324610
:101BD4002B46FFF7C8FC0746002840F0CC80228D36
:101BE400236852B903975A6903929A690392039A34
:101BF4001A6842F400721A6049E0012A0FD11A6887
:101C040022F480621A6072B6236804975A690492B7
:101C14009A690492049A1A6842F4007210E0022A43
:101C24001A6810D142F400621A6072B623680597EC
:101C34005A6905929A690592059A1A6822F4806293
:101C44001A6062B623E042F480621A6006975A6909
:101C540006929B690693069B19E0032B68D8012B17
:101C640019D1204631462A46FFF744FD002840F0AA
:101C740082802268636A12691A70636A013363623C
:101C8400238D013B2385638D013B9BB26385238DAB
:101C9400002BE2D167E0022B0095204623494FF048
:101CA4000002334605D1FFF7A4FC002863D172B6C5
:101CB40020E0FFF79EFC024600285CD121680B68F7
:101CC40023F480630B6072B62168636A0969204655
:101CD4001970636A009501336362238D1349013BD4
:101CE4002385638D013B9BB263853346FFF781FCFB
:101CF400002840D123681A6842F400721A601B69F4
:101D0400626A1370636A01336362238D013B238526
:101D1400638D013B9BB2638562B6AAE702001000A3
:101D24000000FFFF080001000200010004000100A0
:101D3400204631462A46FFF7DDFCE0B92268636A93
:101D440012691A70626A531C6362238D013B2385F6
:101D5400638D013B9BB2638523685969490796D516
:101D64001B69537089E7202284F83D2084F83C30B5
:101D740084F83E3000E00127384609B0BDE8F0831E
:101D8400F7B50546002800F095810368DB0703D406
:101D94002B689F074ED490E0974C636803F00C03C4
:101DA400042B07D0636803F00C03082B09D1636884
:101DB400DE0306D523689C03EAD56B68002BE7D1C4
:101DC40078E16B68B3F5803F13D05BB9236823F4E3
:101DD40080332360236823F480232360FFF768F8AB
:101DE400064623E0B3F5A02F236806D143F48023ED
:101DF4002360236843F4803305E023F480332360B5
:101E0400236823F480232360FFF752F806462368EF
:101E14009803BDD4FFF74CF8801B6428F7D903203E
:101E240049E1FFF745F8801B6428F8D82368990333
:101E3400F7D4ADE7704C636813F00C0F07D06368F8
:101E440003F00C03082B11D16368DA030ED4236862
:101E54009B0703D52B69012B40F02C8123686A6909
:101E640023F0F80343EAC203236026E02A69634BA4
:101E7400B2B101221A60FFF71BF8064623685E4AD6
:101E84009F0705D4FFF714F8801B0228F6D9C6E78C
:101E94001368696923F0F80343EAC10313600CE093
:101EA4001A60FFF705F806462368980705D5FEF77C
:101EB400FFFF801B0228F7D9B1E72B68190703D469
:101EC4002B685A072DD492E0AA694B4C4C4BDAB1DB
:101ED40001221A60FEF7ECFF0646636A9B0705D4ED
:101EE400FEF7E6FF801B0228F7D998E7454B4FF42D
:101EF400FA521B68B3FBF2F3019300BF019B5A1E15
:101F04000192002BF9D1DBE71A60FEF7D1FF0646F8
:101F1400636A9F07D4D5FEF7CBFF801B0228F7D94D
:101F24007DE7354CE369D8005FBFE369012643F0E0
:101F34008053E36157BFE369002603F080530093A5
:101F440058BF009B304B1A68D10503D5EB68012BB1
:101F540011D123E01A6842F480721A60FEF7A8FFD8
:101F64000746294B1B68DA05F0D4FEF7A1FFC01B16
:101F74006428F6D953E75BB9236A23F0010323628B
:101F8400236A23F004032362FEF792FF074626E048
:101F9400052B236A06D143F004032362236A43F02A
:101FA400010305E023F001032362236A23F0040301
:101FB4002362FEF77DFF0746236A9B0712D4FEF7D0
:101FC40077FF41F28833C01B9842F5D927E7FEF723
:101FD4006FFF41F28833C01B98423FF620AF236A5B
:101FE4009807F4D41EB1E36923F08053E361E869F0
:101FF40060B900205FE000BF0010024000004242D0
:102004008004424200000020007000402B4B5A68BC
:102014001C4602F00C02082A3DD0294E0023022857
:1020240033602CD1FEF744FF07462268234B91010D
:1020340005D5FEF73DFFC01B0228F6D9EFE62F6A4F
:10204400B7F5803F01BF596821F40030A968014306
:1020540008BF59606A6A63683A4323F474131343EC
:10206400636001233360FEF723FF054623689A016A
:10207400BFD4FEF71DFF401B0228F7D9CFE6FEF7B9
:1020840017FF054623689B01B3D5FEF711FF401BDC
:102094000228F7D9C3E601280DD058682B6A00F44A
:1020A40080329A4206D16B6A00F47010C01A18BFCD
:1020B400012000E0012003B0F0BD00BF0010024089
:1020C400600042421B4B70B503F110052E4686B0EA
:1020D40002AC224618685968083303C2AB4214465E
:1020E400F7D133881449ADF804304B6803F00C027F
:1020F400042A1BD0082A01D0104818E0C3F38342F5
:1021040006A8DB03024412F8100C41BF0C4B4A68CA
:102114005843C2F3404343BF06AA9B1813F8143C28
:10212400084B4CBFB0FBF3F0584300E0044806B042
:1021340070BD00BF1C3200080010024000127A007B
:102144000024F40000093D00F8B50D46044608B922
:102154000120F8BD444A136803F00703994217D8D5
:10216400226890071FD5414B12F0040F1EBF596817
:1021740041F4E0615960110742BF596841F460516C
:102184005960596821F0F000A168014359600AE0E0
:10219400136823F007030B431360136803F007036A
:1021A4008B42D5D1DCE7D20706D42F4A136803F05B
:1021B40007039D4228D331E063682C4E012B32681B
:1021C40002D112F4003F06E0022B02D112F0007F8C
:1021D40001E012F0020FBBD0726822F00302134335
:1021E4007360FEF765FE07467368626803F00C03CC
:1021F400B3EB820FD9D0FEF75BFE41F28833C01BEC
:102204009842F1D90320F8BD136823F007032B4348
:102214001360136803F00703AB4299D12168134D8F
:1022240011F0040F05D06B6823F4E062E3681343F4
:102234006B600B0741BF6B68226923F4605343EA68
:10224400C20348BF6B60FFF73DFF6B68084AC3F3E6
:102254000313D35CD840074B1860074B1868FEF78C
:10226400E5FD0020F8BD00BF002002400010024040
:10227400873200080000002004000020044B054AB7
:102284005B68C3F30223D35C034A1068D8407047E9
:10229400001002409732000800000020044B054A59
:1022A4005B68C3F3C223D35C034A1068D840704709
:1022B4000010024097320008000000207047704769
:1022C4007047704770477047704770477047704752
:1022D40070470000036A70B523F001030362036AC8
:1022E4004268856925F073040D68254323F00204D0
:1022F4008B6823430E4CA04202D00E4EB04210D144
:10230400CE6823F008033343A04223F0040302D031
:10231400084CA04205D18E694C6922F440723443C2
:10232400224342604A6885614263036270BD00BF14
:10233400002C014000340140036A30B523F480735B
:102344000362036A4268C4690D6824F073042C4371
:102354008D6823F4007343EA0523114DA84203D08A
:1023640005F50065A84215D1CD6823F4006343EA5E
:1023740005230B4D23F48063A84203D005F50065C3
:10238400A84207D14D6922F4405242EA05128D69F0
:1023940042EA051242604A68C461C263036230BD06
:1023A400002C0140036A30B523F480530362036AAE
:1023B4004468C2690D6822F4E64242EA05228D6847
:1023C40023F4005343EA0533084DA84203D005F52E
:1023D4000065A84204D14D6924F4804444EA85147C
:1023E4004460C2614A680264036230BD002C01404B
:1023F400244A0368904212D002F5006290420ED043
:10240400B0F1804F0BD0A2F59832904207D002F57C
:102414008062904203D002F5806290421DD14A68E6
:1024240023F070031343174A904212D002F500625E
:1024340090420ED0B0F1804F0BD0A2F5983290426A
:1024440007D002F58062904203D002F58062904288
:1024540003D1CA6823F4407313434A6923F0800309
:10246400134303608B68C3620B688362054B984215
:1024740003D003F50063984201D10B690363012380
:1024840043617047002C0140036A30B523F0100308
:102494000362036A426884690D6824F4E64444EAEA
:1024A40005248D6823F0200343EA0513114DA84247
:1024B40003D005F50065A84215D1CD6823F080034B
:1024C40043EA05130B4D23F04003A84203D005F55E
:1024D4000065A84207D14D6922F4406242EA8502B0
:1024E4008D6942EA850242604A68846182630362BC
:1024F40030BD00BF002C014038B590F83C30044694
:10250400012B0D464FF0020058D0012384F83C30D3
:1025140084F83D000C2A4BD8DFE802F0074A4A4A07
:10252400174A4A4A294A4A4A39002068FFF7D2FE24
:1025340023689A6942F008029A619A6922F00402B7
:102544009A6199692A690A430FE02068FFF79CFFA2
:10255400236829699A6942F400629A619A6922F4AB
:1025640080629A619A6942EA01229A6120E02068B5
:10257400FFF7E2FE2368DA6942F00802DA61DA69F9
:1025840022F00402DA61D9692A690A430FE020685B
:10259400FFF708FF23682969DA6942F40062DA6107
:1025A400DA6922F48062DA61DA6942EA0122DA61E4
:1025B4000123002084F83D3084F83C0038BD00003D
:1025C400124B8367124BC367124BC0F88030124B17
:1025D400C0F88430114BC0F88830114BC0F88C30EF
:1025E400104BC0F89030104BC0F894300F4BC0F82B
:1025F40098300F4BC0F89C300E4BC0F8A0300E4BF7
:10260400C0F8A4300D4BC0F8A8307047C3220008AE
:10261400C5220008D1220008D3220008C9220008DC
:10262400CB220008C7220008CD220008CF220008D0
:10263400D5220008C9260008CB260008CD260008AC
:1026440010B50446D8B190F83D3003F0FF0253B9F9
:1026540080F83C20FFF7B4FFA36D0BB9094BA365C9
:10266400A36D20469847022384F83D302068211D3D
:10267400FFF7BEFE012384F83D30002010BD012089
:1026840010BD00BFC122000890F83C3030B5012BCA
:102694004FF0020314D080F83D3003685C689A68F8
:1026A40024F070050C682C4322F080054A685C60B5
:1026B4002A439A60012380F83D30002380F83C309F
:1026C400184630BD70477047704770477047704771
:1026D40070477047704770477047704738B5054674
:1026E400036819241A6922F44051C26800690A4334
:1026F4001A61AA68D96810436A69104321F4B05278
:1027040022F00C020243DA605A6922F44071AA6989
:102714000A435A610D4A934202D1FFF7BFFD01E01B
:10272400FFF7ACFD60436C686423A400B0FBF4F0D5
:10273400B0FBF3F103FB110000013230B0FBF3F303
:102744002A68DBB203EB0113936038BD0038014003
:10275400F8B504460E4617461D46236818683040EF
:10276400B0421BD06A1CF9D095B923680320DA68FB
:1027740022F4D072DA605A6922F001025A612023ED
:1027840084F8393084F83A30002384F83830F8BDBE
:10279400FEF78EFBC01BA842DFD9E6E70020F8BD98
:1027A4002DE9F0411E4690F839300446202B0D46A1
:1027B40090464FD100294AD0002A48D090F83830AA
:1027C400012B47D0012380F838300023C363212331
:1027D40080F83930FEF76CFB0746A4F82480A4F88F
:1027E4002680E38C9BB21BB3E38C2046013B9BB257
:1027F400E384A3688021B3F5805F3A4633460ED163
:10280400FFF7A6FF10B10320BDE8F0812B882268F2
:10281400C3F308035360236943B90235E1E7FFF7C3
:1028240097FF0028EFD123682A785A600135D8E74A
:10283400204640213A463346FFF78AFF0028E2D17A
:10284400202384F8393084F83800BDE8F081012071
:10285400BDE8F0810220BDE8F0810000084B03646C
:10286400084B4364084B8364084BC364084B0365FB
:10287400084B4365084B8365084BC365704700BF2D
:10288400D3260008D1260008D7260008D52600083C
:10289400D9260008DB260008DD260008DF2600080C
:1028A40010B5044600282FD090F8393003F0FF0209
:1028B40053B980F83820FFF7D1FF636E0BB9134B7F
:1028C4006366636E204698472268242384F839306F
:1028D400D368204623F40053D360FFF7FFFE236838
:1028E40000201A6922F490421A615A6922F02A02DD
:1028F4005A61DA6842F40052DA602023E06384F813
:10290400393084F83A3010BD012010BDCF260008BC
:1029140003460A4602490868194600F041B800BF58
:102924006C0000200E4B70B51E460E4C0025E41AB8
:10293400A410A54204D056F8253098470135F8E78D
:1029440000F05EFC084B094C1E46E41AA410002556
:10295400A54204D056F8253098470135F8E770BDF4
:10296400D0330008D0330008D0330008D433000833
:10297400024B0146186800F065B800BF6C000020E7
:10298400024B0146186800F019B800BF6C00002023
:1029940003460244934202D003F8011BFAE770474E
:1029A40038B502FB01F4214600F04CF8054618B195
:1029B40000212246FFF7ECFF284638BD30B5002938
:1029C4003CD051F8042C0B1F1D49002AB8BF9B189A
:1029D4000A680C4612B95A600B6030BD93420DD29E
:1029E40019685818904201BF5A5852181A60426820
:1029F40023605A6030BD994203D80A4651680029C1
:102A0400F9D1146815199D420AD11B682344D018C2
:102A14008842136012D10868034413604B680CE0C9
:102A240002D90C23036030BD1C681819884201BF09
:102A340008684968001918605960536030BD00BFC8
:102A4400A402002070B5CC1C24F0030408340C2C20
:102A540038BF0C24002C064603DA0C233360002014
:102A640070BD8C42F9D3204A136810461946A1B1AF
:102A74000A68121B0ED40B2A03D90A608B188C50D7
:102A84001FE08B420BBF5A684A6802605A6018BF45
:102A94000B4616E00B464968E9E7144D2B681BB951
:102AA400304600F025F828603046214600F020F832
:102AB400421C0346D1D0C51C25F0030585420AD12A
:102AC4001C6003F10B001A1D20F00700821A0AD0C3
:102AD4005142995070BD3046E91A00F009F80130AE
:102AE400BBD02B46ECE770BDA4020020A00200205E
:102AF40038B5064C002305460846236000F072FBF7
:102B0400431C02D1236803B12B6038BDD4020020DA
:102B14000EB400B54FF402719CB0ADF814106FF010
:102B24000041049107914FF6FF711DABADF81610EB
:102B3400084953F8042B02900690086802A90193EF
:102B440000F064F8029B00221A701CB05DF804EBDC
:102B540003B070476C0000202DE9F0478E68824670
:102B6400B3420C469046994640D38A8912F4906F3A
:102B74003AD02568096902236F1A656905EB450592
:102B840095FBF3F57B1C4B449D4238BF1D46530512
:102B94000FD52946FFF756FF064698B121693A46F4
:102BA40000F0CAFAA38923F4906343F08003A3815D
:102BB40013E02A4600F0E6FA064670B95046216949
:102BC400FFF7FCFE0C23CAF80030A3894FF0FF3056
:102BD40043F04003A381BDE8F08726613E442660AC
:102BE4004E466561ED1BA560B14500D24E463246A6
:102BF4002068414600F0ABFAA36800209B1BA36049
:102C040023681E442660BDE8F08700002DE9F043E8
:102C14009DB003938B8906461C060D4690460CD541
:102C24000B6953B94021FFF70DFF2860286110B9E3
:102C34000C233360CCE040236B61002309932023F1
:102C44008DF8293030238DF82A3043461C4613F87A
:102C5400012B1AB9B4EB08090FD002E0252AF5D1EB
:102C6400F8E73046294642464B46FFF775FF0130E8
:102C740000F0A980099B4B4409932378002B00F0B2
:102C8400A28000234FF0FF3204930793059206932A
:102C94008DF853301A9304F101084446DFF8489143
:102CA40021784846052200F039FA08F10108049B0E
:102CB40030B1C9EB00000122824013430493ECE7D6
:102CC400D80644BF20228DF85320190744BF2B2275
:102CD4008DF8532022782A2A02D0079923460EE041
:102CE400039A0134111D12680391002ABBBF52429A
:102CF40043F0020307920792B8BF04930AE01C460C
:102D040022780133303A092A03D80A2000FB012132
:102D1400F5E7079123782E2B1AD163782A2B0AD151
:102D2400039B02341A1D1B680392002BB8BF4FF09B
:102D3400FF3305930CE0611C00220C46237801311B
:102D4400303B092B03D80A2000FB0232F5E7059239
:102D5400DFF8988021784046032200F0DFF938B18B
:102D6400049AC8EB000040238340134304930134C6
:102D740021781A48062204F101088DF8281000F081
:102D8400CDF988B1164B33B9039B073323F00703FE
:102D94000833039313E003AB0093304604A92A4697
:102DA400104BAFF3008007E003AB0093304604A957
:102DB4002A460C4B00F092F8421C074603D0099BAC
:102DC4003B44099341E7AB895B0601D4099801E0D0
:102DD4004FF0FF301DB0BDE8F08300BFA5330008FD
:102DE400000000005D2B00089B330008A13300089D
:102DF4002DE9F84391461F468A680B6906469342BB
:102E0400B8BF1346C9F8003091F843200C46DDF8EA
:102E1400208012B10133C9F800302368990642BFFB
:102E2400D9F800300233C9F80030256815F00605DA
:102E34001CD094F843302268003318BF0123920653
:102E44001FD5E118302081F843005A1C94F845102E
:102E54002244023382F8431013E03046394604F129
:102E640019020123C047013007D00135E368D9F8BE
:102E740000209B1A9D42F0DBDBE74FF0FF30BDE8FA
:102E8400F8833046394604F14302C0470130F4D098
:102E94002268D9F80050E36802F00602042A08BF49
:102EA4005D1B2269A3680CBF25EAE57500259342E2
:102EB400C4BF9B1AED184FF00009A9450ADA304641
:102EC400394604F11A020123C0470130D5D009F173
:102ED4000109F2E70020BDE8F88300002DE9FF4175
:102EE4000C461746227E98466E2A06460A9B01F136
:102EF400430100F0B08012D8632A23D00AD8002AF4
:102F040000F0BD80582A40F0CC8084F84520DFF8DA
:102F140004E257E0642A1ED0692A1CD0C1E0732A57
:102F240000F0B18009D86F2A2ED0702A40F0B98001
:102F3400226842F0200222603FE0752A24D0782AD9
:102F44003BD0AEE01A6804F14205111D1960136804
:102F540084F84230A9E020681A6810F0800F02D08B
:102F6400101D186008E010F0400F02F10400186012
:102F740002D0B2F9003000E01368002B3EDA2D22B3
:102F84005B4284F8432039E020681A6810F0800F0F
:102F940002D0101D186007E010F0400F02F1040089
:102FA400186001D0138800E01368227EDFF864E122
:102FB4006F2A0CBF08220A221CE07822DFF858E1AD
:102FC40084F845202268186812F0800F00F1040587
:102FD4001D6003D1550601D5038800E00368D007BE
:102FE40044BF42F0200222601BB9226822F0200272
:102FF40022601022002084F8430002E0DFF814E18C
:103004000A226568002DA8BF2068A560A4BF20F02F
:103014000400206003B965B10D46B3FBF2F002FB76
:1030240010331EF8033005F8013D03460028F4D19F
:1030340000E00D46082A0BD12368DA0708D5236976
:1030440062689A42DEBF302305F8013C05F1FF3582
:10305400491B21612EE025681A6815F0800F60690C
:1030640003D0151D1D60136808E015F0400F02F130
:1030740004051D60136801D0188000E01860002367
:1030840023610D4616E01A68111D196015680021A8
:103094002846626800F042F808B1401B606063682B
:1030A40004E004F1420584F8422001232361002353
:1030B40084F84330CDF800803046214603AA3B46CD
:1030C400FFF796FE013002D14FF0FF301FE030468B
:1030D40039462A462369C0470130F5D023689B0747
:1030E40005D4E068039B9842B8BF18460FE000255A
:1030F400E368039A9B1A9D42F3DA3046394604F199
:1031040019020123C0470130DED00135F0E704B0D5
:10311400BDE8F081AC330008BD33000810B5C9B276
:1031240002449042034605D01C7801308C42F8D109
:10313400184610BD002010BD10B5431E0A4491422C
:1031440004D011F8014B03F8014FF8E710BD814298
:1031540010B501EB020301D3421E0BE09842FBD2EF
:103164008118D21AD34204D013F8014D01F8014D4D
:10317400F8E710BD994204D011F8014B02F8014F51
:10318400F8E710BDF8B5074615460E4621B91146B5
:10319400BDE8F840FFF756BC1AB9FFF70FFC284604
:1031A400F8BD00F015F8A8420ED238462946FFF7BC
:1031B40049FC044650B131462A46FFF7BDFF384664
:1031C4003146FFF7FBFB01E03046F8BD2046F8BD71
:1031D40051F8040C0028BEBF091851F8043CC0186B
:1031E40004387047044A05491368002B08BF0B468E
:1031F4001844106018467047A8020020D802002026
:10320400F8B500BFF8BC08BC9E467047F8B500BFCF
:08321400F8BC08BC9E4670479F
:10321C0002030405060708090A0B0C0D0E0F10100B
:10322C0001025B424B465D2053797374656D2069D6
:10323C006E697420636F6D706C6574652E205374A9
:10324C00617274696E67206669726D776172652E42
:10325C000A005B424B465D205265616420687762D0
:10326C006974733A205B25645D5B25645D5B256442
:10327C005D5B25645D5B25645D0A00000000000059
:10328C000000000102030406070809000000000109
:10329C000203047372632F7379735F636C6F636BD8
:1032AC002E63005243434F53432048414C20455218
:1032BC005200524343434C4B2048414C2045525200
:1032CC00005B424B465D2053797374656D20485703
:1032DC002D496E697420636F6D706C6574652E0A70
:1032EC00007372632F7379735F6932632E630049C5
:1032FC0032433120494E4954204641494C007372A7
:10330C00632F7379735F75736172742E630055410B
:10331C0052543120494E4954204641494C00737255
:10332C00632F7379735F74696D65722E63005449F2
:10333C004D20444D4120494E495420455252005491
:10334C00494D20494E4954204552520054494D2074
:10335C004D435320494E4954204552520054494D37
:10336C00204F434320494E4954204552520073721A
:10337C00632F7379735F7773323831322E63004E5B
:10338C0050333220494E49542045525200430023B9
:10339C002D302B2000686C4C006566674546470055
:1033AC00303132333435363738394142434445466F
:1033BC000030313233343536373839616263646505
:0433CC006600000097
:0433D000510200089E
:0433D40029020008C2
:1033D8000024F400100000000100000000000000BC
:1033E80000000000000000000000000000000000D5
:1033F80000000000000000000000000099330008F1
:1034080000000000000000000000000000000000B4
:1034180000000000000000000000000000000000A4
:103428000000000000000000000000000000000094
:103438000000000000000000000000000C00002058
:0400000508000BC51F
:00000001FF
